{
  "_format": "hh-sol-artifact-1",
  "contractName": "AllocationAdapterContractV2",
  "sourceName": "contracts/adapters/AllocationAdapterV2.sol",
  "abi": [
    {
      "anonymous": false,
      "inputs": [
        {
          "indexed": false,
          "internalType": "address",
          "name": "daoAddr",
          "type": "address"
        },
        {
          "indexed": false,
          "internalType": "bytes32",
          "name": "proposalId",
          "type": "bytes32"
        },
        {
          "indexed": false,
          "internalType": "address",
          "name": "proposer",
          "type": "address"
        },
        {
          "indexed": false,
          "internalType": "address[]",
          "name": "lps",
          "type": "address[]"
        }
      ],
      "name": "AllocateToken",
      "type": "event"
    },
    {
      "anonymous": false,
      "inputs": [
        {
          "indexed": false,
          "internalType": "uint256",
          "name": "gpAllocationBonusRadio",
          "type": "uint256"
        },
        {
          "indexed": false,
          "internalType": "uint256",
          "name": "riceStakeAllocationRadio",
          "type": "uint256"
        }
      ],
      "name": "ConfigureDao",
      "type": "event"
    },
    {
      "inputs": [
        {
          "internalType": "contract DaoRegistry",
          "name": "dao",
          "type": "address"
        },
        {
          "internalType": "address",
          "name": "tokenAddress",
          "type": "address"
        },
        {
          "internalType": "address",
          "name": "proposerAddr",
          "type": "address"
        },
        {
          "internalType": "bytes32",
          "name": "proposalId",
          "type": "bytes32"
        },
        {
          "internalType": "uint256[5]",
          "name": "uint256Args",
          "type": "uint256[5]"
        }
      ],
      "name": "allocateProjectToken",
      "outputs": [],
      "stateMutability": "nonpayable",
      "type": "function"
    },
    {
      "inputs": [
        {
          "internalType": "contract DaoRegistry",
          "name": "dao",
          "type": "address"
        },
        {
          "internalType": "uint256",
          "name": "gpAllocationBonusRadio",
          "type": "uint256"
        },
        {
          "internalType": "uint256",
          "name": "riceStakeAllocationRadio",
          "type": "uint256"
        }
      ],
      "name": "configureDao",
      "outputs": [],
      "stateMutability": "nonpayable",
      "type": "function"
    },
    {
      "inputs": [
        {
          "internalType": "contract DaoRegistry",
          "name": "dao",
          "type": "address"
        },
        {
          "internalType": "address",
          "name": "recipient",
          "type": "address"
        },
        {
          "internalType": "uint256",
          "name": "tokenAmount",
          "type": "uint256"
        }
      ],
      "name": "getFundingRewards",
      "outputs": [
        {
          "internalType": "uint256",
          "name": "",
          "type": "uint256"
        }
      ],
      "stateMutability": "view",
      "type": "function"
    },
    {
      "inputs": [
        {
          "internalType": "contract DaoRegistry",
          "name": "dao",
          "type": "address"
        },
        {
          "internalType": "address",
          "name": "proposerAddr",
          "type": "address"
        },
        {
          "internalType": "uint256",
          "name": "tokenAmount",
          "type": "uint256"
        }
      ],
      "name": "getProposerBonus",
      "outputs": [
        {
          "internalType": "uint256",
          "name": "",
          "type": "uint256"
        }
      ],
      "stateMutability": "view",
      "type": "function"
    },
    {
      "inputs": [
        {
          "internalType": "contract DaoRegistry",
          "name": "dao",
          "type": "address"
        },
        {
          "internalType": "address",
          "name": "recipient",
          "type": "address"
        },
        {
          "internalType": "bytes32",
          "name": "proposalId",
          "type": "bytes32"
        }
      ],
      "name": "ifEligible",
      "outputs": [
        {
          "internalType": "bool",
          "name": "",
          "type": "bool"
        }
      ],
      "stateMutability": "view",
      "type": "function"
    },
    {
      "inputs": [
        {
          "internalType": "contract DaoRegistry",
          "name": "dao",
          "type": "address"
        },
        {
          "internalType": "bytes32",
          "name": "proposalId",
          "type": "bytes32"
        },
        {
          "internalType": "address",
          "name": "recepient",
          "type": "address"
        }
      ],
      "name": "isVestCreated",
      "outputs": [
        {
          "internalType": "bool",
          "name": "",
          "type": "bool"
        }
      ],
      "stateMutability": "view",
      "type": "function"
    },
    {
      "inputs": [
        {
          "internalType": "contract DaoRegistry",
          "name": "dao",
          "type": "address"
        },
        {
          "internalType": "bytes32",
          "name": "proposalId",
          "type": "bytes32"
        },
        {
          "internalType": "address",
          "name": "recipient",
          "type": "address"
        }
      ],
      "name": "streamCreated",
      "outputs": [
        {
          "internalType": "bool",
          "name": "",
          "type": "bool"
        }
      ],
      "stateMutability": "nonpayable",
      "type": "function"
    },
    {
      "inputs": [
        {
          "internalType": "address",
          "name": "",
          "type": "address"
        },
        {
          "internalType": "bytes32",
          "name": "",
          "type": "bytes32"
        },
        {
          "internalType": "address",
          "name": "",
          "type": "address"
        }
      ],
      "name": "vestingInfos",
      "outputs": [
        {
          "internalType": "uint256",
          "name": "tokenAmount",
          "type": "uint256"
        },
        {
          "internalType": "bool",
          "name": "created",
          "type": "bool"
        }
      ],
      "stateMutability": "view",
      "type": "function"
    }
  ],
  "bytecode": "0x608060405234801561001057600080fd5b50611a17806100206000396000f3fe608060405234801561001057600080fd5b50600436106100885760003560e01c8063944120fb1161005b578063944120fb1461012d578063a60e68fe1461014e578063bb7c06c714610161578063c431eb631461017457600080fd5b80631190b0a61461008d5780635d5cdb32146100e25780636cb4e9eb146100f75780637d15e7b91461011a575b600080fd5b6100c861009b3660046115c9565b60026020908152600093845260408085208252928452828420905282529020805460019091015460ff1682565b604080519283529015156020830152015b60405180910390f35b6100f56100f03660046116de565b610187565b005b61010a6101053660046117ca565b610c8c565b60405190151581526020016100d9565b61010a61012836600461178a565b610cc8565b61014061013b36600461178a565b610d0d565b6040519081526020016100d9565b6100f561015c3660046117de565b610eef565b61010a61016f3660046117ca565b610fb7565b61014061018236600461178a565b611108565b6040516317ba7d8560e01b81527f2a014d63456a24764c5dba5876cafc75ecbe2d639a1af4060fe13c6f50d4ba2060048201526001600160a01b038616906317ba7d859060240160206040518083038186803b1580156101e657600080fd5b505afa1580156101fa573d6000803e3d6000fd5b505050506040513d601f19601f8201168201806040525081019061021e91906115ad565b6001600160a01b0316336001600160a01b03161461028d5760405162461bcd60e51b815260206004820152602160248201527f616c6c6f6361746550726f6a656374546f6b656e3a3a6163636573732064656e6044820152607960f81b60648201526084015b60405180910390fd5b6102fd60405180610180016040528060006001600160a01b03168152602001600081526020016000815260200160008152602001600060ff168152602001600081526020016000815260200160008152602001600081526020016000815260200160008152602001600081525090565b815160e082015260208201516101008201526040808301516101208301526060830151610140830152608083015161016083015251632c9f4b5b60e11b81527feadd166fac11c69a9d01b14cdd03f0902ebe2a3d90e6e17ced26382b23bfe1c460048201526001600160a01b0387169063593e96b69060240160206040518083038186803b15801561038e57600080fd5b505afa1580156103a2573d6000803e3d6000fd5b505050506040513d601f19601f820116820180604052508101906103c691906115ad565b6001600160a01b03908116825260e08201516040516317ba7d8560e01b81527f2a014d63456a24764c5dba5876cafc75ecbe2d639a1af4060fe13c6f50d4ba20600482015290918781169163dd62ed3e918a16906317ba7d859060240160206040518083038186803b15801561043b57600080fd5b505afa15801561044f573d6000803e3d6000fd5b505050506040513d601f19601f8201168201806040525081019061047391906115ad565b6040516001600160e01b031960e084901b1681526001600160a01b03909116600482015230602482015260440160206040518083038186803b1580156104b857600080fd5b505afa1580156104cc573d6000803e3d6000fd5b505050506040513d601f19601f820116820180604052508101906104f09190611831565b10156105645760405162461bcd60e51b815260206004820152603f60248201527f416c6c6f636174696f6e416461707465723a3a616c6c6f6361746550726f6a6560448201527f6374546f6b656e3a3a696e73756666696369656e7420616c6c6f77616e6365006064820152608401610284565b6040516317ba7d8560e01b81527f2a014d63456a24764c5dba5876cafc75ecbe2d639a1af4060fe13c6f50d4ba2060048201526001600160a01b03808716916323b872dd918916906317ba7d859060240160206040518083038186803b1580156105cd57600080fd5b505afa1580156105e1573d6000803e3d6000fd5b505050506040513d601f19601f8201168201806040525081019061060591906115ad565b60e0848101516040519184901b6001600160e01b03191682526001600160a01b039290921660048201523060248201526044810191909152606401602060405180830381600087803b15801561065a57600080fd5b505af115801561066e573d6000803e3d6000fd5b505050506040513d601f19601f8201168201806040525081019061069291906116be565b50846001600160a01b031663dd62ed3e30886001600160a01b03166317ba7d857f552a230dd619d2fa767bf60d9fc3ece302bde1086b9d69a14d6a843b45512ccc6040518263ffffffff1660e01b81526004016106f191815260200190565b60206040518083038186803b15801561070957600080fd5b505afa15801561071d573d6000803e3d6000fd5b505050506040513d601f19601f8201168201806040525081019061074191906115ad565b6040516001600160e01b031960e085901b1681526001600160a01b0392831660048201529116602482015260440160206040518083038186803b15801561078757600080fd5b505afa15801561079b573d6000803e3d6000fd5b505050506040513d601f19601f820116820180604052508101906107bf9190611831565b6040820181905260e08201516107d49161190f565b60608201526040516317ba7d8560e01b81527fdfea78be99560632cc4c199ca1b0d68ffe0bbbb07b685976cefc8820374ac73a60048201526001600160a01b038681169163095ea7b3918916906317ba7d859060240160206040518083038186803b15801561084257600080fd5b505afa158015610856573d6000803e3d6000fd5b505050506040513d601f19601f8201168201806040525081019061087a91906115ad565b60608401516040516001600160e01b031960e085901b1681526001600160a01b0390921660048301526024820152604401602060405180830381600087803b1580156108c557600080fd5b505af11580156108d9573d6000803e3d6000fd5b505050506040513d601f19601f820116820180604052508101906108fd91906116be565b50600081600001516001600160a01b031663b2f5a54c6040518163ffffffff1660e01b815260040160006040518083038186803b15801561093d57600080fd5b505afa158015610951573d6000803e3d6000fd5b505050506040513d6000823e601f3d908101601f19168201604052610979919081019061160a565b60006020840152805190915015610ac257600060808301525b8051826080015160ff161015610ac2576109df8782846080015160ff16815181106109cd57634e487b7160e01b600052603260045260246000fd5b60200260200101518460e00151611108565b60a0830181905215610aa75760408051808201825260a08401518152600060208083018290526001600160a01b038b1682526002815283822088835290529182206080850151845192939192859160ff16908110610a4d57634e487b7160e01b600052603260045260246000fd5b6020908102919091018101516001600160a01b031682528181019290925260400160002082518155918101516001909201805460ff19169215159290921790915560a08301519083018051610aa390839061190f565b9052505b60808201805190610ab78261197d565b60ff16905250610992565b6001600160a01b03851615610ba257610ae087868460e00151610d0d565b60c0830181905215610ba25760408051808201825260c08401516001600160a01b03808b166000908152600260209081528582208a83528152858220928b16825291909152929092205490918291610b38919061190f565b8152600060209182018190526001600160a01b038a811682526002835260408083208984528452808320918a168352908352902082518155918101516001909201805460ff19169215159290921790915560c08301519083018051610b9e90839061190f565b9052505b8160e0015182602001511115610c465760405162461bcd60e51b815260206004820152605c60248201527f416c6c6f636174696f6e416461707465723a3a616c6c6f6361746550726f6a6560448201527f6374546f6b656e3a3a6469737472696275746520746f6b656e20616d6f756e7460648201527f2065786365656473207472616e64696e67206f666620616d6f756e7400000000608482015260a401610284565b7fb30991f84bbcadc6375188d275cc12036a829854c38fa1fb9bf1125fc45b08fe87858784604051610c7b9493929190611849565b60405180910390a150505050505050565b6001600160a01b03808416600090815260026020908152604080832086845282528083209385168352929052206001015460ff165b9392505050565b6001600160a01b038084166000908152600260209081526040808320858452825280832093861683529290529081205415610d0557506001610cc1565b506000610cc1565b604051632c9f4b5b60e11b81527f67e84d3ef18b24e32f9a9b2e9bac9e7ea8cde2f146ce512d44b9d6718a1f3ca0600482015260009081906001600160a01b0386169063593e96b69060240160206040518083038186803b158015610d7157600080fd5b505afa158015610d85573d6000803e3d6000fd5b505050506040513d601f19601f82011682018060405250810190610da991906115ad565b6040516319a73c8360e31b81526001600160a01b0386811660048301529192509082169063cd39e4189060240160206040518083038186803b158015610dee57600080fd5b505afa158015610e02573d6000803e3d6000fd5b505050506040513d601f19601f82011682018060405250810190610e2691906116be565b610e34576000915050610cc1565b604051634941d71d60e11b81527f852a1117c7e9da33751d11fe2e33c597893ea8a4a1ae7116f44e407f91a2560360048201526000906064906001600160a01b03881690639283ae3a9060240160206040518083038186803b158015610e9957600080fd5b505afa158015610ead573d6000803e3d6000fd5b505050506040513d601f19601f82011682018060405250810190610ed19190611831565b610edb9086611947565b610ee59190611927565b9695505050505050565b6040516368c18beb60e01b815233600482015283906001600160a01b038216906368c18beb9060240160206040518083038186803b158015610f3057600080fd5b505afa158015610f44573d6000803e3d6000fd5b505050506040513d601f19601f82011682018060405250810190610f6891906116be565b80610f775750610f77816113a0565b610fb15760405162461bcd60e51b815260206004820152600b60248201526a37b7363ca0b230b83a32b960a91b6044820152606401610284565b50505050565b6040516317ba7d8560e01b81527f552a230dd619d2fa767bf60d9fc3ece302bde1086b9d69a14d6a843b45512ccc60048201526000906001600160a01b038516906317ba7d859060240160206040518083038186803b15801561101957600080fd5b505afa15801561102d573d6000803e3d6000fd5b505050506040513d601f19601f8201168201806040525081019061105191906115ad565b6001600160a01b0316336001600160a01b0316146110c55760405162461bcd60e51b815260206004820152602b60248201527f416c6c6f636174696f6e416461707465723a73747265616d437265617465643a60448201526a4163636573732064656e7960a81b6064820152608401610284565b6001600160a01b03938416600090815260026020908152604080832095835294815284822093909516815291909352206001908101805460ff1916909117905590565b604051632c9f4b5b60e11b81527feadd166fac11c69a9d01b14cdd03f0902ebe2a3d90e6e17ced26382b23bfe1c4600482015260009081906001600160a01b0386169063593e96b69060240160206040518083038186803b15801561116c57600080fd5b505afa158015611180573d6000803e3d6000fd5b505050506040513d601f19601f820116820180604052508101906111a491906115ad565b604051634941d71d60e11b81527f852a1117c7e9da33751d11fe2e33c597893ea8a4a1ae7116f44e407f91a2560360048201529091506000906064906001600160a01b03881690639283ae3a9060240160206040518083038186803b15801561120c57600080fd5b505afa158015611220573d6000803e3d6000fd5b505050506040513d601f19601f820116820180604052508101906112449190611831565b61124f906064611966565b6112599086611947565b6112639190611927565b90506000826001600160a01b03166318160ddd6040518163ffffffff1660e01b815260040160206040518083038186803b1580156112a057600080fd5b505afa1580156112b4573d6000803e3d6000fd5b505050506040513d601f19601f820116820180604052508101906112d89190611831565b6040516370a0823160e01b81526001600160a01b0388811660048301529192506000918516906370a082319060240160206040518083038186803b15801561131f57600080fd5b505afa158015611333573d6000803e3d6000fd5b505050506040513d601f19601f820116820180604052508101906113579190611831565b9050811580611364575080155b8061136d575082155b1561137f576000945050505050610cc1565b8161138a8483611947565b6113949190611927565b98975050505050505050565b600080826001600160a01b031663c19d93fb6040518163ffffffff1660e01b815260040160206040518083038186803b1580156113dc57600080fd5b505afa1580156113f0573d6000803e3d6000fd5b505050506040513d601f19601f820116820180604052508101906114149190611812565b600181111561143357634e487b7160e01b600052602160045260246000fd5b1480156115a75750816001600160a01b031663c67143666040518163ffffffff1660e01b815260040160206040518083038186803b15801561147457600080fd5b505afa158015611488573d6000803e3d6000fd5b505050506040513d601f19601f820116820180604052508101906114ac9190611831565b158061152a575060405163288c314960e21b81523360048201526001600160a01b0383169063a230c5249060240160206040518083038186803b1580156114f257600080fd5b505afa158015611506573d6000803e3d6000fd5b505050506040513d601f19601f8201168201806040525081019061152a91906116be565b806115a757506040516368c18beb60e01b81523360048201526001600160a01b038316906368c18beb9060240160206040518083038186803b15801561156f57600080fd5b505afa158015611583573d6000803e3d6000fd5b505050506040513d601f19601f820116820180604052508101906115a791906116be565b92915050565b6000602082840312156115be578081fd5b8151610cc1816119c9565b6000806000606084860312156115dd578182fd5b83356115e8816119c9565b92506020840135915060408401356115ff816119c9565b809150509250925092565b6000602080838503121561161c578182fd5b825167ffffffffffffffff80821115611633578384fd5b818501915085601f830112611646578384fd5b815181811115611658576116586119b3565b8060051b91506116698483016118de565b8181528481019084860184860187018a1015611683578788fd5b8795505b838610156116b1578051945061169c856119c9565b84835260019590950194918601918601611687565b5098975050505050505050565b6000602082840312156116cf578081fd5b81518015158114610cc1578182fd5b60008060008060006101208087890312156116f7578182fd5b8635611702816119c9565b9550602087810135611713816119c9565b95506040880135611723816119c9565b945060608801359350609f8801891361173a578283fd5b6117426118b5565b8060808a018b858c011115611755578586fd5b8594505b6005851015611778578035835260019490940193918301918301611759565b50809450505050509295509295909350565b60008060006060848603121561179e578283fd5b83356117a9816119c9565b925060208401356117b9816119c9565b929592945050506040919091013590565b6000806000606084860312156115dd578283fd5b6000806000606084860312156117f2578283fd5b83356117fd816119c9565b95602085013595506040909401359392505050565b600060208284031215611823578081fd5b815160028110610cc1578182fd5b600060208284031215611842578081fd5b5051919050565b6001600160a01b03858116825260208083018690528482166040840152608060608401819052845190840181905260009285830192909160a0860190855b818110156118a5578551851683529483019491830191600101611887565b50909a9950505050505050505050565b60405160a0810167ffffffffffffffff811182821017156118d8576118d86119b3565b60405290565b604051601f8201601f1916810167ffffffffffffffff81118282101715611907576119076119b3565b604052919050565b600082198211156119225761192261199d565b500190565b60008261194257634e487b7160e01b81526012600452602481fd5b500490565b60008160001904831182151516156119615761196161199d565b500290565b6000828210156119785761197861199d565b500390565b600060ff821660ff8114156119945761199461199d565b60010192915050565b634e487b7160e01b600052601160045260246000fd5b634e487b7160e01b600052604160045260246000fd5b6001600160a01b03811681146119de57600080fd5b5056fea2646970667358221220ecbeb3c51645c8c83d83d89f3380b3c2cdb9a6135c3ee92d90731f41b7315b1f64736f6c63430008040033",
  "linkReferences": {},
  "deployedLinkReferences": {}
}