{
  "_format": "hh-sol-artifact-1",
  "contractName": "DaoFactory",
  "sourceName": "contracts/core/DaoFactory.sol",
  "abi": [
    {
      "inputs": [
        {
          "internalType": "address",
          "name": "_identityAddress",
          "type": "address"
        }
      ],
      "stateMutability": "nonpayable",
      "type": "constructor"
    },
    {
      "anonymous": false,
      "inputs": [
        {
          "indexed": false,
          "internalType": "address",
          "name": "_address",
          "type": "address"
        },
        {
          "indexed": false,
          "internalType": "address",
          "name": "_creator",
          "type": "address"
        },
        {
          "indexed": false,
          "internalType": "string",
          "name": "_name",
          "type": "string"
        }
      ],
      "name": "DAOCreated",
      "type": "event"
    },
    {
      "anonymous": false,
      "inputs": [
        {
          "indexed": false,
          "internalType": "address",
          "name": "_oldOwner",
          "type": "address"
        },
        {
          "indexed": false,
          "internalType": "address",
          "name": "_newOwner",
          "type": "address"
        }
      ],
      "name": "OwnerChanged",
      "type": "event"
    },
    {
      "inputs": [
        {
          "internalType": "contract DaoRegistry",
          "name": "dao",
          "type": "address"
        },
        {
          "components": [
            {
              "internalType": "bytes32",
              "name": "id",
              "type": "bytes32"
            },
            {
              "internalType": "address",
              "name": "addr",
              "type": "address"
            },
            {
              "internalType": "uint128",
              "name": "flags",
              "type": "uint128"
            }
          ],
          "internalType": "struct DaoFactory.Adapter[]",
          "name": "adapters",
          "type": "tuple[]"
        }
      ],
      "name": "addAdapters",
      "outputs": [],
      "stateMutability": "nonpayable",
      "type": "function"
    },
    {
      "inputs": [
        {
          "internalType": "bytes32",
          "name": "",
          "type": "bytes32"
        }
      ],
      "name": "addresses",
      "outputs": [
        {
          "internalType": "address",
          "name": "",
          "type": "address"
        }
      ],
      "stateMutability": "view",
      "type": "function"
    },
    {
      "inputs": [
        {
          "internalType": "contract DaoRegistry",
          "name": "dao",
          "type": "address"
        },
        {
          "internalType": "address",
          "name": "extension",
          "type": "address"
        },
        {
          "components": [
            {
              "internalType": "bytes32",
              "name": "id",
              "type": "bytes32"
            },
            {
              "internalType": "address",
              "name": "addr",
              "type": "address"
            },
            {
              "internalType": "uint128",
              "name": "flags",
              "type": "uint128"
            }
          ],
          "internalType": "struct DaoFactory.Adapter[]",
          "name": "adapters",
          "type": "tuple[]"
        }
      ],
      "name": "configureExtension",
      "outputs": [],
      "stateMutability": "nonpayable",
      "type": "function"
    },
    {
      "inputs": [
        {
          "internalType": "string",
          "name": "daoName",
          "type": "string"
        },
        {
          "internalType": "address",
          "name": "creator",
          "type": "address"
        }
      ],
      "name": "createDao",
      "outputs": [],
      "stateMutability": "nonpayable",
      "type": "function"
    },
    {
      "inputs": [
        {
          "internalType": "address",
          "name": "",
          "type": "address"
        }
      ],
      "name": "daos",
      "outputs": [
        {
          "internalType": "bytes32",
          "name": "",
          "type": "bytes32"
        }
      ],
      "stateMutability": "view",
      "type": "function"
    },
    {
      "inputs": [
        {
          "internalType": "string",
          "name": "daoName",
          "type": "string"
        }
      ],
      "name": "getDaoAddress",
      "outputs": [
        {
          "internalType": "address",
          "name": "",
          "type": "address"
        }
      ],
      "stateMutability": "view",
      "type": "function"
    },
    {
      "inputs": [],
      "name": "identityAddress",
      "outputs": [
        {
          "internalType": "address",
          "name": "",
          "type": "address"
        }
      ],
      "stateMutability": "view",
      "type": "function"
    },
    {
      "inputs": [],
      "name": "owner",
      "outputs": [
        {
          "internalType": "address",
          "name": "",
          "type": "address"
        }
      ],
      "stateMutability": "view",
      "type": "function"
    },
    {
      "inputs": [
        {
          "internalType": "address",
          "name": "_owner",
          "type": "address"
        }
      ],
      "name": "setOwner",
      "outputs": [],
      "stateMutability": "nonpayable",
      "type": "function"
    },
    {
      "inputs": [
        {
          "internalType": "contract DaoRegistry",
          "name": "dao",
          "type": "address"
        },
        {
          "components": [
            {
              "internalType": "bytes32",
              "name": "id",
              "type": "bytes32"
            },
            {
              "internalType": "address",
              "name": "addr",
              "type": "address"
            },
            {
              "internalType": "uint128",
              "name": "flags",
              "type": "uint128"
            }
          ],
          "internalType": "struct DaoFactory.Adapter",
          "name": "adapter",
          "type": "tuple"
        }
      ],
      "name": "updateAdapter",
      "outputs": [],
      "stateMutability": "nonpayable",
      "type": "function"
    }
  ],
  "bytecode": "0x608060405234801561001057600080fd5b5060405161110e38038061110e83398101604081905261002f916100a6565b6001600160a01b0381166100785760405162461bcd60e51b815260206004820152600c60248201526b34b73b30b634b21030b2323960a11b604482015260640160405180910390fd5b600280546001600160a01b039092166001600160a01b031992831617905560038054909116331790556100d4565b6000602082840312156100b7578081fd5b81516001600160a01b03811681146100cd578182fd5b9392505050565b61102b806100e36000396000f3fe608060405234801561001057600080fd5b506004361061009e5760003560e01c80638da5cb5b116100665780638da5cb5b146101375780639bb200841461014a578063ac704cbe1461015d578063bf45767a14610170578063c25f3cf61461018357600080fd5b806313af4035146100a35780631d1f0a27146100b857806329ca12ed146100e85780633baeff3f146100fb578063699f200f1461010e575b600080fd5b6100b66100b1366004610ba8565b6101b1565b005b6100cb6100c6366004610d17565b610231565b6040516001600160a01b0390911681526020015b60405180910390f35b6100b66100f6366004610c03565b610282565b6100b6610109366004610d57565b6104e2565b6100cb61011c366004610beb565b6001602052600090815260409020546001600160a01b031681565b6003546100cb906001600160a01b031681565b6100b6610158366004610c66565b610654565b6100b661016b366004610cb9565b6108ce565b6002546100cb906001600160a01b031681565b6101a3610191366004610ba8565b60006020819052908152604090205481565b6040519081526020016100df565b6003546001600160a01b031633146101c857600080fd5b600354604080516001600160a01b03928316815291831660208301527fb532073b38c83145e3e5135377a08bf9aab55bc0fd7c1179cd4fb995d2a5159c910160405180910390a1600380546001600160a01b0319166001600160a01b0392909216919091179055565b600060016000610261858560405160200161024d929190610dd3565b604051602081830303815290604052610ab0565b81526020810191909152604001600020546001600160a01b03169392505050565b60405163288c314960e21b81523360048201526001600160a01b0385169063a230c5249060240160206040518083038186803b1580156102c157600080fd5b505afa1580156102d5573d6000803e3d6000fd5b505050506040513d601f19601f820116820180604052508101906102f99190610bcb565b61031e5760405162461bcd60e51b815260040161031590610f5b565b60405180910390fd5b6000846001600160a01b031663c19d93fb6040518163ffffffff1660e01b815260040160206040518083038186803b15801561035957600080fd5b505afa15801561036d573d6000803e3d6000fd5b505050506040513d601f19601f820116820180604052508101906103919190610cf8565b60018111156103b057634e487b7160e01b600052602160045260246000fd5b146103cd5760405162461bcd60e51b815260040161031590610f7f565b60005b818110156104db57846001600160a01b031663179986f88585858581811061040857634e487b7160e01b600052603260045260246000fd5b90506060020160200160208101906104209190610ba8565b86868681811061044057634e487b7160e01b600052603260045260246000fd5b90506060020160400160208101906104589190610dac565b6040516001600160e01b031960e086901b1681526001600160a01b0393841660048201529290911660248301526001600160801b03166044820152606401600060405180830381600087803b1580156104b057600080fd5b505af11580156104c4573d6000803e3d6000fd5b5050505080806104d390610fb6565b9150506103d0565b5050505050565b60006104fa848460405160200161024d929190610dd3565b6000818152600160209081526040918290205491519293506001600160a01b03909116159161052d918791879101610de3565b6040516020818303038152906040529061055a5760405162461bcd60e51b81526004016103159190610f08565b50600254600090610573906001600160a01b0316610acc565b600083815260016020908152604080832080546001600160a01b0319166001600160a01b0386811691821790925580855292849052928190208690555163c0c53b8b60e01b8152918616600483015233602483015230604483015291925082919063c0c53b8b90606401600060405180830381600087803b1580156105f757600080fd5b505af115801561060b573d6000803e3d6000fd5b505050507f87efdefc545e4a926431f358053a7ddaf28342672ba94923d20b4c07451b75a0818588886040516106449493929190610e19565b60405180910390a1505050505050565b60405163288c314960e21b81523360048201526001600160a01b0384169063a230c5249060240160206040518083038186803b15801561069357600080fd5b505afa1580156106a7573d6000803e3d6000fd5b505050506040513d601f19601f820116820180604052508101906106cb9190610bcb565b6106e75760405162461bcd60e51b815260040161031590610f5b565b6000836001600160a01b031663c19d93fb6040518163ffffffff1660e01b815260040160206040518083038186803b15801561072257600080fd5b505afa158015610736573d6000803e3d6000fd5b505050506040513d601f19601f8201168201806040525081019061075a9190610cf8565b600181111561077957634e487b7160e01b600052602160045260246000fd5b146107965760405162461bcd60e51b815260040161031590610f7f565b60005b818110156108c857836001600160a01b031663a37ff5e48484848181106107d057634e487b7160e01b600052603260045260246000fd5b905060600201600001358585858181106107fa57634e487b7160e01b600052603260045260246000fd5b90506060020160200160208101906108129190610ba8565b86868681811061083257634e487b7160e01b600052603260045260246000fd5b905060600201604001602081019061084a9190610dac565b60408051600080825260208201908152818301928390526001600160e01b031960e088901b169092526108839493929160448201610e62565b600060405180830381600087803b15801561089d57600080fd5b505af11580156108b1573d6000803e3d6000fd5b5050505080806108c090610fb6565b915050610799565b50505050565b60405163288c314960e21b81523360048201526001600160a01b0383169063a230c5249060240160206040518083038186803b15801561090d57600080fd5b505afa158015610921573d6000803e3d6000fd5b505050506040513d601f19601f820116820180604052508101906109459190610bcb565b6109615760405162461bcd60e51b815260040161031590610f5b565b6000826001600160a01b031663c19d93fb6040518163ffffffff1660e01b815260040160206040518083038186803b15801561099c57600080fd5b505afa1580156109b0573d6000803e3d6000fd5b505050506040513d601f19601f820116820180604052508101906109d49190610cf8565b60018111156109f357634e487b7160e01b600052602160045260246000fd5b14610a105760405162461bcd60e51b815260040161031590610f7f565b6001600160a01b03821663a37ff5e48235610a316040850160208601610ba8565b610a416060860160408701610dac565b60408051600080825260208201908152818301928390526001600160e01b031960e088901b16909252610a7a9493929160448201610e62565b600060405180830381600087803b158015610a9457600080fd5b505af1158015610aa8573d6000803e3d6000fd5b505050505050565b6000815160001415610ac457506000919050565b506020015190565b6000808260601b9050604051733d602d80600a3d3981f3363d3d373d3d3d363d7360601b81528160148201526e5af43d82803e903d91602b57fd5bf360881b60288201526037816000f0949350505050565b60008083601f840112610b2f578182fd5b50813567ffffffffffffffff811115610b46578182fd5b602083019150836020606083028501011115610b6157600080fd5b9250929050565b60008083601f840112610b79578182fd5b50813567ffffffffffffffff811115610b90578182fd5b602083019150836020828501011115610b6157600080fd5b600060208284031215610bb9578081fd5b8135610bc481610fdd565b9392505050565b600060208284031215610bdc578081fd5b81518015158114610bc4578182fd5b600060208284031215610bfc578081fd5b5035919050565b60008060008060608587031215610c18578283fd5b8435610c2381610fdd565b93506020850135610c3381610fdd565b9250604085013567ffffffffffffffff811115610c4e578283fd5b610c5a87828801610b1e565b95989497509550505050565b600080600060408486031215610c7a578283fd5b8335610c8581610fdd565b9250602084013567ffffffffffffffff811115610ca0578283fd5b610cac86828701610b1e565b9497909650939450505050565b6000808284036080811215610ccc578283fd5b8335610cd781610fdd565b92506060601f1982011215610cea578182fd5b506020830190509250929050565b600060208284031215610d09578081fd5b815160028110610bc4578182fd5b60008060208385031215610d29578182fd5b823567ffffffffffffffff811115610d3f578283fd5b610d4b85828601610b68565b90969095509350505050565b600080600060408486031215610d6b578283fd5b833567ffffffffffffffff811115610d81578384fd5b610d8d86828701610b68565b9094509250506020840135610da181610fdd565b809150509250925092565b600060208284031215610dbd578081fd5b81356001600160801b0381168114610bc4578182fd5b8183823760009101908152919050565b6403730b6b2960dd1b8152818360058301376d1030b63932b0b23c903a30b5b2b760911b91016005810191909152601301919050565b6001600160a01b038581168252841660208201526060604082018190528101829052600082846080840137818301608090810191909152601f909201601f191601019392505050565b8581526001600160a01b0385166020808301919091526001600160801b038516604083015260a06060830181905284519083018190526000918581019160c0850190845b81811015610ec257845183529383019391830191600101610ea6565b505084810360808601528551808252908201925081860190845b81811015610ef857825185529383019391830191600101610edc565b50929a9950505050505050505050565b6000602080835283518082850152825b81811015610f3457858101830151858201604001528201610f18565b81811115610f455783604083870101525b50601f01601f1916929092016040019392505050565b6020808252600a90820152693737ba1036b2b6b132b960b11b604082015260600190565b6020808252601f908201527f746869732044414f2068617320616c7265616479206265656e20736574757000604082015260600190565b6000600019821415610fd657634e487b7160e01b81526011600452602481fd5b5060010190565b6001600160a01b0381168114610ff257600080fd5b5056fea26469706673582212207fcb096b7096c680e93b5c766112b6af6f08fa86e64a766375412d8aaba830f864736f6c63430008040033",
  "linkReferences": {},
  "deployedLinkReferences": {}
}