{
  "_format": "hh-sol-artifact-1",
  "contractName": "DistributeFundContractV2",
  "sourceName": "contracts/adapters/DistributeFundV2.sol",
  "abi": [
    {
      "inputs": [],
      "name": "Empty",
      "type": "error"
    },
    {
      "inputs": [],
      "name": "InvalidStepSetting",
      "type": "error"
    },
    {
      "anonymous": false,
      "inputs": [
        {
          "indexed": false,
          "internalType": "address",
          "name": "daoAddr",
          "type": "address"
        },
        {
          "indexed": false,
          "internalType": "bytes32",
          "name": "proposalId",
          "type": "bytes32"
        }
      ],
      "name": "ProposalCreated",
      "type": "event"
    },
    {
      "anonymous": false,
      "inputs": [
        {
          "indexed": false,
          "internalType": "address",
          "name": "daoAddr",
          "type": "address"
        },
        {
          "indexed": false,
          "internalType": "bytes32",
          "name": "proposalID",
          "type": "bytes32"
        },
        {
          "indexed": false,
          "internalType": "uint256",
          "name": "state",
          "type": "uint256"
        },
        {
          "indexed": false,
          "internalType": "uint128",
          "name": "allVotingWeight",
          "type": "uint128"
        },
        {
          "indexed": false,
          "internalType": "uint128",
          "name": "nbYes",
          "type": "uint128"
        },
        {
          "indexed": false,
          "internalType": "uint128",
          "name": "nbNo",
          "type": "uint128"
        },
        {
          "indexed": false,
          "internalType": "uint256",
          "name": "distributeState",
          "type": "uint256"
        }
      ],
      "name": "ProposalExecuted",
      "type": "event"
    },
    {
      "anonymous": false,
      "inputs": [
        {
          "indexed": false,
          "internalType": "address",
          "name": "daoAddr",
          "type": "address"
        },
        {
          "indexed": false,
          "internalType": "bytes32",
          "name": "proposalID",
          "type": "bytes32"
        },
        {
          "indexed": false,
          "internalType": "uint256",
          "name": "startVoteTime",
          "type": "uint256"
        },
        {
          "indexed": false,
          "internalType": "uint256",
          "name": "stopVoteTime",
          "type": "uint256"
        },
        {
          "indexed": false,
          "internalType": "enum IFunding.DistributionStatus",
          "name": "state",
          "type": "uint8"
        }
      ],
      "name": "StartVote",
      "type": "event"
    },
    {
      "inputs": [],
      "name": "PERCENTAGE_PRECISION",
      "outputs": [
        {
          "internalType": "uint256",
          "name": "",
          "type": "uint256"
        }
      ],
      "stateMutability": "view",
      "type": "function"
    },
    {
      "inputs": [
        {
          "internalType": "contract DaoRegistry",
          "name": "dao",
          "type": "address"
        },
        {
          "internalType": "uint256",
          "name": "proposalDuration",
          "type": "uint256"
        },
        {
          "internalType": "uint256",
          "name": "proposalInterval",
          "type": "uint256"
        },
        {
          "internalType": "uint256",
          "name": "proposalExecuteDurantion",
          "type": "uint256"
        }
      ],
      "name": "configureDao",
      "outputs": [],
      "stateMutability": "nonpayable",
      "type": "function"
    },
    {
      "inputs": [
        {
          "internalType": "address",
          "name": "",
          "type": "address"
        },
        {
          "internalType": "bytes32",
          "name": "",
          "type": "bytes32"
        }
      ],
      "name": "distributions",
      "outputs": [
        {
          "internalType": "address",
          "name": "tokenAddr",
          "type": "address"
        },
        {
          "internalType": "uint256",
          "name": "tradingOffTokenAmount",
          "type": "uint256"
        },
        {
          "internalType": "uint256",
          "name": "requestedFundAmount",
          "type": "uint256"
        },
        {
          "internalType": "address",
          "name": "recipientAddr",
          "type": "address"
        },
        {
          "internalType": "address",
          "name": "approveOwnerAddr",
          "type": "address"
        },
        {
          "internalType": "address",
          "name": "proposer",
          "type": "address"
        },
        {
          "internalType": "enum IFunding.DistributionStatus",
          "name": "status",
          "type": "uint8"
        },
        {
          "internalType": "uint256",
          "name": "inQueueTimestamp",
          "type": "uint256"
        },
        {
          "internalType": "uint256",
          "name": "proposalStartVotingTimestamp",
          "type": "uint256"
        },
        {
          "internalType": "uint256",
          "name": "proposalStopVotingTimestamp",
          "type": "uint256"
        },
        {
          "internalType": "uint256",
          "name": "proposalExecuteTimestamp",
          "type": "uint256"
        },
        {
          "components": [
            {
              "internalType": "uint256",
              "name": "vestingStartTime",
              "type": "uint256"
            },
            {
              "internalType": "uint256",
              "name": "vestingCliffDuration",
              "type": "uint256"
            },
            {
              "internalType": "uint256",
              "name": "vestingStepDuration",
              "type": "uint256"
            },
            {
              "internalType": "uint256",
              "name": "vestingSteps",
              "type": "uint256"
            },
            {
              "internalType": "uint256",
              "name": "vestingCliffLockAmount",
              "type": "uint256"
            }
          ],
          "internalType": "struct IFunding.VestInfo",
          "name": "vestInfo",
          "type": "tuple"
        }
      ],
      "stateMutability": "view",
      "type": "function"
    },
    {
      "inputs": [
        {
          "internalType": "contract DaoRegistry",
          "name": "dao",
          "type": "address"
        },
        {
          "internalType": "address",
          "name": "_addr",
          "type": "address"
        }
      ],
      "name": "isActiveGeneralPartner",
      "outputs": [
        {
          "internalType": "bool",
          "name": "",
          "type": "bool"
        }
      ],
      "stateMutability": "view",
      "type": "function"
    },
    {
      "inputs": [
        {
          "internalType": "contract DaoRegistry",
          "name": "dao",
          "type": "address"
        },
        {
          "internalType": "address",
          "name": "_addr",
          "type": "address"
        }
      ],
      "name": "isActiveMember",
      "outputs": [
        {
          "internalType": "bool",
          "name": "",
          "type": "bool"
        }
      ],
      "stateMutability": "view",
      "type": "function"
    },
    {
      "inputs": [
        {
          "internalType": "address",
          "name": "",
          "type": "address"
        }
      ],
      "name": "ongoingDistributions",
      "outputs": [
        {
          "internalType": "bytes32",
          "name": "",
          "type": "bytes32"
        }
      ],
      "stateMutability": "view",
      "type": "function"
    },
    {
      "inputs": [
        {
          "internalType": "contract DaoRegistry",
          "name": "dao",
          "type": "address"
        },
        {
          "internalType": "bytes32",
          "name": "proposalId",
          "type": "bytes32"
        }
      ],
      "name": "processProposal",
      "outputs": [
        {
          "internalType": "bool",
          "name": "",
          "type": "bool"
        }
      ],
      "stateMutability": "nonpayable",
      "type": "function"
    },
    {
      "inputs": [
        {
          "internalType": "address",
          "name": "",
          "type": "address"
        },
        {
          "internalType": "bytes32",
          "name": "",
          "type": "bytes32"
        },
        {
          "internalType": "address",
          "name": "",
          "type": "address"
        }
      ],
      "name": "projectTeamLockedTokens",
      "outputs": [
        {
          "internalType": "uint256",
          "name": "",
          "type": "uint256"
        }
      ],
      "stateMutability": "view",
      "type": "function"
    },
    {
      "inputs": [],
      "name": "proposalIds",
      "outputs": [
        {
          "internalType": "uint256",
          "name": "",
          "type": "uint256"
        }
      ],
      "stateMutability": "view",
      "type": "function"
    },
    {
      "inputs": [],
      "name": "proposalQueue",
      "outputs": [
        {
          "internalType": "int128",
          "name": "_begin",
          "type": "int128"
        },
        {
          "internalType": "int128",
          "name": "_end",
          "type": "int128"
        }
      ],
      "stateMutability": "view",
      "type": "function"
    },
    {
      "inputs": [
        {
          "internalType": "bytes32",
          "name": "",
          "type": "bytes32"
        }
      ],
      "name": "proposalVoteTypes",
      "outputs": [
        {
          "internalType": "enum DaoHelper.VoteType",
          "name": "",
          "type": "uint8"
        }
      ],
      "stateMutability": "view",
      "type": "function"
    },
    {
      "inputs": [
        {
          "internalType": "contract DaoRegistry",
          "name": "dao",
          "type": "address"
        },
        {
          "internalType": "bytes32",
          "name": "proposalId",
          "type": "bytes32"
        }
      ],
      "name": "startVotingProcess",
      "outputs": [
        {
          "internalType": "bool",
          "name": "",
          "type": "bool"
        }
      ],
      "stateMutability": "nonpayable",
      "type": "function"
    },
    {
      "inputs": [
        {
          "internalType": "contract DaoRegistry",
          "name": "dao",
          "type": "address"
        },
        {
          "internalType": "address[]",
          "name": "_addressArgs",
          "type": "address[]"
        },
        {
          "internalType": "uint256[]",
          "name": "_uint256ArgsProposal",
          "type": "uint256[]"
        }
      ],
      "name": "submitProposal",
      "outputs": [
        {
          "internalType": "bytes32",
          "name": "proposalId",
          "type": "bytes32"
        }
      ],
      "stateMutability": "nonpayable",
      "type": "function"
    },
    {
      "inputs": [
        {
          "internalType": "contract DaoRegistry",
          "name": "dao",
          "type": "address"
        },
        {
          "internalType": "bytes32",
          "name": "proposalId",
          "type": "bytes32"
        }
      ],
      "name": "unLockProjectTeamToken",
      "outputs": [],
      "stateMutability": "nonpayable",
      "type": "function"
    }
  ],
  "bytecode": "0x60806040526201870360065534801561001757600080fd5b50614d83806100276000396000f3fe608060405234801561001057600080fd5b50600436106100ea5760003560e01c80639573167d1161008c578063d5bef02e11610066578063d5bef02e146102d7578063e256888f14610308578063f8d90d5d14610317578063fde92fcf1461032a57600080fd5b80639573167d1461027e578063a02f046b14610291578063a5254bc0146102c457600080fd5b80633d5af2ed116100c85780633d5af2ed146101755780634e83cbce1461017e5780638ecf772014610256578063944fe5211461026957600080fd5b80630fcb03d6146100ef5780632531ec70146101225780632b73de3514610152575b600080fd5b61010f6100fd36600461469e565b60026020526000908152604090205481565b6040519081526020015b60405180910390f35b61014561013036600461478e565b60036020526000908152604090205460ff1681565b6040516101199190614b9c565b61016561016036600461485e565b61033d565b6040519015158152602001610119565b61010f60065481565b61023e61018c3660046146dd565b600060208181529281526040808220845291815281902080546001820154600283015460038401546004850154600586015460068701546007880154600889015460098a01548b5160a081018d52600a8c01548152600b8c01549d81019d909d52600c8b01549b8d019b909b52600d8a015460608d0152600e9099015460808c01526001600160a01b039788169a96999598948816979384169693831695600160a01b90930460ff169491939092908c565b6040516101199c9b9a99989796959493929190614a2c565b6101656102643660046147a6565b610e02565b61027c610277366004614870565b610e88565b005b61016561028c36600461485e565b610f51565b6004546102aa90600f81810b91600160801b9004900b82565b60408051600f93840b81529190920b602082015201610119565b6101656102d23660046147a6565b6118e7565b61010f6102e5366004614708565b600160209081526000938452604080852082529284528284209052825290205481565b61010f670de0b6b3a764000081565b61027c61032536600461485e565b611a1f565b61010f6103383660046147de565b611e42565b600082600061034b82612ae0565b9050846103588133612d6c565b6000610377600454600f81810b810b600160801b909204810b900b0390565b116103855760009350610def565b61038f6004612dbb565b85146104015760405162461bcd60e51b815260206004820152603660248201527f4469737472696275746546756e643a3a7374617274566f74696e6750726f63656044820152751cdcce8e925b9d985b1a5908141c9bdc1bdcd85b125960521b60648201526084015b60405180910390fd5b6040805160a0810182526000808252602080830182905282840182905260608301829052608083018290526001600160a01b038a168252600290529190912054808252156105785760036001600160a01b03881660009081526020818152604080832085518452909152902060050154600160a01b900460ff16600481111561049a57634e487b7160e01b600052602160045260246000fd5b14806104f4575060046001600160a01b03881660009081526020818152604080832085518452909152902060050154600160a01b900460ff1660048111156104f257634e487b7160e01b600052602160045260246000fd5b145b6105785760405162461bcd60e51b815260206004820152604960248201527f4469737472696275746546756e643a3a7374617274566f74696e6750726f636560448201527f73733a3a7468657265206973206f746865722070726f706f73616c206e6f7420606482015268199a5b985b1a5e995960ba1b608482015260a4016103f8565b604051632c9f4b5b60e11b8152600080516020614cee83398151915260048201526001600160a01b0388169063593e96b69060240160206040518083038186803b1580156105c557600080fd5b505afa1580156105d9573d6000803e3d6000fd5b505050506040513d601f19601f820116820180604052508101906105fd91906146c1565b6001600160a01b0390811660208301526040516317ba7d8560e01b8152600080516020614d0e8339815191526004820152908816906317ba7d859060240160206040518083038186803b15801561065357600080fd5b505afa158015610667573d6000803e3d6000fd5b505050506040513d601f19601f8201168201806040525081019061068b91906146c1565b6001600160a01b0390811660408381019190915242606084015251634941d71d60e11b81527f9876c0f0505bfb2b1c38d3bbd25ba13159172cd0868972d76927723f5a9480fc600482015290881690639283ae3a9060240160206040518083038186803b1580156106fb57600080fd5b505afa15801561070f573d6000803e3d6000fd5b505050506040513d601f19601f820116820180604052508101906107339190614949565b81606001516107429190614bb6565b60808201526040808201519051634941d71d60e11b81527f02a3530cbb6e7c084516c86f68bd62c3e3fcd783c6c5d7e138616207f7a3225060048201526001600160a01b0391821691633a844ec0918a91821690639283ae3a9060240160206040518083038186803b1580156107b757600080fd5b505afa1580156107cb573d6000803e3d6000fd5b505050506040513d601f19601f820116820180604052508101906107ef9190614949565b84608001516107fe9190614bb6565b6040516001600160e01b031960e085901b1681526001600160a01b039092166004830152602482015260440160206040518083038186803b15801561084257600080fd5b505afa158015610856573d6000803e3d6000fd5b505050506040513d601f19601f8201168201806040525081019061087a9190614749565b156108ed5760405162461bcd60e51b815260206004820152603a60248201527f46756e64526169736550726f706f73616c3a3a7374617274566f74696e67507260448201527f6f636573733a3a63616e7420737461727420766f7465206e6f7700000000000060648201526084016103f8565b6001600160a01b0387166000908152602081815260408083208984529091528120906005820154600160a01b900460ff16600481111561093d57634e487b7160e01b600052602160045260246000fd5b1461094d57600095505050610def565b6109576004612e19565b50606482604001516001600160a01b031663b0e21e8a6040518163ffffffff1660e01b815260040160206040518083038186803b15801561099757600080fd5b505afa1580156109ab573d6000803e3d6000fd5b505050506040513d601f19601f820116820180604052508101906109cf9190614949565b82600201546109de9190614be2565b6109e89190614bce565b604051634941d71d60e11b8152600080516020614cce83398151915260048201526064906001600160a01b038b1690639283ae3a9060240160206040518083038186803b158015610a3857600080fd5b505afa158015610a4c573d6000803e3d6000fd5b505050506040513d601f19601f82011682018060405250810190610a709190614949565b8360020154610a7f9190614be2565b610a899190614bce565b8260020154610a989190614bb6565b610aa29190614bb6565b82602001516001600160a01b03166318160ddd6040518163ffffffff1660e01b815260040160206040518083038186803b158015610adf57600080fd5b505afa158015610af3573d6000803e3d6000fd5b505050506040513d601f19601f82011682018060405250810190610b179190614949565b1015610b7f5760058101805460ff60a01b1916600160a21b1790556040517fc343168324d1f223722f02102b37ad896113946b31a19e28cc85fe567698168590610b6c908a908a9060009081906004906149f0565b60405180910390a1600095505050610def565b600481015481546001830154600092610ba9928c926001600160a01b039283169290911690612ea5565b905080610c135760058201805460ff60a01b1916600160a21b1790556040517fc343168324d1f223722f02102b37ad896113946b31a19e28cc85fe567698168590610bff908b908b9060009081906004906149f0565b60405180910390a160009650505050610def565b6001808301546001600160a01b03808c166000818152602094855260408082208e835286528082206004808a015490951683529095528481209390935592516317ba7d8560e01b81529192916317ba7d8591610c95917f0272405e7a7e2834b06b48bd0de471bbb4d8400020ec22f05b6fc30ffddb34a8910190815260200190565b60206040518083038186803b158015610cad57600080fd5b505afa158015610cc1573d6000803e3d6000fd5b505050506040513d601f19601f82011682018060405250810190610ce591906146c1565b606085015160078501819055608086015160088601556040805160208101825260008152905163026078cd60e41b81529293506001600160a01b038416926326078cd092610d3b928f928f929190600401614b6f565b600060405180830381600087803b158015610d5557600080fd5b505af1158015610d69573d6000803e3d6000fd5b505050506001600160a01b038a16600090815260026020526040908190208a905560058401805460ff60a01b1916600160a01b1790556060850151608086015191517fc343168324d1f223722f02102b37ad896113946b31a19e28cc85fe567698168592610dde928e928e92906001906149f0565b60405180910390a160019750505050505b50610dfa82826132b4565b505092915050565b60405163288c314960e21b81526001600160a01b0382811660048301526000919084169063a230c5249060240160206040518083038186803b158015610e4757600080fd5b505afa158015610e5b573d6000803e3d6000fd5b505050506040513d601f19601f82011682018060405250810190610e7f9190614749565b90505b92915050565b6040516368c18beb60e01b815233600482015284906001600160a01b038216906368c18beb9060240160206040518083038186803b158015610ec957600080fd5b505afa158015610edd573d6000803e3d6000fd5b505050506040513d601f19601f82011682018060405250810190610f019190614749565b80610f105750610f10816132bf565b610f4a5760405162461bcd60e51b815260206004820152600b60248201526a37b7363ca0b230b83a32b960a91b60448201526064016103f8565b5050505050565b6000826000610f5f82612ae0565b9050610fa960408051610100810182526000808252602082018190529181018290529060608201908152600060208201819052604082018190526060820181905260809091015290565b6001600160a01b0386166000908152600260205260409020548082521561102357805185146110235760405162461bcd60e51b81526020600482015260326024820152600080516020614d2e8339815191526044820152710e9a5b9d985b1a59081c1c9c1bdcd85b125960721b60648201526084016103f8565b6001600160a01b0386166000908152602081815260408083208884529091529020600881015442116110ab5760405162461bcd60e51b815260206004820152603a6024820152600080516020614d2e83398151915260448201527f3a70726f706f73616c20696e20766f74696e6720706572696f6400000000000060648201526084016103f8565b60026005820154600160a01b900460ff1660048111156110db57634e487b7160e01b600052602160045260246000fd5b141561114b5760405162461bcd60e51b81526020600482015260456024820152600080516020614d2e83398151915260448201527f3a70726f706f73616c20616c726561647920696e20657865637574652070726f606482015264677265737360d81b608482015260a4016103f8565b6040516330490e9160e01b8152600481018790526001600160a01b038816906330490e9190602401600060405180830381600087803b15801561118d57600080fd5b505af11580156111a1573d6000803e3d6000fd5b5050604051632c9f4b5b60e11b8152600080516020614cee83398151915260048201526001600160a01b038a16925063593e96b6915060240160206040518083038186803b1580156111f257600080fd5b505afa158015611206573d6000803e3d6000fd5b505050506040513d601f19601f8201168201806040525081019061122a91906146c1565b6001600160a01b039081166040848101919091525163206f381f60e11b815260048101889052908816906340de703e9060240160206040518083038186803b15801561127557600080fd5b505afa158015611289573d6000803e3d6000fd5b505050506040513d601f19601f820116820180604052508101906112ad91906146c1565b6001600160a01b0316602083018190526113125760405162461bcd60e51b81526020600482015260326024820152600080516020614d2e8339815191526044820152710e9859185c1d195c881b9bdd08199bdd5b9960721b60648201526084016103f8565b6020820151604051633e599bfb60e11b81526001600160a01b03898116600483015290911690637cb337f69060240160206040518083038186803b15801561135957600080fd5b505afa15801561136d573d6000803e3d6000fd5b505050506040513d601f19601f82011682018060405250810190611391919061492f565b6001600160801b031660c083015260208201516040516376225e7360e01b81526001600160a01b03898116600483015260248201899052909116906376225e739060440160606040518083038186803b1580156113ed57600080fd5b505afa158015611401573d6000803e3d6000fd5b505050506040513d601f19601f8201168201806040525081019061142591906148e8565b6001600160801b0380821660a0870152821660808601526060850183600581111561146057634e487b7160e01b600052602160045260246000fd5b600581111561147f57634e487b7160e01b600052602160045260246000fd5b9052506002915061148d9050565b826060015160058111156114b157634e487b7160e01b600052602160045260246000fd5b141561172f5760058101805460ff60a01b1916600160a11b1790556001600160a01b03878116600090815260026020908152604091829020899055848201518251632a1ebd9b60e21b8152925193169263a87af66c926004808201939291829003018186803b15801561152357600080fd5b505afa158015611537573d6000803e3d6000fd5b505050506040513d601f19601f8201168201806040525081019061155b91906146c1565b6001600160a01b0390811660e0840152604051634941d71d60e11b8152600080516020614cce8339815191526004820152606491891690639283ae3a9060240160206040518083038186803b1580156115b357600080fd5b505afa1580156115c7573d6000803e3d6000fd5b505050506040513d601f19601f820116820180604052508101906115eb9190614949565b82600201546115fa9190614be2565b6116049190614bce565b81600201546116139190614bb6565b82604001516001600160a01b03166318160ddd6040518163ffffffff1660e01b815260040160206040518083038186803b15801561165057600080fd5b505afa158015611664573d6000803e3d6000fd5b505050506040513d601f19601f820116820180604052508101906116889190614949565b10156116b0576005810180546004919060ff60a01b1916600160a01b835b02179055506117e4565b6116ba87876134c6565b6116c48787613658565b6116ce87876138d4565b6116d88787613bff565b6116e28787613d30565b6001600160a01b0380881660009081526001602090815260408083208a84528252808320600380870154909516845290915281205560058201805460ff60a01b1916600160a01b836116a6565b60038260600151600581111561175557634e487b7160e01b600052602160045260246000fd5b1480611784575060018260600151600581111561178257634e487b7160e01b600052602160045260246000fd5b145b156117a5576005810180546004919060ff60a01b1916600160a01b836116a6565b60405162461bcd60e51b81526020600482015260146024820152731d9bdd1a5b99c81b9bdd08199a5b985b1a5e995960621b60448201526064016103f8565b4260098201556001600160a01b03871660009081526002602052604081205560608201517fddb1dd4e5c8ba677b651e4d9b4d8de02a986750e1cd94db4fa17fd4997c58e2e9088908890600581111561184d57634e487b7160e01b600052602160045260246000fd5b60c0860151608087015160a08801516005880154600160a01b900460ff16600481111561188a57634e487b7160e01b600052602160045260246000fd5b604080516001600160a01b0390981688526020880196909652948601939093526001600160801b039182166060860152811660808501521660a083015260c082015260e00160405180910390a1600194505050610dfa82826132b4565b60405163fefbd87560e01b81527f67e84d3ef18b24e32f9a9b2e9bac9e7ea8cde2f146ce512d44b9d6718a1f3ca0600482015260009081906001600160a01b0385169063fefbd8759060240160206040518083038186803b15801561194b57600080fd5b505afa15801561195f573d6000803e3d6000fd5b505050506040513d601f19601f8201168201806040525081019061198391906146c1565b90506001600160a01b03811615611a15576040516319a73c8360e31b81526001600160a01b03848116600483015282169063cd39e4189060240160206040518083038186803b1580156119d557600080fd5b505afa1580156119e9573d6000803e3d6000fd5b505050506040513d601f19601f82011682018060405250810190611a0d9190614749565b915050610e82565b5060009392505050565b816000611a2b82612ae0565b6001600160a01b0385166000908152600160209081526040808320878452825280832033845290915290205490915080611acd5760405162461bcd60e51b815260206004820152603960248201527f4469737472696275746546756e643a3a756e4c6f636b50726f6a65637454656160448201527f6d546f6b656e3a3a6e6f2066756e6420746f20756e6c6f636b0000000000000060648201526084016103f8565b6001600160a01b0385811660009081526020818152604080832088845290915290819020805491516370a0823160e01b815230600482015290929190911690839082906370a082319060240160206040518083038186803b158015611b3157600080fd5b505afa158015611b45573d6000803e3d6000fd5b505050506040513d601f19601f82011682018060405250810190611b699190614949565b1015611bdd5760405162461bcd60e51b815260206004820152603960248201527f4469737472696275746546756e643a3a756e4c6f636b50726f6a65637454656160448201527f6d546f6b656e3a3a496e73756666696369656e742046756e640000000000000060648201526084016103f8565b60405163206f381f60e11b8152600481018790526000906001600160a01b038916906340de703e9060240160206040518083038186803b158015611c2057600080fd5b505afa158015611c34573d6000803e3d6000fd5b505050506040513d601f19601f82011682018060405250810190611c5891906146c1565b6040516376225e7360e01b81526001600160a01b038a81166004830152602482018a90529192506000918316906376225e7390604401606060405180830381600087803b158015611ca857600080fd5b505af1158015611cbc573d6000803e3d6000fd5b505050506040513d601f19601f82011682018060405250810190611ce091906148e8565b50909150600490506005850154600160a01b900460ff166004811115611d1657634e487b7160e01b600052602160045260246000fd5b14611d815760405162461bcd60e51b815260206004820152603560248201527f4469737472696275746546756e643a3a756e4c6f636b50726f6a6563745465616044820152741b551bdad95b8e8e9b9bdd081cd85d1a5cd99a5959605a1b60648201526084016103f8565b6001600160a01b0389811660009081526001602090815260408083208c8452825280832033808552925280832092909255905163a9059cbb60e01b81526004810191909152602481018790529084169063a9059cbb90604401602060405180830381600087803b158015611df457600080fd5b505af1158015611e08573d6000803e3d6000fd5b505050506040513d601f19601f82011682018060405250810190611e2c9190614749565b505050505050611e3c82826132b4565b50505050565b600085611e4f8133612d6c565b866000611e5b82612ae0565b9050611f056040518061022001604052806000801916815260200160006001600160a01b0316815260200160006001600160a01b0316815260200160006001600160a01b03168152602001600080191681526020016000815260200160008152602001600081526020016000815260200160008152602001600081526020016000815260200160008152602001600081526020016000815260200160008152602001600081525090565b6040516317ba7d8560e01b8152600080516020614d0e83398151915260048201526001600160a01b038b16906317ba7d859060240160206040518083038186803b158015611f5257600080fd5b505afa158015611f66573d6000803e3d6000fd5b505050506040513d601f19601f82011682018060405250810190611f8a91906146c1565b6001600160a01b03908116604083810182905251634b304e2160e11b8152918c166004830152906396609c4290602401602060405180830381600087803b158015611fd457600080fd5b505af1158015611fe8573d6000803e3d6000fd5b505050506040513d601f19601f8201168201806040525081019061200c9190614749565b5060408181015190516301ee1a2b60e41b81526001600160a01b038c811660048301526002921690631ee1a2b09060240160206040518083038186803b15801561205557600080fd5b505afa158015612069573d6000803e3d6000fd5b505050506040513d601f19601f8201168201806040525081019061208d91906148c9565b60038111156120ac57634e487b7160e01b600052602160045260246000fd5b148015612136575060408082015190516320ec26d960e01b81526001600160a01b038c81166004830152909116906320ec26d99060240160206040518083038186803b1580156120fb57600080fd5b505afa15801561210f573d6000803e3d6000fd5b505050506040513d601f19601f820116820180604052508101906121339190614949565b42115b80156121bf575060408082015190516314195fd760e11b81526001600160a01b038c8116600483015290911690632832bfae9060240160206040518083038186803b15801561218457600080fd5b505afa158015612198573d6000803e3d6000fd5b505050506040513d601f19601f820116820180604052508101906121bc9190614949565b42105b61223f5760405162461bcd60e51b815260206004820152604560248201527f46756e64696e673a3a7375626d697450726f706f73616c3a3a6f6e6c7920636160448201527f6e207375626d69742070726f706f73616c20696e20696e76657374696e672070606482015264195c9a5bd960da1b608482015260a4016103f8565b60038814801561224f5750600786145b6122b55760405162461bcd60e51b815260206004820152603160248201527f46756e64696e673a3a7375626d697450726f706f73616c3a3a696e76616c6964604482015270081c185c985b595d195c88185b5bdd5b9d607a1b60648201526084016103f8565b6040516317ba7d8560e01b81527f0272405e7a7e2834b06b48bd0de471bbb4d8400020ec22f05b6fc30ffddb34a860048201526001600160a01b038b16906317ba7d859060240160206040518083038186803b15801561231457600080fd5b505afa158015612328573d6000803e3d6000fd5b505050506040513d601f19601f8201168201806040525081019061234c91906146c1565b6001600160a01b031660208083018290526040805191820181526000825251630966917d60e41b815263966917d09161238d918e9130913390600401614b31565b602060405180830381600087803b1580156123a757600080fd5b505af11580156123bb573d6000803e3d6000fd5b505050506040513d601f19601f820116820180604052508101906123df91906146c1565b6001600160a01b03166060820152868660008161240c57634e487b7160e01b600052603260045260246000fd5b60200291909101356101e0830152508686600181811061243c57634e487b7160e01b600052603260045260246000fd5b6020029190910135610200830152508686600281811061246c57634e487b7160e01b600052603260045260246000fd5b6020029190910135610140830152508686600381811061249c57634e487b7160e01b600052603260045260246000fd5b602002919091013561016083015250868660048181106124cc57634e487b7160e01b600052603260045260246000fd5b602002919091013561018083015250868660058181106124fc57634e487b7160e01b600052603260045260246000fd5b60200291909101356101a0830152508686600681811061252c57634e487b7160e01b600052603260045260246000fd5b60200291909101356101c0830152506101408101511580159061255457506000816101600151115b801561256557506000816101800151115b801561257657506000816101a00151115b61260e5760405162461bcd60e51b815260206004820152605a60248201527f46756e64696e673a3a7375626d697450726f706f73616c3a3a76657374696e6760448201527f2073746172742074696d652c20636c696666206475726174696f6e2c2073746560648201527f70206475726174696f6e2c207374657073206d757374203e2030000000000000608482015260a4016103f8565b806102000151816101c0015111156126395760405163349db54560e21b815260040160405180910390fd5b6000816101e0015111801561265357506000816102000151115b6126dc5760405162461bcd60e51b815260206004820152604e60248201527f46756e64696e673a3a7375626d697450726f706f73616c3a3a696e76616c696460448201527f2074726164696e672d4f666620546f6b656e206f722074726164696e67206f6660648201526d19881d1bdad95b88105b5bdd5b9d60921b608482015260a4016103f8565b6000898982816126fc57634e487b7160e01b600052603260045260246000fd5b9050602002016020810190612711919061469e565b6001600160a01b031614156127825760405162461bcd60e51b815260206004820152603160248201527f46756e64696e673a3a7375626d697450726f706f73616c3a3a696e76616c6964604482015270207265636569766572206164647265737360781b60648201526084016103f8565b6127b461279060065461407a565b6040516020016127a091906149a1565b604051602081830303815290604052614194565b6080820181905260405163b73dc38960e01b815260048101919091526001600160a01b038b169063b73dc38990602401600060405180830381600087803b1580156127fe57600080fd5b505af1158015612812573d6000803e3d6000fd5b50505050600060405180608001604052808b8b600081811061284457634e487b7160e01b600052603260045260246000fd5b9050602002016020810190612859919061469e565b6001600160a01b031681526020018b8b600181811061288857634e487b7160e01b600052603260045260246000fd5b905060200201602081019061289d919061469e565b6001600160a01b031681526020018b8b60028181106128cc57634e487b7160e01b600052603260045260246000fd5b90506020020160208101906128e1919061469e565b6001600160a01b03168152336020909101526080830151909150612909908c90838b8b6141b0565b4260a08301526001600160a01b038b1660008181526020818152604080832060808701805185528184528285206007015460e08901528585528484528051855281845282852060080154610100890152858552848452805185529083529281902060090154610120870152915160608601519186015192516344b574dd60e11b815263896ae9ba936129b893916004019283526001600160a01b03918216602084015216604082015260600190565b600060405180830381600087803b1580156129d257600080fd5b505af11580156129e6573d6000803e3d6000fd5b50505050608082015160048054600160801b90819004600f90810b80820b820b60009081526005602052604090209490945582546001600160801b03908116600190950190910b16029190911790556001600160a01b038b16600090815260208181526040808320608086015184529091528120600501805460ff60a01b191690556006805460019290612a7b908490614bb6565b90915550506080820151604080516001600160a01b038e16815260208101929092527ffe22c13d0cc04eef2a813c30901da5f8cd64f5ba91866fccce71c606ce464874910160405180910390a15050612ad482826132b4565b50505095945050505050565b6040805160808101825260008082526020820181905291810182905260608101919091525a81600001818152505043826001600160a01b031663b21634826040518163ffffffff1660e01b815260040160206040518083038186803b158015612b4857600080fd5b505afa158015612b5c573d6000803e3d6000fd5b505050506040513d601f19601f82011682018060405250810190612b809190614949565b1415612bc15760405162461bcd60e51b815260206004820152601060248201526f1c99595b9d1c985b98de4819dd585c9960821b60448201526064016103f8565b816001600160a01b03166310fdb0a26040518163ffffffff1660e01b8152600401600060405180830381600087803b158015612bfc57600080fd5b505af1158015612c10573d6000803e3d6000fd5b50506040516372c6838f60e01b81527f1f2fd42ad6a6cacd573c4b212beb7a4e2499ad45d742a65337097f130e71daff6004820152600092506001600160a01b03851691506372c6838f9060240160206040518083038186803b158015612c7657600080fd5b505afa158015612c8a573d6000803e3d6000fd5b505050506040513d601f19601f82011682018060405250810190612cae91906146c1565b90506001600160a01b038116612cca5760006020830152612d66565b6001600160a01b038181166060840181905283516040516343a8a3f160e01b8152928616600484015260248301526000918291906343a8a3f190604401604080518083038186803b158015612d1e57600080fd5b505afa158015612d32573d6000803e3d6000fd5b505050506040513d601f19601f82011682018060405250810190612d569190614763565b9015156020860152604085015250505b50919050565b612d7682826118e7565b612db75760405162461bcd60e51b815260206004820152601260248201527137b7363ca3b2b732b930b62830b93a3732b960711b60448201526064016103f8565b5050565b6000612dda8254600f81810b810b600160801b909204810b900b131590565b15612df857604051631ed9509560e11b815260040160405180910390fd5b508054600f90810b810b900b60009081526001909101602052604090205490565b6000612e388254600f81810b810b600160801b909204810b900b131590565b15612e5657604051631ed9509560e11b815260040160405180910390fd5b508054600f90810b80820b820b600090815260018085016020526040822080549290558454920190920b6001600160801b03166fffffffffffffffffffffffffffffffff199091161790915590565b6040516370a0823160e01b81526001600160a01b03848116600483015260009184918491908316906370a082319060240160206040518083038186803b158015612eee57600080fd5b505afa158015612f02573d6000803e3d6000fd5b505050506040513d601f19601f82011682018060405250810190612f269190614949565b1080612fb15750604051636eb1769f60e11b81526001600160a01b03868116600483015230602483015284919083169063dd62ed3e9060440160206040518083038186803b158015612f7757600080fd5b505afa158015612f8b573d6000803e3d6000fd5b505050506040513d601f19601f82011682018060405250810190612faf9190614949565b105b15612fc05760009150506132ac565b6000816001600160a01b031663dd62ed3e30896001600160a01b03166317ba7d857f71c8887ab5df33af0f26db43a2e569d7268b592b16c505d22229eabd80eb8f366040518263ffffffff1660e01b815260040161302091815260200190565b60206040518083038186803b15801561303857600080fd5b505afa15801561304c573d6000803e3d6000fd5b505050506040513d601f19601f8201168201806040525081019061307091906146c1565b6040516001600160e01b031960e085901b1681526001600160a01b0392831660048201529116602482015260440160206040518083038186803b1580156130b657600080fd5b505afa1580156130ca573d6000803e3d6000fd5b505050506040513d601f19601f820116820180604052508101906130ee9190614949565b905060006130fc8583614bb6565b6040516317ba7d8560e01b81527f71c8887ab5df33af0f26db43a2e569d7268b592b16c505d22229eabd80eb8f3660048201529091506001600160a01b038085169163095ea7b3918b16906317ba7d859060240160206040518083038186803b15801561316857600080fd5b505afa15801561317c573d6000803e3d6000fd5b505050506040513d601f19601f820116820180604052508101906131a091906146c1565b6040516001600160e01b031960e084901b1681526001600160a01b03909116600482015260248101849052604401602060405180830381600087803b1580156131e857600080fd5b505af11580156131fc573d6000803e3d6000fd5b505050506040513d601f19601f820116820180604052508101906132209190614749565b506040516323b872dd60e01b81526001600160a01b038416906323b872dd90613251908a9030908a906004016149cc565b602060405180830381600087803b15801561326b57600080fd5b505af115801561327f573d6000803e3d6000fd5b505050506040513d601f19601f820116820180604052508101906132a39190614749565b50600193505050505b949350505050565b612db7828233614532565b600080826001600160a01b031663c19d93fb6040518163ffffffff1660e01b815260040160206040518083038186803b1580156132fb57600080fd5b505afa15801561330f573d6000803e3d6000fd5b505050506040513d601f19601f8201168201806040525081019061333391906148aa565b600181111561335257634e487b7160e01b600052602160045260246000fd5b148015610e825750816001600160a01b031663c67143666040518163ffffffff1660e01b815260040160206040518083038186803b15801561339357600080fd5b505afa1580156133a7573d6000803e3d6000fd5b505050506040513d601f19601f820116820180604052508101906133cb9190614949565b1580613449575060405163288c314960e21b81523360048201526001600160a01b0383169063a230c5249060240160206040518083038186803b15801561341157600080fd5b505afa158015613425573d6000803e3d6000fd5b505050506040513d601f19601f820116820180604052508101906134499190614749565b80610e8257506040516368c18beb60e01b81523360048201526001600160a01b038316906368c18beb9060240160206040518083038186803b15801561348e57600080fd5b505afa1580156134a2573d6000803e3d6000fd5b505050506040513d601f19601f82011682018060405250810190610e829190614749565b604051632c9f4b5b60e11b8152600080516020614cee83398151915260048201526000906001600160a01b0384169063593e96b69060240160206040518083038186803b15801561351657600080fd5b505afa15801561352a573d6000803e3d6000fd5b505050506040513d601f19601f8201168201806040525081019061354e91906146c1565b90506000816001600160a01b031663a87af66c6040518163ffffffff1660e01b815260040160206040518083038186803b15801561358b57600080fd5b505afa15801561359f573d6000803e3d6000fd5b505050506040513d601f19601f820116820180604052508101906135c391906146c1565b6001600160a01b03808616600090815260208181526040808320888452909152908190206003810154600282015492516370bb59af60e11b815294955090938684169363e176b35e9361361f93909116918791906004016149cc565b600060405180830381600087803b15801561363957600080fd5b505af115801561364d573d6000803e3d6000fd5b505050505050505050565b604051632c9f4b5b60e11b8152600080516020614cee83398151915260048201526000906001600160a01b0384169063593e96b69060240160206040518083038186803b1580156136a857600080fd5b505afa1580156136bc573d6000803e3d6000fd5b505050506040513d601f19601f820116820180604052508101906136e091906146c1565b90506000816001600160a01b031663a87af66c6040518163ffffffff1660e01b815260040160206040518083038186803b15801561371d57600080fd5b505afa158015613731573d6000803e3d6000fd5b505050506040513d601f19601f8201168201806040525081019061375591906146c1565b6001600160a01b0385811660008181526020818152604080832089845290915290819020905163fd310d2960e01b81527f5460409b9aa4688f80c10b29c3d7ad16025f050f472a6882a45fa7bb9bd12fb16004820152939450929185169163e176b35e919063fd310d299060240160206040518083038186803b1580156137db57600080fd5b505afa1580156137ef573d6000803e3d6000fd5b505050506040513d601f19601f8201168201806040525081019061381391906146c1565b604051634941d71d60e11b8152600080516020614cce833981519152600482015285906064906001600160a01b038b1690639283ae3a9060240160206040518083038186803b15801561386557600080fd5b505afa158015613879573d6000803e3d6000fd5b505050506040513d601f19601f8201168201806040525081019061389d9190614949565b86600201546138ac9190614be2565b6138b69190614bce565b6040518463ffffffff1660e01b815260040161361f939291906149cc565b604051632c9f4b5b60e11b8152600080516020614cee83398151915260048201526000906001600160a01b0384169063593e96b69060240160206040518083038186803b15801561392457600080fd5b505afa158015613938573d6000803e3d6000fd5b505050506040513d601f19601f8201168201806040525081019061395c91906146c1565b6040516317ba7d8560e01b8152600080516020614d0e83398151915260048201529091506000906001600160a01b038516906317ba7d859060240160206040518083038186803b1580156139af57600080fd5b505afa1580156139c3573d6000803e3d6000fd5b505050506040513d601f19601f820116820180604052508101906139e791906146c1565b90506000826001600160a01b031663a87af66c6040518163ffffffff1660e01b815260040160206040518083038186803b158015613a2457600080fd5b505afa158015613a38573d6000803e3d6000fd5b505050506040513d601f19601f82011682018060405250810190613a5c91906146c1565b6001600160a01b038681166000818152602081815260408083208a845290915290819020905163fd310d2960e01b81527fbd9030ecd29faab6f374cbd88517a06a1d8052793336c1cd8bf17421220730966004820152939450929186169163e176b35e919063fd310d299060240160206040518083038186803b158015613ae257600080fd5b505afa158015613af6573d6000803e3d6000fd5b505050506040513d601f19601f82011682018060405250810190613b1a91906146c1565b846064876001600160a01b031663b0e21e8a6040518163ffffffff1660e01b815260040160206040518083038186803b158015613b5657600080fd5b505afa158015613b6a573d6000803e3d6000fd5b505050506040513d601f19601f82011682018060405250810190613b8e9190614949565b8660020154613b9d9190614be2565b613ba79190614bce565b6040518463ffffffff1660e01b8152600401613bc5939291906149cc565b600060405180830381600087803b158015613bdf57600080fd5b505af1158015613bf3573d6000803e3d6000fd5b50505050505050505050565b6040516317ba7d8560e01b81527f71c8887ab5df33af0f26db43a2e569d7268b592b16c505d22229eabd80eb8f3660048201526000906001600160a01b038416906317ba7d859060240160206040518083038186803b158015613c6157600080fd5b505afa158015613c75573d6000803e3d6000fd5b505050506040513d601f19601f82011682018060405250810190613c9991906146c1565b6001600160a01b03808516600090815260208181526040808320878452825291829020825160a08101845260018201548152600a82015492810192909252600b81015482840152600c8101546060830152600d8101546080830152805460058201549351632eae6d9960e11b81529596509094919380871693635d5cdb329361361f938b939081169216908a908890600401614acf565b604051632c9f4b5b60e11b8152600080516020614cee83398151915260048201526000906001600160a01b0384169063593e96b69060240160206040518083038186803b158015613d8057600080fd5b505afa158015613d94573d6000803e3d6000fd5b505050506040513d601f19601f82011682018060405250810190613db891906146c1565b6040516317ba7d8560e01b8152600080516020614d0e83398151915260048201529091506000906001600160a01b038516906317ba7d859060240160206040518083038186803b158015613e0b57600080fd5b505afa158015613e1f573d6000803e3d6000fd5b505050506040513d601f19601f82011682018060405250810190613e4391906146c1565b90506000826001600160a01b031663a87af66c6040518163ffffffff1660e01b815260040160206040518083038186803b158015613e8057600080fd5b505afa158015613e94573d6000803e3d6000fd5b505050506040513d601f19601f82011682018060405250810190613eb891906146c1565b90506000806000876001600160a01b03166001600160a01b0316815260200190815260200160002060008681526020019081526020016000209050836001600160a01b031663c3c7645c836064866001600160a01b031663b0e21e8a6040518163ffffffff1660e01b815260040160206040518083038186803b158015613f3e57600080fd5b505afa158015613f52573d6000803e3d6000fd5b505050506040513d601f19601f82011682018060405250810190613f769190614949565b8560020154613f859190614be2565b613f8f9190614bce565b604051634941d71d60e11b8152600080516020614cce83398151915260048201526064906001600160a01b038c1690639283ae3a9060240160206040518083038186803b158015613fdf57600080fd5b505afa158015613ff3573d6000803e3d6000fd5b505050506040513d601f19601f820116820180604052508101906140179190614949565b86600201546140269190614be2565b6140309190614bce565b856002015461403f9190614bb6565b6140499190614bb6565b6040516001600160e01b031960e085901b1681526001600160a01b0390921660048301526024820152604401613bc5565b60608161409e5750506040805180820190915260018152600360fc1b602082015290565b8160005b81156140c857806140b281614c44565b91506140c19050600a83614bce565b91506140a2565b60008167ffffffffffffffff8111156140f157634e487b7160e01b600052604160045260246000fd5b6040519080825280601f01601f19166020018201604052801561411b576020820181803683370190505b5090505b84156132ac57614130600183614c01565b915061413d600a86614c5f565b614148906030614bb6565b60f81b81838151811061416b57634e487b7160e01b600052603260045260246000fd5b60200101906001600160f81b031916908160001a90535061418d600a86614bce565b945061411f565b60008151600014156141a857506000919050565b506020015190565b6040805161018081019091526020808501516001600160a01b031682528101838360018181106141f057634e487b7160e01b600052603260045260246000fd5b9050602002013581526020018383600081811061421d57634e487b7160e01b600052603260045260246000fd5b9050602002013581526020018460006004811061424a57634e487b7160e01b600052603260045260246000fd5b60200201516001600160a01b031681526020018460026004811061427e57634e487b7160e01b600052603260045260246000fd5b60200201516001600160a01b03168152602001846003600481106142b257634e487b7160e01b600052603260045260246000fd5b60200201516001600160a01b03168152602001600060048111156142e657634e487b7160e01b600052602160045260246000fd5b81526020014281526020016000815260200160008152602001600081526020016040518060a001604052808585600281811061433257634e487b7160e01b600052603260045260246000fd5b9050602002013581526020018585600381811061435f57634e487b7160e01b600052603260045260246000fd5b9050602002013581526020018585600481811061438c57634e487b7160e01b600052603260045260246000fd5b905060200201358152602001858560058181106143b957634e487b7160e01b600052603260045260246000fd5b905060200201358152602001858560068181106143e657634e487b7160e01b600052603260045260246000fd5b60209081029290920135909252919092526001600160a01b03808916600090815280835260408082208a8352845290819020855181549084166001600160a01b031991821617825593860151600182015590850151600282015560608501516003820180549184169185169190911790556080850151600480830180549285169286169290921790915560a0860151600583018054919094169481168517845560c087015192955091936001600160a81b031990921690911790600160a01b9084908111156144c557634e487b7160e01b600052602160045260246000fd5b021790555060e08201516006820155610100820151600782015561012082015160088201556101408201516009820155610160909101518051600a8301556020810151600b8301556040810151600c8301556060810151600d83015560800151600e909101555050505050565b8160200151156145d05781606001516001600160a01b0316635e5eb01384835a865161455e9190614c01565b60408088015190516001600160e01b031960e087901b1681526001600160a01b03948516600482015293909216602484015260448301526064820152608401600060405180830381600087803b1580156145b757600080fd5b505af11580156145cb573d6000803e3d6000fd5b505050505b826001600160a01b031663d4f7af436040518163ffffffff1660e01b8152600401600060405180830381600087803b15801561460b57600080fd5b505af115801561461f573d6000803e3d6000fd5b50505050505050565b60008083601f840112614639578182fd5b50813567ffffffffffffffff811115614650578182fd5b6020830191508360208260051b850101111561466b57600080fd5b9250929050565b8051801515811461468257600080fd5b919050565b80516001600160801b038116811461468257600080fd5b6000602082840312156146af578081fd5b81356146ba81614cb5565b9392505050565b6000602082840312156146d2578081fd5b81516146ba81614cb5565b600080604083850312156146ef578081fd5b82356146fa81614cb5565b946020939093013593505050565b60008060006060848603121561471c578081fd5b833561472781614cb5565b925060208401359150604084013561473e81614cb5565b809150509250925092565b60006020828403121561475a578081fd5b610e7f82614672565b60008060408385031215614775578182fd5b61477e83614672565b9150602083015190509250929050565b60006020828403121561479f578081fd5b5035919050565b600080604083850312156147b8578182fd5b82356147c381614cb5565b915060208301356147d381614cb5565b809150509250929050565b6000806000806000606086880312156147f5578081fd5b853561480081614cb5565b9450602086013567ffffffffffffffff8082111561481c578283fd5b61482889838a01614628565b90965094506040880135915080821115614840578283fd5b5061484d88828901614628565b969995985093965092949392505050565b600080604083850312156146ef578182fd5b60008060008060808587031215614885578384fd5b843561489081614cb5565b966020860135965060408601359560600135945092505050565b6000602082840312156148bb578081fd5b8151600281106146ba578182fd5b6000602082840312156148da578081fd5b8151600481106146ba578182fd5b6000806000606084860312156148fc578081fd5b83516006811061490a578182fd5b925061491860208501614687565b915061492660408501614687565b90509250925092565b600060208284031215614940578081fd5b610e7f82614687565b60006020828403121561495a578081fd5b5051919050565b60008151808452614979816020860160208601614c18565b601f01601f19169290920160200192915050565b6005811061499d5761499d614c9f565b9052565b6205446560ec1b8152600082516149bf816003850160208701614c18565b9190910160030192915050565b6001600160a01b039384168152919092166020820152604081019190915260600190565b6001600160a01b038616815260208101859052604081018490526060810183905260a08101614a22608083018461498d565b9695505050505050565b6001600160a01b038d81168252602082018d9052604082018c90528a811660608301528981166080830152881660a08201526102008101614a7060c083018961498d565b60e08201969096526101008101949094526101208401929092526101408301528051610160830152602081015161018083015260408101516101a083015260608101516101c0830152608001516101e090910152979650505050505050565b6001600160a01b03868116825285811660208084019190915290851660408301526060820184905261012082019060808301908460005b6005811015614b2357815184529282019290820190600101614b06565b505050509695505050505050565b600060018060a01b038087168352808616602084015260806040840152614b5b6080840186614961565b915080841660608401525095945050505050565b60018060a01b0385168152836020820152826040820152608060608201526000614a226080830184614961565b6020810160048310614bb057614bb0614c9f565b91905290565b60008219821115614bc957614bc9614c73565b500190565b600082614bdd57614bdd614c89565b500490565b6000816000190483118215151615614bfc57614bfc614c73565b500290565b600082821015614c1357614c13614c73565b500390565b60005b83811015614c33578181015183820152602001614c1b565b83811115611e3c5750506000910152565b6000600019821415614c5857614c58614c73565b5060010190565b600082614c6e57614c6e614c89565b500690565b634e487b7160e01b600052601160045260246000fd5b634e487b7160e01b600052601260045260246000fd5b634e487b7160e01b600052602160045260246000fd5b6001600160a01b0381168114614cca57600080fd5b5056fe11618fa890234170104debf73b2563b667bd200bac1d7d8dd024e2f3fadaefd2eadd166fac11c69a9d01b14cdd03f0902ebe2a3d90e6e17ced26382b23bfe1c4f26d4834b4a91110d15379eda333e30be707af3a839ee5dbd668b89e4c6c6f6f4469737472696275746546756e643a3a70726f6365737350726f706f73616c3aa264697066735822122073b36adc085eaf2cee2ff0e1160c73ee51ea01eb0a2dce7d3b92df916facc6e364736f6c63430008040033",
  "linkReferences": {},
  "deployedLinkReferences": {}
}