{
  "_format": "hh-sol-artifact-1",
  "contractName": "FlexFundingPoolAdapterContract",
  "sourceName": "contracts/flex/adatpers/FlexFundingPoolAdapter.sol",
  "abi": [
    {
      "inputs": [],
      "name": "ExceedMaxDepositAmount",
      "type": "error"
    },
    {
      "inputs": [],
      "name": "ExceedMaxFundingAmount",
      "type": "error"
    },
    {
      "inputs": [],
      "name": "FundingProposalNotFinalize",
      "type": "error"
    },
    {
      "inputs": [],
      "name": "LessMinDepositAmount",
      "type": "error"
    },
    {
      "inputs": [],
      "name": "MaxParticipantReach",
      "type": "error"
    },
    {
      "inputs": [],
      "name": "NotInFundRaise",
      "type": "error"
    },
    {
      "inputs": [
        {
          "internalType": "contract DaoRegistry",
          "name": "dao",
          "type": "address"
        },
        {
          "internalType": "bytes32",
          "name": "proposalId",
          "type": "bytes32"
        },
        {
          "internalType": "address",
          "name": "account",
          "type": "address"
        }
      ],
      "name": "balanceOf",
      "outputs": [
        {
          "internalType": "uint160",
          "name": "",
          "type": "uint160"
        }
      ],
      "stateMutability": "view",
      "type": "function"
    },
    {
      "inputs": [
        {
          "internalType": "contract DaoRegistry",
          "name": "dao",
          "type": "address"
        },
        {
          "internalType": "string",
          "name": "name",
          "type": "string"
        },
        {
          "internalType": "uint8",
          "name": "varifyType",
          "type": "uint8"
        },
        {
          "internalType": "uint256",
          "name": "minHolding",
          "type": "uint256"
        },
        {
          "internalType": "address",
          "name": "tokenAddress",
          "type": "address"
        },
        {
          "internalType": "uint256",
          "name": "tokenId",
          "type": "uint256"
        }
      ],
      "name": "createParticipantMembership",
      "outputs": [],
      "stateMutability": "nonpayable",
      "type": "function"
    },
    {
      "inputs": [
        {
          "internalType": "contract DaoRegistry",
          "name": "dao",
          "type": "address"
        },
        {
          "internalType": "bytes32",
          "name": "proposalId",
          "type": "bytes32"
        },
        {
          "internalType": "uint256",
          "name": "amount",
          "type": "uint256"
        }
      ],
      "name": "deposit",
      "outputs": [],
      "stateMutability": "nonpayable",
      "type": "function"
    },
    {
      "inputs": [
        {
          "internalType": "contract DaoRegistry",
          "name": "dao",
          "type": "address"
        },
        {
          "internalType": "string",
          "name": "name",
          "type": "string"
        }
      ],
      "name": "getParticipanWhitelist",
      "outputs": [
        {
          "internalType": "address[]",
          "name": "",
          "type": "address[]"
        }
      ],
      "stateMutability": "view",
      "type": "function"
    },
    {
      "inputs": [
        {
          "internalType": "contract DaoRegistry",
          "name": "dao",
          "type": "address"
        },
        {
          "internalType": "string",
          "name": "name",
          "type": "string"
        }
      ],
      "name": "getParticipantMembershipInfo",
      "outputs": [
        {
          "internalType": "bool",
          "name": "created",
          "type": "bool"
        },
        {
          "internalType": "uint8",
          "name": "varifyType",
          "type": "uint8"
        },
        {
          "internalType": "uint256",
          "name": "minHolding",
          "type": "uint256"
        },
        {
          "internalType": "address",
          "name": "tokenAddress",
          "type": "address"
        },
        {
          "internalType": "uint256",
          "name": "tokenId",
          "type": "uint256"
        }
      ],
      "stateMutability": "view",
      "type": "function"
    },
    {
      "inputs": [
        {
          "internalType": "contract DaoRegistry",
          "name": "dao",
          "type": "address"
        }
      ],
      "name": "getPriorityDepositWhitelist",
      "outputs": [
        {
          "internalType": "address[]",
          "name": "",
          "type": "address[]"
        }
      ],
      "stateMutability": "view",
      "type": "function"
    },
    {
      "inputs": [
        {
          "internalType": "contract DaoRegistry",
          "name": "dao",
          "type": "address"
        },
        {
          "internalType": "bytes32",
          "name": "proposalId",
          "type": "bytes32"
        }
      ],
      "name": "getTotalFundByProposalId",
      "outputs": [
        {
          "internalType": "uint160",
          "name": "",
          "type": "uint160"
        }
      ],
      "stateMutability": "view",
      "type": "function"
    },
    {
      "inputs": [
        {
          "internalType": "contract DaoRegistry",
          "name": "dao",
          "type": "address"
        },
        {
          "internalType": "uint256",
          "name": "timeStamp",
          "type": "uint256"
        }
      ],
      "name": "ifInRedemptionPeriod",
      "outputs": [
        {
          "internalType": "bool",
          "name": "",
          "type": "bool"
        }
      ],
      "stateMutability": "view",
      "type": "function"
    },
    {
      "inputs": [
        {
          "internalType": "contract DaoRegistry",
          "name": "dao",
          "type": "address"
        },
        {
          "internalType": "address",
          "name": "_addr",
          "type": "address"
        }
      ],
      "name": "isActiveMember",
      "outputs": [
        {
          "internalType": "bool",
          "name": "",
          "type": "bool"
        }
      ],
      "stateMutability": "view",
      "type": "function"
    },
    {
      "inputs": [
        {
          "internalType": "contract DaoRegistry",
          "name": "dao",
          "type": "address"
        },
        {
          "internalType": "string",
          "name": "name",
          "type": "string"
        },
        {
          "internalType": "address",
          "name": "account",
          "type": "address"
        }
      ],
      "name": "isParticipantWhiteList",
      "outputs": [
        {
          "internalType": "bool",
          "name": "",
          "type": "bool"
        }
      ],
      "stateMutability": "view",
      "type": "function"
    },
    {
      "inputs": [
        {
          "internalType": "contract DaoRegistry",
          "name": "dao",
          "type": "address"
        },
        {
          "internalType": "address",
          "name": "account",
          "type": "address"
        }
      ],
      "name": "isPriorityDepositWhitelist",
      "outputs": [
        {
          "internalType": "bool",
          "name": "",
          "type": "bool"
        }
      ],
      "stateMutability": "view",
      "type": "function"
    },
    {
      "inputs": [
        {
          "internalType": "address",
          "name": "",
          "type": "address"
        },
        {
          "internalType": "bytes32",
          "name": "",
          "type": "bytes32"
        }
      ],
      "name": "participantMemberShips",
      "outputs": [
        {
          "internalType": "bool",
          "name": "created",
          "type": "bool"
        },
        {
          "internalType": "uint8",
          "name": "varifyType",
          "type": "uint8"
        },
        {
          "internalType": "uint256",
          "name": "minHolding",
          "type": "uint256"
        },
        {
          "internalType": "address",
          "name": "tokenAddress",
          "type": "address"
        },
        {
          "internalType": "uint256",
          "name": "tokenId",
          "type": "uint256"
        }
      ],
      "stateMutability": "view",
      "type": "function"
    },
    {
      "inputs": [
        {
          "internalType": "contract DaoRegistry",
          "name": "dao",
          "type": "address"
        },
        {
          "internalType": "string",
          "name": "name",
          "type": "string"
        },
        {
          "internalType": "address",
          "name": "account",
          "type": "address"
        }
      ],
      "name": "registerParticipantWhiteList",
      "outputs": [],
      "stateMutability": "nonpayable",
      "type": "function"
    },
    {
      "inputs": [
        {
          "internalType": "contract DaoRegistry",
          "name": "dao",
          "type": "address"
        },
        {
          "internalType": "address",
          "name": "account",
          "type": "address"
        }
      ],
      "name": "registerPriorityDepositWhiteList",
      "outputs": [],
      "stateMutability": "nonpayable",
      "type": "function"
    },
    {
      "inputs": [
        {
          "internalType": "contract DaoRegistry",
          "name": "dao",
          "type": "address"
        },
        {
          "internalType": "bytes32",
          "name": "proposalId",
          "type": "bytes32"
        },
        {
          "internalType": "uint160",
          "name": "amount",
          "type": "uint160"
        }
      ],
      "name": "withdraw",
      "outputs": [],
      "stateMutability": "nonpayable",
      "type": "function"
    }
  ],
  "bytecode": "0x608060405234801561001057600080fd5b50612c26806100206000396000f3fe608060405234801561001057600080fd5b50600436106100f55760003560e01c80633a844ec011610097578063aed71fde11610066578063aed71fde1461027b578063d22bb2d51461028e578063eb2243f8146102a1578063f542c86a146102b457600080fd5b80633a844ec0146101e057806375e42744146102035780638ecf7720146102165780639e875f321461022957600080fd5b80631316eb21116100d35780631316eb211461015f57806314a6c056146101a757806322528685146101ba578063239dd228146101cd57600080fd5b80630617b0ce146100fa5780630679347b1461012a57806307832bfd1461014a575b600080fd5b61010d610108366004612794565b6102c7565b6040516001600160a01b0390911681526020015b60405180910390f35b61013d61013836600461282f565b6103de565b6040516101219190612a91565b61015d61015836600461275c565b610444565b005b61017261016d36600461282f565b61049e565b60408051951515865260ff9094166020860152928401919091526001600160a01b03166060830152608082015260a001610121565b61013d6101b5366004612740565b610512565b61015d6101c83660046128e8565b610536565b61015d6101db3660046127e7565b61067b565b6101f36101ee366004612794565b610ae3565b6040519015158152602001610121565b61010d6102113660046127a6565b610e34565b6101f361022436600461275c565b610f42565b610172610237366004612609565b60016020818152600093845260408085209091529183529120805491810154600282015460039092015460ff80851694610100900416926001600160a01b03169085565b6101f361028936600461275c565b610fbf565b6101f361029c366004612882565b610fe1565b61015d6102af3660046127fb565b611032565b61015d6102c2366004612882565b611d7e565b604051632c9f4b5b60e11b8152600080516020612bd1833981519152600482015260009081906001600160a01b0385169063593e96b69060240160206040518083038186803b15801561031957600080fd5b505afa15801561032d573d6000803e3d6000fd5b505050506040513d601f19601f8201168201806040525081019061035191906125ed565b604051636101c11b60e11b81526004810185905261babe60248201529091506001600160a01b0382169063c20382369060440160206040518083038186803b15801561039c57600080fd5b505afa1580156103b0573d6000803e3d6000fd5b505050506040513d601f19601f820116820180604052508101906103d491906125ed565b9150505b92915050565b6060600061040c84846040516020016103f8929190612a10565b604051602081830303815290604052611e08565b6001600160a01b038616600090815260208181526040808320848452909152902090915061043990611e24565b9150505b9392505050565b8161044f8133611e31565b6001600160a01b03831660009081526002602052604090206104719083611e78565b610499576001600160a01b03831660009081526002602052604090206104979083611e9a565b505b505050565b6000806000806000806104bd88886040516020016103f8929190612a10565b6001600160a01b03998a166000908152600160208181526040808420948452939052919020805491810154600282015460039092015460ff8085169e610100909504169c919b50911698509650945050505050565b6001600160a01b03811660009081526002602052604090206060906103d890611e24565b866105418133611e31565b600061055988886040516020016103f8929190612a10565b6001600160a01b038a16600090815260016020908152604080832084845282529182902054915192935060ff9091161591610598918b918b9101612a20565b604051602081830303815290604052906105ce5760405162461bcd60e51b81526004016105c59190612ade565b60405180910390fd5b506040805160a081018252600180825260ff9889166020808401918252838501998a526001600160a01b0398891660608501908152608085019889529d891660009081528382528581209681529590529290932090518154925161ffff1990931690151561ff00191617610100929098169190910296909617865593519385019390935595516002840180546001600160a01b031916919092161790555092516003909301929092555050565b82600061068782611eaf565b604051632c9f4b5b60e11b8152600080516020612bd183398151915260048201529091506000906001600160a01b0387169063593e96b69060240160206040518083038186803b1580156106da57600080fd5b505afa1580156106ee573d6000803e3d6000fd5b505050506040513d601f19601f8201168201806040525081019061071291906125ed565b604051636101c11b60e11b8152600481018790523360248201529091506000906001600160a01b0383169063c20382369060440160206040518083038186803b15801561075e57600080fd5b505afa158015610772573d6000803e3d6000fd5b505050506040513d601f19601f8201168201806040525081019061079691906125ed565b6001600160a01b031690506000811180156107ba575080856001600160a01b031611155b6107fc5760405162461bcd60e51b81526020600482015260136024820152726e6f7468696e6720746f20776974686472617760681b60448201526064016105c5565b6040516317ba7d8560e01b81527f7a8526bca00f0726b2fab8c3bfd5b00bfa84d07f111e48263b13de605eefcdda60048201526000906001600160a01b038916906317ba7d859060240160206040518083038186803b15801561085e57600080fd5b505afa158015610872573d6000803e3d6000fd5b505050506040513d601f19601f8201168201806040525081019061089691906125ed565b9050600080826001600160a01b03166380dc31418b8b6040518363ffffffff1660e01b81526004016108c9929190612a78565b604080518083038186803b1580156108e057600080fd5b505afa1580156108f4573d6000803e3d6000fd5b505050506040513d601f19601f8201168201806040525081019061091891906129d1565b9092509050428111806109d1575042811080156109d1575060036040516357670a1960e01b81526001600160a01b038516906357670a1990610960908e908e90600401612a78565b60206040518083038186803b15801561097857600080fd5b505afa15801561098c573d6000803e3d6000fd5b505050506040513d601f19601f820116820180604052508101906109b0919061299a565b60068111156109cf57634e487b7160e01b600052602160045260246000fd5b145b15610acd5760405163148cd4fd60e01b81526000906001600160a01b0385169063148cd4fd90610a07908e908e90600401612a78565b60206040518083038186803b158015610a1f57600080fd5b505afa158015610a33573d6000803e3d6000fd5b505050506040513d601f19601f82011682018060405250810190610a5791906125ed565b60405163470660bb60e11b8152600481018c90523360248201526001600160a01b0380831660448301528b8116606483015291925090871690638e0cc17690608401600060405180830381600087803b158015610ab357600080fd5b505af1158015610ac7573d6000803e3d6000fd5b50505050505b5050505050610adc828261213a565b5050505050565b604051634941d71d60e11b81527fd99dae5492aa0c08830764a319f29225cc739a0ed8683d8fd1b5bc3a8fe31672600482015260009081906001600160a01b03851690639283ae3a9060240160206040518083038186803b158015610b4757600080fd5b505afa158015610b5b573d6000803e3d6000fd5b505050506040513d601f19601f82011682018060405250810190610b7f91906129b9565b604051634941d71d60e11b81527f9ce69cf04065e3c7823cc5540c0598d8a694bd7a9a5a2a786d8bccf14ed6e2ea60048201529091506000906001600160a01b03861690639283ae3a9060240160206040518083038186803b158015610be457600080fd5b505afa158015610bf8573d6000803e3d6000fd5b505050506040513d601f19601f82011682018060405250810190610c1c91906129b9565b604051634941d71d60e11b81527f6a2acfe6164f3ec20e6d80e2f4e4f7ae2b9962615c9596c872d01f6cd244aed360048201529091506000906001600160a01b03871690639283ae3a9060240160206040518083038186803b158015610c8157600080fd5b505afa158015610c95573d6000803e3d6000fd5b505050506040513d601f19601f82011682018060405250810190610cb991906129b9565b604051634941d71d60e11b81527f2305fa3a9f84625f75d70f539e621c658cf49e7477ab5af9cacd278ca7904e3060048201529091506000906001600160a01b03881690639283ae3a9060240160206040518083038186803b158015610d1e57600080fd5b505afa158015610d32573d6000803e3d6000fd5b505050506040513d601f19601f82011682018060405250810190610d5691906129b9565b90506000610d648585612b49565b9050821580610d71575081155b80610d7a575080155b15610d8d576000955050505050506103d8565b6000610d998483612b29565b905060008060005b838111610e22578215610dbd57610db88784612b11565b610dc7565b610dc7878a612b11565b9250610dd38684612b49565b9150818b118015610de35750828b105b8015610dee5750888b115b8015610df95750878b105b15610e1057600199505050505050505050506103d8565b610e1b600182612b11565b9050610da1565b5060009b9a5050505050505050505050565b604051632c9f4b5b60e11b8152600080516020612bd1833981519152600482015260009081906001600160a01b0386169063593e96b69060240160206040518083038186803b158015610e8657600080fd5b505afa158015610e9a573d6000803e3d6000fd5b505050506040513d601f19601f82011682018060405250810190610ebe91906125ed565b604051636101c11b60e11b8152600481018690526001600160a01b0385811660248301529192509082169063c20382369060440160206040518083038186803b158015610f0a57600080fd5b505afa158015610f1e573d6000803e3d6000fd5b505050506040513d601f19601f8201168201806040525081019061043991906125ed565b60405163288c314960e21b81526001600160a01b0382811660048301526000919084169063a230c5249060240160206040518083038186803b158015610f8757600080fd5b505afa158015610f9b573d6000803e3d6000fd5b505050506040513d601f19601f8201168201806040525081019061043d91906126fb565b6001600160a01b038216600090815260026020526040812061043d9083611e78565b600080610ffa85856040516020016103f8929190612a10565b6001600160a01b03871660009081526020818152604080832084845290915290209091506110289084611e78565b9695505050505050565b82600061103e82611eaf565b905061109f6040805161014081018252600080825260208201819052918101829052606081018290529060808201908152602001600081526020016000815260200160006001600160a01b0316815260200160008152602001600081525090565b6040516317ba7d8560e01b81527f7a8526bca00f0726b2fab8c3bfd5b00bfa84d07f111e48263b13de605eefcdda60048201526001600160a01b038716906317ba7d859060240160206040518083038186803b1580156110fe57600080fd5b505afa158015611112573d6000803e3d6000fd5b505050506040513d601f19601f8201168201806040525081019061113691906125ed565b6001600160a01b039081168252604051632c9f4b5b60e11b8152600080516020612bd183398151915260048201529087169063593e96b69060240160206040518083038186803b15801561118957600080fd5b505afa15801561119d573d6000803e3d6000fd5b505050506040513d601f19601f820116820180604052508101906111c191906125ed565b6001600160a01b0316602082018190526040516338e2969960e21b81526004810187905263e38a5a649060240160006040518083038186803b15801561120657600080fd5b505afa15801561121a573d6000803e3d6000fd5b505050506040513d6000823e601f3d908101601f191682016040526112429190810190612634565b51610120820152604051634941d71d60e11b81527f0a71373d28d4b40b0bb46f8d58468f2e51292d10cf26715a0e3d8624b60c8a4260048201526001600160a01b03871690639283ae3a9060240160206040518083038186803b1580156112a857600080fd5b505afa1580156112bc573d6000803e3d6000fd5b505050506040513d601f19601f820116820180604052508101906112e091906129b9565b60011480156113865750604051634941d71d60e11b81527faf0b46df030af159303b75690e740674df8434270d3b7248b0280f3d63a2dd8b60048201526000906001600160a01b03881690639283ae3a9060240160206040518083038186803b15801561134c57600080fd5b505afa158015611360573d6000803e3d6000fd5b505050506040513d601f19601f8201168201806040525081019061138491906129b9565b115b801561142d5750604051634941d71d60e11b81527faf0b46df030af159303b75690e740674df8434270d3b7248b0280f3d63a2dd8b60048201526001600160a01b03871690639283ae3a9060240160206040518083038186803b1580156113ec57600080fd5b505afa158015611400573d6000803e3d6000fd5b505050506040513d601f19601f8201168201806040525081019061142491906129b9565b81610120015110155b80156114ba57506020810151604051630d9416b960e31b8152600481018790523360248201526001600160a01b0390911690636ca0b5c89060440160206040518083038186803b15801561148057600080fd5b505afa158015611494573d6000803e3d6000fd5b505050506040513d601f19601f820116820180604052508101906114b891906126fb565b155b156114ff5760405162461bcd60e51b815260206004820152601560248201527409ac2f040a0c2e4e8d2c6d2e0c2dce840a4cac2c6d605b1b60448201526064016105c5565b80516040516357670a1960e01b81526002916001600160a01b0316906357670a1990611531908a908a90600401612a78565b60206040518083038186803b15801561154957600080fd5b505afa15801561155d573d6000803e3d6000fd5b505050506040513d601f19601f82011682018060405250810190611581919061299a565b60068111156115a057634e487b7160e01b600052602160045260246000fd5b146115ed5760405162461bcd60e51b815260206004820152601d60248201527f46756e64696e672050726f706f73616c204e6f742046696e616c697a6500000060448201526064016105c5565b80516040516380dc314160e01b81526001600160a01b03909116906380dc31419061161e9089908990600401612a78565b604080518083038186803b15801561163557600080fd5b505afa158015611649573d6000803e3d6000fd5b505050506040513d601f19601f8201168201806040525081019061166d91906129d1565b6060830152604082018190524210806116895750806060015142115b156116ca5760405162461bcd60e51b81526020600482015260116024820152704e6f7420496e2046756e6420526169736560781b60448201526064016105c5565b6000841161170b5760405162461bcd60e51b815260206004820152600e60248201526d6e6f20746f6b656e2073656e742160901b60448201526064016105c5565b80516040516303eef82360e41b81526001600160a01b0390911690633eef82309061173c9089908990600401612a78565b60206040518083038186803b15801561175457600080fd5b505afa158015611768573d6000803e3d6000fd5b505050506040513d601f19601f8201168201806040525081019061178c919061297b565b816080019060018111156117b057634e487b7160e01b600052602160045260246000fd5b908160018111156117d157634e487b7160e01b600052602160045260246000fd5b9052508051604051636666c9bd60e01b81526001600160a01b0390911690636666c9bd906118059089908990600401612a78565b604080518083038186803b15801561181c57600080fd5b505afa158015611830573d6000803e3d6000fd5b505050506040513d601f19601f8201168201806040525081019061185491906129d1565b60c083015260a082015280516040516341439ae560e01b81526001600160a01b03909116906341439ae59061188f9089908990600401612a78565b60206040518083038186803b1580156118a757600080fd5b505afa1580156118bb573d6000803e3d6000fd5b505050506040513d601f19601f820116820180604052508101906118df91906129b9565b61010082015260a0810151158015906118fb57508060a0015184105b156119485760405162461bcd60e51b815260206004820152601760248201527f4c657373204d696e204465706f73697420416d6f756e7400000000000000000060448201526064016105c5565b60008160c001511180156119f5575060c08101516020820151604051636101c11b60e11b81526004810188905233602482015286916001600160a01b03169063c20382369060440160206040518083038186803b1580156119a857600080fd5b505afa1580156119bc573d6000803e3d6000fd5b505050506040513d601f19601f820116820180604052508101906119e091906125ed565b6001600160a01b03166119f39190612b11565b115b15611a425760405162461bcd60e51b815260206004820152601960248201527f457863656564204d6178204465706f73697420416d6f756e740000000000000060448201526064016105c5565b600081608001516001811115611a6857634e487b7160e01b600052602160045260246000fd5b148015611a7a57506000816101000151115b15611b6c576101008101516020820151604051636101c11b60e11b81526004810188905261babe602482015286916001600160a01b03169063c20382369060440160206040518083038186803b158015611ad357600080fd5b505afa158015611ae7573d6000803e3d6000fd5b505050506040513d601f19601f82011682018060405250810190611b0b91906125ed565b6001600160a01b0316611b1e9190612b11565b1115611b6c5760405162461bcd60e51b815260206004820152601960248201527f457863656564204d61782046756e64696e6720416d6f756e740000000000000060448201526064016105c5565b805160405163148cd4fd60e01b81526001600160a01b039091169063148cd4fd90611b9d9089908990600401612a78565b60206040518083038186803b158015611bb557600080fd5b505afa158015611bc9573d6000803e3d6000fd5b505050506040513d601f19601f82011682018060405250810190611bed91906125ed565b6001600160a01b031660e082018190526040516323b872dd60e01b8152336004820152306024820152604481018690526323b872dd90606401602060405180830381600087803b158015611c4057600080fd5b505af1158015611c54573d6000803e3d6000fd5b505050506040513d601f19601f82011682018060405250810190611c7891906126fb565b50604051632c9f4b5b60e11b8152600080516020612bd18339815191526004820152611d17906001600160a01b0388169063593e96b69060240160206040518083038186803b158015611cca57600080fd5b505afa158015611cde573d6000803e3d6000fd5b505050506040513d601f19601f82011682018060405250810190611d0291906125ed565b60e08301516001600160a01b03169086612145565b6020810151604051626713e160e11b815260048101879052336024820152604481018690526001600160a01b039091169062ce27c290606401600060405180830381600087803b158015611d6a57600080fd5b505af1158015610acd573d6000803e3d6000fd5b83611d898133611e31565b6000611da185856040516020016103f8929190612a10565b6001600160a01b0387166000908152602081815260408083208484529091529020909150611dcf9084611e78565b611e00576001600160a01b0386166000908152602081815260408083208484529091529020611dfe9084611e9a565b505b505050505050565b6000815160001415611e1c57506000919050565b506020015190565b6060600061043d8361219b565b611e3b8282610f42565b611e745760405162461bcd60e51b815260206004820152600a60248201526937b7363ca6b2b6b132b960b11b60448201526064016105c5565b5050565b6001600160a01b0381166000908152600183016020526040812054151561043d565b600061043d836001600160a01b0384166121f7565b6040805160808101825260008082526020820181905291810182905260608101919091525a81600001818152505043826001600160a01b031663b21634826040518163ffffffff1660e01b815260040160206040518083038186803b158015611f1757600080fd5b505afa158015611f2b573d6000803e3d6000fd5b505050506040513d601f19601f82011682018060405250810190611f4f91906129b9565b1415611f905760405162461bcd60e51b815260206004820152601060248201526f1c99595b9d1c985b98de4819dd585c9960821b60448201526064016105c5565b816001600160a01b03166310fdb0a26040518163ffffffff1660e01b8152600401600060405180830381600087803b158015611fcb57600080fd5b505af1158015611fdf573d6000803e3d6000fd5b50506040516372c6838f60e01b81527f1f2fd42ad6a6cacd573c4b212beb7a4e2499ad45d742a65337097f130e71daff6004820152600092506001600160a01b03851691506372c6838f9060240160206040518083038186803b15801561204557600080fd5b505afa158015612059573d6000803e3d6000fd5b505050506040513d601f19601f8201168201806040525081019061207d91906125ed565b90506001600160a01b0381166120995760006020830152612134565b6001600160a01b0381166060830181905282516040516343a8a3f160e01b8152600092839290916343a8a3f1916120d591899190600401612a78565b604080518083038186803b1580156120ec57600080fd5b505afa158015612100573d6000803e3d6000fd5b505050506040513d601f19601f820116820180604052508101906121249190612715565b9015156020860152604085015250505b50919050565b611e74828233612246565b6104998363a9059cbb60e01b8484604051602401612164929190612a78565b60408051601f198184030181529190526020810180516001600160e01b03166001600160e01b031990931692909217909152612333565b6060816000018054806020026020016040519081016040528092919081815260200182805480156121eb57602002820191906000526020600020905b8154815260200190600101908083116121d7575b50505050509050919050565b600081815260018301602052604081205461223e575081546001818101845560008481526020808220909301849055845484825282860190935260409020919091556103d8565b5060006103d8565b8160200151156122e45781606001516001600160a01b0316635e5eb01384835a86516122729190612b49565b60408088015190516001600160e01b031960e087901b1681526001600160a01b03948516600482015293909216602484015260448301526064820152608401600060405180830381600087803b1580156122cb57600080fd5b505af11580156122df573d6000803e3d6000fd5b505050505b826001600160a01b031663d4f7af436040518163ffffffff1660e01b8152600401600060405180830381600087803b15801561231f57600080fd5b505af1158015611dfe573d6000803e3d6000fd5b6000612388826040518060400160405280602081526020017f5361666545524332303a206c6f772d6c6576656c2063616c6c206661696c6564815250856001600160a01b03166124059092919063ffffffff16565b80519091501561049957808060200190518101906123a691906126fb565b6104995760405162461bcd60e51b815260206004820152602a60248201527f5361666545524332303a204552433230206f7065726174696f6e20646964206e6044820152691bdd081cdd58d8d9595960b21b60648201526084016105c5565b6060612414848460008561241c565b949350505050565b60608247101561247d5760405162461bcd60e51b815260206004820152602660248201527f416464726573733a20696e73756666696369656e742062616c616e636520666f6044820152651c8818d85b1b60d21b60648201526084016105c5565b6001600160a01b0385163b6124d45760405162461bcd60e51b815260206004820152601d60248201527f416464726573733a2063616c6c20746f206e6f6e2d636f6e747261637400000060448201526064016105c5565b600080866001600160a01b031685876040516124f091906129f4565b60006040518083038185875af1925050503d806000811461252d576040519150601f19603f3d011682016040523d82523d6000602084013e612532565b606091505b509150915061254282828661254d565b979650505050505050565b6060831561255c57508161043d565b82511561256c5782518084602001fd5b8160405162461bcd60e51b81526004016105c59190612ade565b805161259181612bb8565b919050565b8051801515811461259157600080fd5b60008083601f8401126125b7578182fd5b50813567ffffffffffffffff8111156125ce578182fd5b6020830191508360208285010111156125e657600080fd5b9250929050565b6000602082840312156125fe578081fd5b815161043d81612bb8565b6000806040838503121561261b578081fd5b823561262681612bb8565b946020939093013593505050565b60006020808385031215612646578182fd5b825167ffffffffffffffff8082111561265d578384fd5b818501915085601f830112612670578384fd5b81518181111561268257612682612ba2565b8060051b604051601f19603f830116810181811085821117156126a7576126a7612ba2565b604052828152858101935084860182860187018a10156126c5578788fd5b8795505b838610156126ee576126da81612586565b8552600195909501949386019386016126c9565b5098975050505050505050565b60006020828403121561270c578081fd5b61043d82612596565b60008060408385031215612727578182fd5b61273083612596565b9150602083015190509250929050565b600060208284031215612751578081fd5b813561043d81612bb8565b6000806040838503121561276e578182fd5b823561277981612bb8565b9150602083013561278981612bb8565b809150509250929050565b6000806040838503121561261b578182fd5b6000806000606084860312156127ba578081fd5b83356127c581612bb8565b92506020840135915060408401356127dc81612bb8565b809150509250925092565b6000806000606084860312156127ba578283fd5b60008060006060848603121561280f578283fd5b833561281a81612bb8565b95602085013595506040909401359392505050565b600080600060408486031215612843578081fd5b833561284e81612bb8565b9250602084013567ffffffffffffffff811115612869578182fd5b612875868287016125a6565b9497909650939450505050565b60008060008060608587031215612897578182fd5b84356128a281612bb8565b9350602085013567ffffffffffffffff8111156128bd578283fd5b6128c9878288016125a6565b90945092505060408501356128dd81612bb8565b939692955090935050565b600080600080600080600060c0888a031215612902578485fd5b873561290d81612bb8565b9650602088013567ffffffffffffffff811115612928578586fd5b6129348a828b016125a6565b909750955050604088013560ff8116811461294d578384fd5b935060608801359250608088013561296481612bb8565b8092505060a0880135905092959891949750929550565b60006020828403121561298c578081fd5b81516002811061043d578182fd5b6000602082840312156129ab578081fd5b81516007811061043d578182fd5b6000602082840312156129ca578081fd5b5051919050565b600080604083850312156129e3578182fd5b505080516020909101519092909150565b60008251612a06818460208701612b60565b9190910192915050565b8183823760009101908152919050565b6403730b6b2960dd1b8152818360058301377f205061727469636970616e74204d656d62657273686970206e616d6520616c72910160058101919091526932b0b23c903a30b5b2b760b11b6025820152602f01919050565b6001600160a01b03929092168252602082015260400190565b6020808252825182820181905260009190848201906040850190845b81811015612ad25783516001600160a01b031683529284019291840191600101612aad565b50909695505050505050565b6020815260008251806020840152612afd816040850160208701612b60565b601f01601f19169190910160400192915050565b60008219821115612b2457612b24612b8c565b500190565b600082612b4457634e487b7160e01b81526012600452602481fd5b500490565b600082821015612b5b57612b5b612b8c565b500390565b60005b83811015612b7b578181015183820152602001612b63565b838111156104975750506000910152565b634e487b7160e01b600052601160045260246000fd5b634e487b7160e01b600052604160045260246000fd5b6001600160a01b0381168114612bcd57600080fd5b5056feb12a3847d47fefceb164b75823af125f9aa82b76938df0ddf08c04cd314ba37ca264697066735822122078aad94605a1b16efc59bb581e774c44906d307b9ea93f6ca6876f42ef5e173664736f6c63430008040033",
  "linkReferences": {},
  "deployedLinkReferences": {}
}