{
  "_format": "hh-sol-artifact-1",
  "contractName": "FlexFundingAdapterContract",
  "sourceName": "contracts/flex/adatpers/FlexFunding.sol",
  "abi": [
    {
      "inputs": [],
      "name": "EscrowTokenFailed",
      "type": "error"
    },
    {
      "inputs": [],
      "name": "FundRaiseEndTimeNotUP",
      "type": "error"
    },
    {
      "inputs": [],
      "name": "InvalidReturnFundParams",
      "type": "error"
    },
    {
      "inputs": [],
      "name": "InvalidVestingParams",
      "type": "error"
    },
    {
      "inputs": [],
      "name": "invalidParam",
      "type": "error"
    },
    {
      "anonymous": false,
      "inputs": [
        {
          "indexed": false,
          "internalType": "address",
          "name": "daoAddress",
          "type": "address"
        },
        {
          "indexed": false,
          "internalType": "bytes32",
          "name": "proposalId",
          "type": "bytes32"
        },
        {
          "indexed": false,
          "internalType": "address",
          "name": "proposer",
          "type": "address"
        }
      ],
      "name": "ProposalCreated",
      "type": "event"
    },
    {
      "anonymous": false,
      "inputs": [
        {
          "indexed": false,
          "internalType": "address",
          "name": "daoAddress",
          "type": "address"
        },
        {
          "indexed": false,
          "internalType": "bytes32",
          "name": "proposalId",
          "type": "bytes32"
        },
        {
          "indexed": false,
          "internalType": "enum IFlexFunding.ProposalStatus",
          "name": "state",
          "type": "uint8"
        }
      ],
      "name": "ProposalExecuted",
      "type": "event"
    },
    {
      "inputs": [
        {
          "internalType": "address",
          "name": "",
          "type": "address"
        },
        {
          "internalType": "bytes32",
          "name": "",
          "type": "bytes32"
        }
      ],
      "name": "Proposals",
      "outputs": [
        {
          "internalType": "address",
          "name": "proposer",
          "type": "address"
        },
        {
          "components": [
            {
              "internalType": "address",
              "name": "tokenAddress",
              "type": "address"
            },
            {
              "internalType": "uint256",
              "name": "minFundingAmount",
              "type": "uint256"
            },
            {
              "internalType": "uint256",
              "name": "maxFundingAmount",
              "type": "uint256"
            },
            {
              "internalType": "bool",
              "name": "escrow",
              "type": "bool"
            },
            {
              "internalType": "address",
              "name": "returnTokenAddr",
              "type": "address"
            },
            {
              "internalType": "uint256",
              "name": "returnTokenAmount",
              "type": "uint256"
            },
            {
              "internalType": "uint256",
              "name": "price",
              "type": "uint256"
            },
            {
              "internalType": "uint256",
              "name": "minReturnAmount",
              "type": "uint256"
            },
            {
              "internalType": "uint256",
              "name": "maxReturnAmount",
              "type": "uint256"
            },
            {
              "internalType": "address",
              "name": "approverAddr",
              "type": "address"
            },
            {
              "internalType": "address",
              "name": "recipientAddr",
              "type": "address"
            }
          ],
          "internalType": "struct IFlexFunding.FundingInfo",
          "name": "fundingInfo",
          "type": "tuple"
        },
        {
          "components": [
            {
              "internalType": "uint256",
              "name": "vestingStartTime",
              "type": "uint256"
            },
            {
              "internalType": "uint256",
              "name": "vestingCliffDuration",
              "type": "uint256"
            },
            {
              "internalType": "uint256",
              "name": "vestingStepDuration",
              "type": "uint256"
            },
            {
              "internalType": "uint256",
              "name": "vestingSteps",
              "type": "uint256"
            },
            {
              "internalType": "uint256",
              "name": "vestingCliffLockAmount",
              "type": "uint256"
            }
          ],
          "internalType": "struct IFlexFunding.VestInfo",
          "name": "vestInfo",
          "type": "tuple"
        },
        {
          "components": [
            {
              "internalType": "enum IFlexFunding.FundRaiseType",
              "name": "fundRaiseType",
              "type": "uint8"
            },
            {
              "internalType": "uint256",
              "name": "fundRaiseStartTime",
              "type": "uint256"
            },
            {
              "internalType": "uint256",
              "name": "fundRaiseEndTime",
              "type": "uint256"
            },
            {
              "internalType": "uint256",
              "name": "minDepositAmount",
              "type": "uint256"
            },
            {
              "internalType": "uint256",
              "name": "maxDepositAmount",
              "type": "uint256"
            },
            {
              "internalType": "bool",
              "name": "backerIdentification",
              "type": "bool"
            },
            {
              "components": [
                {
                  "internalType": "enum IFlexFunding.BackerIdentificationType",
                  "name": "bType",
                  "type": "uint8"
                },
                {
                  "internalType": "uint32",
                  "name": "bChainId",
                  "type": "uint32"
                },
                {
                  "internalType": "address",
                  "name": "bTokanAddr",
                  "type": "address"
                },
                {
                  "internalType": "uint256",
                  "name": "bTokenId",
                  "type": "uint256"
                },
                {
                  "internalType": "uint256",
                  "name": "bMinHoldingAmount",
                  "type": "uint256"
                }
              ],
              "internalType": "struct IFlexFunding.BackerIdentificationInfo",
              "name": "bakckerIdentificationInfo",
              "type": "tuple"
            },
            {
              "internalType": "bool",
              "name": "priorityDeposit",
              "type": "bool"
            },
            {
              "components": [
                {
                  "internalType": "uint256",
                  "name": "pPeriod",
                  "type": "uint256"
                },
                {
                  "internalType": "uint256",
                  "name": "pPeriods",
                  "type": "uint256"
                },
                {
                  "internalType": "enum IFlexFunding.PriorityDepositType",
                  "name": "pType",
                  "type": "uint8"
                },
                {
                  "internalType": "uint256",
                  "name": "pChainId",
                  "type": "uint256"
                },
                {
                  "internalType": "address",
                  "name": "pTokenAddr",
                  "type": "address"
                },
                {
                  "internalType": "uint256",
                  "name": "pTokenId",
                  "type": "uint256"
                },
                {
                  "internalType": "uint256",
                  "name": "pMinHolding",
                  "type": "uint256"
                }
              ],
              "internalType": "struct IFlexFunding.PriorityDepositInfo",
              "name": "priorityDepositInfo",
              "type": "tuple"
            }
          ],
          "internalType": "struct IFlexFunding.FundRaiseInfo",
          "name": "fundRaiseInfo",
          "type": "tuple"
        },
        {
          "components": [
            {
              "internalType": "uint256",
              "name": "tokenRewardAmount",
              "type": "uint256"
            },
            {
              "internalType": "uint256",
              "name": "cashRewardAmount",
              "type": "uint256"
            }
          ],
          "internalType": "struct IFlexFunding.ProposerRewardInfo",
          "name": "proposerRewardInfo",
          "type": "tuple"
        },
        {
          "internalType": "uint256",
          "name": "startVoteTime",
          "type": "uint256"
        },
        {
          "internalType": "uint256",
          "name": "stopVoteTime",
          "type": "uint256"
        },
        {
          "internalType": "enum IFlexFunding.ProposalStatus",
          "name": "state",
          "type": "uint8"
        }
      ],
      "stateMutability": "view",
      "type": "function"
    },
    {
      "inputs": [],
      "name": "RETRUN_TOKEN_AMOUNT_PRECISION",
      "outputs": [
        {
          "internalType": "uint256",
          "name": "",
          "type": "uint256"
        }
      ],
      "stateMutability": "view",
      "type": "function"
    },
    {
      "inputs": [
        {
          "internalType": "contract DaoRegistry",
          "name": "dao",
          "type": "address"
        },
        {
          "internalType": "enum IFlexFunding.FundingType",
          "name": "flexFundingType",
          "type": "uint8"
        }
      ],
      "name": "configureDao",
      "outputs": [],
      "stateMutability": "nonpayable",
      "type": "function"
    },
    {
      "inputs": [
        {
          "internalType": "address",
          "name": "",
          "type": "address"
        },
        {
          "internalType": "bytes32",
          "name": "",
          "type": "bytes32"
        },
        {
          "internalType": "address",
          "name": "",
          "type": "address"
        }
      ],
      "name": "escrowedTokens",
      "outputs": [
        {
          "internalType": "uint256",
          "name": "",
          "type": "uint256"
        }
      ],
      "stateMutability": "view",
      "type": "function"
    },
    {
      "inputs": [
        {
          "internalType": "contract DaoRegistry",
          "name": "dao",
          "type": "address"
        },
        {
          "internalType": "bytes32",
          "name": "proposalId",
          "type": "bytes32"
        }
      ],
      "name": "getDepositAmountLimit",
      "outputs": [
        {
          "internalType": "uint256",
          "name": "minDepositAmount",
          "type": "uint256"
        },
        {
          "internalType": "uint256",
          "name": "maxDepositAmount",
          "type": "uint256"
        }
      ],
      "stateMutability": "view",
      "type": "function"
    },
    {
      "inputs": [
        {
          "internalType": "contract DaoRegistry",
          "name": "dao",
          "type": "address"
        },
        {
          "internalType": "bytes32",
          "name": "proposalId",
          "type": "bytes32"
        }
      ],
      "name": "getFundRaiseTimes",
      "outputs": [
        {
          "internalType": "uint256",
          "name": "fundRaiseStartTime",
          "type": "uint256"
        },
        {
          "internalType": "uint256",
          "name": "fundRaiseEndTime",
          "type": "uint256"
        }
      ],
      "stateMutability": "view",
      "type": "function"
    },
    {
      "inputs": [
        {
          "internalType": "contract DaoRegistry",
          "name": "dao",
          "type": "address"
        },
        {
          "internalType": "bytes32",
          "name": "proposalId",
          "type": "bytes32"
        }
      ],
      "name": "getFundRaiseType",
      "outputs": [
        {
          "internalType": "enum IFlexFunding.FundRaiseType",
          "name": "",
          "type": "uint8"
        }
      ],
      "stateMutability": "view",
      "type": "function"
    },
    {
      "inputs": [
        {
          "internalType": "contract DaoRegistry",
          "name": "dao",
          "type": "address"
        },
        {
          "internalType": "bytes32",
          "name": "proposalId",
          "type": "bytes32"
        }
      ],
      "name": "getMaxFundingAmount",
      "outputs": [
        {
          "internalType": "uint256",
          "name": "",
          "type": "uint256"
        }
      ],
      "stateMutability": "view",
      "type": "function"
    },
    {
      "inputs": [
        {
          "internalType": "contract DaoRegistry",
          "name": "dao",
          "type": "address"
        },
        {
          "internalType": "bytes32",
          "name": "proposalId",
          "type": "bytes32"
        }
      ],
      "name": "getMinFundingAmount",
      "outputs": [
        {
          "internalType": "uint256",
          "name": "",
          "type": "uint256"
        }
      ],
      "stateMutability": "view",
      "type": "function"
    },
    {
      "inputs": [
        {
          "internalType": "contract DaoRegistry",
          "name": "dao",
          "type": "address"
        },
        {
          "internalType": "bytes32",
          "name": "proposalId",
          "type": "bytes32"
        }
      ],
      "name": "getProposalState",
      "outputs": [
        {
          "internalType": "enum IFlexFunding.ProposalStatus",
          "name": "",
          "type": "uint8"
        }
      ],
      "stateMutability": "view",
      "type": "function"
    },
    {
      "inputs": [
        {
          "internalType": "contract DaoRegistry",
          "name": "dao",
          "type": "address"
        }
      ],
      "name": "getProposerWhitelist",
      "outputs": [
        {
          "internalType": "address[]",
          "name": "",
          "type": "address[]"
        }
      ],
      "stateMutability": "view",
      "type": "function"
    },
    {
      "inputs": [
        {
          "internalType": "contract DaoRegistry",
          "name": "dao",
          "type": "address"
        },
        {
          "internalType": "bytes32",
          "name": "proposalId",
          "type": "bytes32"
        }
      ],
      "name": "getTokenByProposalId",
      "outputs": [
        {
          "internalType": "address",
          "name": "",
          "type": "address"
        }
      ],
      "stateMutability": "view",
      "type": "function"
    },
    {
      "inputs": [
        {
          "internalType": "contract DaoRegistry",
          "name": "dao",
          "type": "address"
        },
        {
          "internalType": "address",
          "name": "_addr",
          "type": "address"
        }
      ],
      "name": "isActiveMember",
      "outputs": [
        {
          "internalType": "bool",
          "name": "",
          "type": "bool"
        }
      ],
      "stateMutability": "view",
      "type": "function"
    },
    {
      "inputs": [
        {
          "internalType": "contract DaoRegistry",
          "name": "dao",
          "type": "address"
        },
        {
          "internalType": "address",
          "name": "account",
          "type": "address"
        }
      ],
      "name": "isProposerWhiteList",
      "outputs": [
        {
          "internalType": "bool",
          "name": "",
          "type": "bool"
        }
      ],
      "stateMutability": "view",
      "type": "function"
    },
    {
      "inputs": [
        {
          "internalType": "contract DaoRegistry",
          "name": "dao",
          "type": "address"
        },
        {
          "internalType": "bytes32",
          "name": "proposalId",
          "type": "bytes32"
        }
      ],
      "name": "processProposal",
      "outputs": [
        {
          "internalType": "bool",
          "name": "",
          "type": "bool"
        }
      ],
      "stateMutability": "nonpayable",
      "type": "function"
    },
    {
      "inputs": [],
      "name": "proposalIds",
      "outputs": [
        {
          "internalType": "uint256",
          "name": "",
          "type": "uint256"
        }
      ],
      "stateMutability": "view",
      "type": "function"
    },
    {
      "inputs": [
        {
          "internalType": "contract DaoRegistry",
          "name": "dao",
          "type": "address"
        },
        {
          "internalType": "address",
          "name": "account",
          "type": "address"
        }
      ],
      "name": "registerProposerWhiteList",
      "outputs": [],
      "stateMutability": "nonpayable",
      "type": "function"
    },
    {
      "inputs": [
        {
          "internalType": "contract DaoRegistry",
          "name": "dao",
          "type": "address"
        },
        {
          "internalType": "bytes32",
          "name": "proposalId",
          "type": "bytes32"
        }
      ],
      "name": "retrunTokenToApprover",
      "outputs": [],
      "stateMutability": "nonpayable",
      "type": "function"
    },
    {
      "inputs": [
        {
          "internalType": "contract DaoRegistry",
          "name": "dao",
          "type": "address"
        },
        {
          "components": [
            {
              "components": [
                {
                  "internalType": "address",
                  "name": "tokenAddress",
                  "type": "address"
                },
                {
                  "internalType": "uint256",
                  "name": "minFundingAmount",
                  "type": "uint256"
                },
                {
                  "internalType": "uint256",
                  "name": "maxFundingAmount",
                  "type": "uint256"
                },
                {
                  "internalType": "bool",
                  "name": "escrow",
                  "type": "bool"
                },
                {
                  "internalType": "address",
                  "name": "returnTokenAddr",
                  "type": "address"
                },
                {
                  "internalType": "uint256",
                  "name": "returnTokenAmount",
                  "type": "uint256"
                },
                {
                  "internalType": "uint256",
                  "name": "price",
                  "type": "uint256"
                },
                {
                  "internalType": "uint256",
                  "name": "minReturnAmount",
                  "type": "uint256"
                },
                {
                  "internalType": "uint256",
                  "name": "maxReturnAmount",
                  "type": "uint256"
                },
                {
                  "internalType": "address",
                  "name": "approverAddr",
                  "type": "address"
                },
                {
                  "internalType": "address",
                  "name": "recipientAddr",
                  "type": "address"
                }
              ],
              "internalType": "struct IFlexFunding.FundingInfo",
              "name": "fundingInfo",
              "type": "tuple"
            },
            {
              "components": [
                {
                  "internalType": "uint256",
                  "name": "vestingStartTime",
                  "type": "uint256"
                },
                {
                  "internalType": "uint256",
                  "name": "vestingCliffDuration",
                  "type": "uint256"
                },
                {
                  "internalType": "uint256",
                  "name": "vestingStepDuration",
                  "type": "uint256"
                },
                {
                  "internalType": "uint256",
                  "name": "vestingSteps",
                  "type": "uint256"
                },
                {
                  "internalType": "uint256",
                  "name": "vestingCliffLockAmount",
                  "type": "uint256"
                }
              ],
              "internalType": "struct IFlexFunding.VestInfo",
              "name": "vestInfo",
              "type": "tuple"
            },
            {
              "components": [
                {
                  "internalType": "enum IFlexFunding.FundRaiseType",
                  "name": "fundRaiseType",
                  "type": "uint8"
                },
                {
                  "internalType": "uint256",
                  "name": "fundRaiseStartTime",
                  "type": "uint256"
                },
                {
                  "internalType": "uint256",
                  "name": "fundRaiseEndTime",
                  "type": "uint256"
                },
                {
                  "internalType": "uint256",
                  "name": "minDepositAmount",
                  "type": "uint256"
                },
                {
                  "internalType": "uint256",
                  "name": "maxDepositAmount",
                  "type": "uint256"
                },
                {
                  "internalType": "bool",
                  "name": "backerIdentification",
                  "type": "bool"
                },
                {
                  "components": [
                    {
                      "internalType": "enum IFlexFunding.BackerIdentificationType",
                      "name": "bType",
                      "type": "uint8"
                    },
                    {
                      "internalType": "uint32",
                      "name": "bChainId",
                      "type": "uint32"
                    },
                    {
                      "internalType": "address",
                      "name": "bTokanAddr",
                      "type": "address"
                    },
                    {
                      "internalType": "uint256",
                      "name": "bTokenId",
                      "type": "uint256"
                    },
                    {
                      "internalType": "uint256",
                      "name": "bMinHoldingAmount",
                      "type": "uint256"
                    }
                  ],
                  "internalType": "struct IFlexFunding.BackerIdentificationInfo",
                  "name": "bakckerIdentificationInfo",
                  "type": "tuple"
                },
                {
                  "internalType": "bool",
                  "name": "priorityDeposit",
                  "type": "bool"
                },
                {
                  "components": [
                    {
                      "internalType": "uint256",
                      "name": "pPeriod",
                      "type": "uint256"
                    },
                    {
                      "internalType": "uint256",
                      "name": "pPeriods",
                      "type": "uint256"
                    },
                    {
                      "internalType": "enum IFlexFunding.PriorityDepositType",
                      "name": "pType",
                      "type": "uint8"
                    },
                    {
                      "internalType": "uint256",
                      "name": "pChainId",
                      "type": "uint256"
                    },
                    {
                      "internalType": "address",
                      "name": "pTokenAddr",
                      "type": "address"
                    },
                    {
                      "internalType": "uint256",
                      "name": "pTokenId",
                      "type": "uint256"
                    },
                    {
                      "internalType": "uint256",
                      "name": "pMinHolding",
                      "type": "uint256"
                    }
                  ],
                  "internalType": "struct IFlexFunding.PriorityDepositInfo",
                  "name": "priorityDepositInfo",
                  "type": "tuple"
                }
              ],
              "internalType": "struct IFlexFunding.FundRaiseInfo",
              "name": "fundRaiseInfo",
              "type": "tuple"
            },
            {
              "components": [
                {
                  "internalType": "uint256",
                  "name": "tokenRewardAmount",
                  "type": "uint256"
                },
                {
                  "internalType": "uint256",
                  "name": "cashRewardAmount",
                  "type": "uint256"
                }
              ],
              "internalType": "struct IFlexFunding.ProposerRewardInfo",
              "name": "proposerRewardInfo",
              "type": "tuple"
            }
          ],
          "internalType": "struct IFlexFunding.ProposalParams",
          "name": "params",
          "type": "tuple"
        }
      ],
      "name": "submitProposal",
      "outputs": [
        {
          "internalType": "bytes32",
          "name": "proposalId",
          "type": "bytes32"
        }
      ],
      "stateMutability": "nonpayable",
      "type": "function"
    }
  ],
  "bytecode": "0x6080604052600160035534801561001557600080fd5b50614eb5806100256000396000f3fe608060405234801561001057600080fd5b50600436106101215760003560e01c80636d535f11116100ad5780639573167d116100715780639573167d146103cd578063a7f81edc146103e0578063acc23208146103f5578063bf49999414610408578063c7aa00dd1461042f57600080fd5b80636d535f111461032857806380dc314114610337578063881075ef1461037657806388a020ba146103895780638ecf7720146103ba57600080fd5b80633eef8230116100f45780633eef8230146101ec57806341439ae51461023357806357670a191461026a5780635dbf37db146102b15780636666c9bd146102d457600080fd5b806305c6cc33146101265780630974a70d1461014f578063148cd4fd146101945780633d5af2ed146101e3575b600080fd5b610139610134366004614545565b610442565b6040516101469190614b92565b60405180910390f35b61018661015d366004614686565b6001600160a01b0391909116600090815260208181526040808320938352929052206002015490565b604051908152602001610146565b6101cb6101a2366004614686565b6001600160a01b0391821660009081526020818152604080832093835292905220600101541690565b6040516001600160a01b039091168152602001610146565b61018660035481565b6102266101fa366004614686565b6001600160a01b0391909116600090815260208181526040808320938352929052206010015460ff1690565b6040516101469190614cd4565b610186610241366004614686565b6001600160a01b0391909116600090815260208181526040808320938352929052206003015490565b6102a4610278366004614686565b6001600160a01b0391909116600090815260208181526040808320938352929052206025015460ff1690565b6040516101469190614ce2565b6102c46102bf36600461464e565b61046c565b6040519015158152602001610146565b6103136102e2366004614686565b6001600160a01b03919091166000908152602081815260408083209383529290522060138101546014909101549091565b60408051928352602083019190915201610146565b610186670de0b6b3a764000081565b610313610345366004614686565b6001600160a01b03919091166000908152602081815260408083209383529290522060118101546012909101549091565b6101866103843660046146c5565b610495565b6101866103973660046145a8565b600160209081526000938452604080852082529284528284209052825290205481565b6102c46103c836600461464e565b611f98565b6102c46103db366004614686565b612015565b6103f36103ee366004614698565b612f63565b005b6103f3610403366004614686565b61302a565b61041b61041636600461457d565b61333a565b604051610146989796959493929190614a5c565b6103f361043d36600461464e565b613672565b6001600160a01b0381166000908152600260205260409020606090610466906136c5565b92915050565b6001600160a01b038216600090815260026020526040812061048e90836136d2565b9392505050565b60008260006104a3826136f4565b604051634941d71d60e11b8152600080516020614e60833981519152600482015290915085906001600160a01b03821690639283ae3a9060240160206040518083038186803b1580156104f557600080fd5b505afa158015610509573d6000803e3d6000fd5b505050506040513d601f19601f8201168201806040525081019061052d9190614894565b61074057604051634941d71d60e11b81527ff6d5f030b79ca78dad001b87a49239ec96be97e62d13501da94c9a392700509e60048201526001600160a01b03821690639283ae3a9060240160206040518083038186803b15801561059057600080fd5b505afa1580156105a4573d6000803e3d6000fd5b505050506040513d601f19601f820116820180604052508101906105c89190614894565b60405163fd310d2960e01b81527f30091caaedd0994beeeeb3b7b5734296263687ae0126aaf79e5e0f8e5c1706b260048201526001600160a01b0383169063fd310d299060240160206040518083038186803b15801561062757600080fd5b505afa15801561063b573d6000803e3d6000fd5b505050506040513d601f19601f8201168201806040525081019061065f9190614561565b6040516370a0823160e01b81523360048201526001600160a01b0391909116906370a082319060240160206040518083038186803b1580156106a057600080fd5b505afa1580156106b4573d6000803e3d6000fd5b505050506040513d601f19601f820116820180604052508101906106d89190614894565b10156107405760405162461bcd60e51b815260206004820152602c60248201527f646f6e74206d656574206d696e20657263323020746f6b656e20686f6c64696e60448201526b19c81c995c5d5a5c9b595b9d60a21b60648201526084015b60405180910390fd5b604051634941d71d60e11b8152600080516020614e6083398151915260048201526001600160a01b03821690639283ae3a9060240160206040518083038186803b15801561078d57600080fd5b505afa1580156107a1573d6000803e3d6000fd5b505050506040513d601f19601f820116820180604052508101906107c59190614894565b600114156109d857604051634941d71d60e11b81527ff6d5f030b79ca78dad001b87a49239ec96be97e62d13501da94c9a392700509e60048201526001600160a01b03821690639283ae3a9060240160206040518083038186803b15801561082c57600080fd5b505afa158015610840573d6000803e3d6000fd5b505050506040513d601f19601f820116820180604052508101906108649190614894565b60405163fd310d2960e01b81527f30091caaedd0994beeeeb3b7b5734296263687ae0126aaf79e5e0f8e5c1706b260048201526001600160a01b0383169063fd310d299060240160206040518083038186803b1580156108c357600080fd5b505afa1580156108d7573d6000803e3d6000fd5b505050506040513d601f19601f820116820180604052508101906108fb9190614561565b6040516370a0823160e01b81523360048201526001600160a01b0391909116906370a082319060240160206040518083038186803b15801561093c57600080fd5b505afa158015610950573d6000803e3d6000fd5b505050506040513d601f19601f820116820180604052508101906109749190614894565b10156109d85760405162461bcd60e51b815260206004820152602d60248201527f646f6e74206d656574206d696e2065726337323120746f6b656e20686f6c646960448201526c1b99c81c995c5d5a5c9b595b9d609a1b6064820152608401610737565b604051634941d71d60e11b8152600080516020614e6083398151915260048201526001600160a01b03821690639283ae3a9060240160206040518083038186803b158015610a2557600080fd5b505afa158015610a39573d6000803e3d6000fd5b505050506040513d601f19601f82011682018060405250810190610a5d9190614894565b60021415610d2057604051634941d71d60e11b81527ff6d5f030b79ca78dad001b87a49239ec96be97e62d13501da94c9a392700509e60048201526001600160a01b03821690639283ae3a9060240160206040518083038186803b158015610ac457600080fd5b505afa158015610ad8573d6000803e3d6000fd5b505050506040513d601f19601f82011682018060405250810190610afc9190614894565b60405163fd310d2960e01b81527f30091caaedd0994beeeeb3b7b5734296263687ae0126aaf79e5e0f8e5c1706b260048201526001600160a01b0383169063fd310d299060240160206040518083038186803b158015610b5b57600080fd5b505afa158015610b6f573d6000803e3d6000fd5b505050506040513d601f19601f82011682018060405250810190610b939190614561565b6001600160a01b031662fdd58e33846001600160a01b0316639283ae3a7fb34f156369747125f679c86d97f51861a5a2a9f927a1addd4354acbaaa88ae576040518263ffffffff1660e01b8152600401610bef91815260200190565b60206040518083038186803b158015610c0757600080fd5b505afa158015610c1b573d6000803e3d6000fd5b505050506040513d601f19601f82011682018060405250810190610c3f9190614894565b6040516001600160e01b031960e085901b1681526001600160a01b039092166004830152602482015260440160206040518083038186803b158015610c8357600080fd5b505afa158015610c97573d6000803e3d6000fd5b505050506040513d601f19601f82011682018060405250810190610cbb9190614894565b1015610d205760405162461bcd60e51b815260206004820152602e60248201527f646f6e74206d656574206d696e206572633131353520746f6b656e20686f6c6460448201526d1a5b99c81c995c5d5a5c9b595b9d60921b6064820152608401610737565b604051634941d71d60e11b8152600080516020614e6083398151915260048201526001600160a01b03821690639283ae3a9060240160206040518083038186803b158015610d6d57600080fd5b505afa158015610d81573d6000803e3d6000fd5b505050506040513d601f19601f82011682018060405250810190610da59190614894565b60031415610f0b576040516317ba7d8560e01b81527f7a8526bca00f0726b2fab8c3bfd5b00bfa84d07f111e48263b13de605eefcdda60048201526000906001600160a01b038316906317ba7d859060240160206040518083038186803b158015610e0f57600080fd5b505afa158015610e23573d6000803e3d6000fd5b505050506040513d601f19601f82011682018060405250810190610e479190614561565b604051635dbf37db60e01b81526001600160a01b03848116600483015233602483015291925090821690635dbf37db9060440160206040518083038186803b158015610e9257600080fd5b505afa158015610ea6573d6000803e3d6000fd5b505050506040513d601f19601f82011682018060405250810190610eca9190614605565b610f095760405162461bcd60e51b815260206004820152601060248201526f1b9bdd081a5b881dda1a5d195b1a5cdd60821b6044820152606401610737565b505b604085013515801590610f2657506102808501356040860135105b15610f445760405163f47c54dd60e01b815260040160405180910390fd5b610f566102c086016102a087016145e9565b15156001148015610f9857506003610f766102e087016102c08801614706565b6003811115610f9557634e487b7160e01b600052602160045260246000fd5b14155b8015610fcb57506000610fb361032087016103008801614545565b6001600160a01b03161480610fcb5750610340850135155b156110245760405162461bcd60e51b8152602060048201526024808201527f696e76616c6964206261636b6572206964656e74696669636174696f6e20706160448201526372616d7360e01b6064820152608401610737565b611036610380860161036087016145e9565b15156001148015611078575060036110566103e087016103c08801614706565b600381111561107557634e487b7160e01b600052602160045260246000fd5b14155b80156110f75750600061109361042087016104008801614545565b6001600160a01b031614806110ab5750610440850135155b806110b95750610380850135155b806110c757506103a0850135155b806110f757506110e1610220860135610240870135614d3b565b6110f56103a0870135610380880135614d1c565b115b156111535760405162461bcd60e51b815260206004820152602660248201527f696e76616c6964206261636b6572207072696f72697479204465706f73697420604482015265706172616d7360d01b6064820152608401610737565b611226604051806102a001604052806000815260200160006001600160a01b0316815260200160006001600160a01b0316815260200160006001600160a01b0316815260200160006001600160a01b0316815260200160006001600160a01b031681526020016000801916815260200160008152602001600081526020016000815260200160008152602001600081526020016000815260200160008152602001600081526020016000815260200160008152602001600081526020016000815260200160008152602001600081525090565b6040516317ba7d8560e01b81527f0d479c38716a0298633b1dbf1ce145a3fbd1d79ca4527de172afc3bad04a2ba760048201526001600160a01b038816906317ba7d859060240160206040518083038186803b15801561128557600080fd5b505afa158015611299573d6000803e3d6000fd5b505050506040513d601f19601f820116820180604052508101906112bd9190614561565b6001600160a01b031660208083018290526040805191820181526000825251630966917d60e41b815263966917d0916112fe918b9130913390600401614c66565b602060405180830381600087803b15801561131857600080fd5b505af115801561132c573d6000803e3d6000fd5b505050506040513d601f19601f820116820180604052508101906113509190614561565b6001600160a01b031660a08201526003546113929061136e90613980565b60405160200161137e9190614a04565b604051602081830303815290604052613aa2565b60c08201526113a760808701606088016145e9565b1561145d5760006113be60a0880160808901614545565b6001600160a01b031614806113d5575060a0860135155b806113fa575060006113ef61014088016101208901614545565b6001600160a01b0316145b80611407575060e0860135155b15611425576040516301d0bec760e41b815260040160405180910390fd5b6101c0860135158061143f575060a08601356101e0870135115b1561145d5760405163f224d7d360e01b815260040160405180910390fd5b60c081015160405163b73dc38960e01b815260048101919091526001600160a01b0388169063b73dc38990602401600060405180830381600087803b1580156114a557600080fd5b505af11580156114b9573d6000803e3d6000fd5b5050604051634941d71d60e11b81527f6e9fd67c3f2ca4e2b4e4b45b33b985dc3a1bffcadea24d12440a5901f72217b56004820152600092506001600160a01b038a169150639283ae3a9060240160206040518083038186803b15801561151f57600080fd5b505afa158015611533573d6000803e3d6000fd5b505050506040513d601f19601f820116820180604052508101906115579190614894565b15611563576001611566565b60005b604080516101008101825233815281516101608101909252919250602080830191908190611596908c018c614545565b6001600160a01b0316815260208b810135908201526040808c0135908201526060908101906115cb9060808d01908d016145e9565b151581526020016115e260a08c0160808d01614545565b6001600160a01b0316815260a0808c0135602083015260c08c0135604083015260e08c013560608301526101008c013560808301520161162a6101408c016101208d01614545565b6001600160a01b0316815260200161164a6101608c016101408d01614545565b6001600160a01b0316905281526040805160a0810182526101608b013581526101808b01356020828101919091526101a08c0135828401526101c08c013560608301526101e08c01356080830152830152805161012081018252910190806116ba6102208c016102008d0161473e565b60018111156116d957634e487b7160e01b600052602160045260246000fd5b81526102208b013560208201526102408b013560408201526102608b013560608201526102808b0135608082015260a00161171c6102c08c016102a08d016145e9565b15158152602001611736368c90038c016102c08d0161475a565b815260200161174d6103808c016103608d016145e9565b15158152602001611767368c90038c016103808d016147f5565b905281526040805180820182526104608b013581526104808b01356020828101919091528301520160018360018111156117b157634e487b7160e01b600052602160045260246000fd5b146117bd5760006117bf565b425b815260200160018360018111156117e657634e487b7160e01b600052602160045260246000fd5b146117f2576000611893565b604051634941d71d60e11b81527f9876c0f0505bfb2b1c38d3bbd25ba13159172cd0868972d76927723f5a9480fc60048201526001600160a01b038b1690639283ae3a9060240160206040518083038186803b15801561185157600080fd5b505afa158015611865573d6000803e3d6000fd5b505050506040513d601f19601f820116820180604052508101906118899190614894565b6118939042614cf0565b815260200160018360018111156118ba57634e487b7160e01b600052602160045260246000fd5b146118c65760026118c9565b60005b60068111156118e857634e487b7160e01b600052602160045260246000fd5b90526001600160a01b0389811660009081526020818152604080832060c088810151855290835292819020855181546001600160a01b0319908116918716919091178255868401518051600180850180548516928a16929092179091558186015160028501558185015160038501556060808301516004860180546080808701516001600160a81b0319909216931515610100600160a81b03191693909317610100918d1682021790915560a0850151600588015598840151600687015560e084015160078701559783015160088601556101208301516009860180548616918b1691909117905561014090920151600a85018054909416981697909717909155868301518051600b84015593840151600c83015591830151600d82015582820151600e8201559190920151600f820155908301518051601083018054939492939092839160ff1916908381811115611a5157634e487b7160e01b600052602160045260246000fd5b021790555060208201516001808301919091556040830151600283015560608301516003808401919091556080840151600484015560a084015160058401805491151560ff1992831617905560c08501518051600686018054929590949193859316918490811115611ad357634e487b7160e01b600052602160045260246000fd5b021790555060208281015182546040808601516001600160a01b0316650100000000000265010000000000600160c81b031963ffffffff90941661010090810294909416610100600160c81b031990931692909217919091178455606085015160018086019190915560809095015160029094019390935560e086015160098601805491151560ff19928316179055908601518051600a870190815592810151600b87015592830151600c8601805494959394919390929190911690836003811115611baf57634e487b7160e01b600052602160045260246000fd5b0217905550606082015160038201556080808301516004830180546001600160a01b0319166001600160a01b0390921691909117905560a080840151600584015560c0938401516006938401559087015180516021880155602001516022870155860151602386015590850151602485015560e0850151602585018054919450925060ff1916906001908490811115611c5857634e487b7160e01b600052602160045260246000fd5b0217905550505060208083015160c084015160408051938401815260008452516302b0974d60e41b81526001600160a01b0390921692632b0974d092611ca4928d929091600401614ca4565b600060405180830381600087803b158015611cbe57600080fd5b505af1158015611cd2573d6000803e3d6000fd5b50505060c083015160a08401516040516317ba7d8560e01b81527f0d479c38716a0298633b1dbf1ce145a3fbd1d79ca4527de172afc3bad04a2ba760048201526001600160a01b038c16935063896ae9ba92919084906317ba7d859060240160206040518083038186803b158015611d4957600080fd5b505afa158015611d5d573d6000803e3d6000fd5b505050506040513d601f19601f82011682018060405250810190611d819190614561565b6040516001600160e01b031960e086901b16815260048101939093526001600160a01b039182166024840152166044820152606401600060405180830381600087803b158015611dd057600080fd5b505af1158015611de4573d6000803e3d6000fd5b50505050600160036000828254611dfb9190614cf0565b9091555050604051632c9f4b5b60e11b81527fb12a3847d47fefceb164b75823af125f9aa82b76938df0ddf08c04cd314ba37c60048201526001600160a01b0389169063593e96b69060240160206040518083038186803b158015611e5f57600080fd5b505afa158015611e73573d6000803e3d6000fd5b505050506040513d601f19601f82011682018060405250810190611e979190614561565b6001600160a01b031660408301526000816001811115611ec757634e487b7160e01b600052602160045260246000fd5b1415611f365781604001516001600160a01b031663df1eb6748360c001516040518263ffffffff1660e01b8152600401611f0391815260200190565b600060405180830381600087803b158015611f1d57600080fd5b505af1158015611f31573d6000803e3d6000fd5b505050505b60c0820151604080516001600160a01b038b16815260208101929092523382820152517f1dfc244cab0c3cc88645f305adf7c51524a495c4eca07e193a69f39152da8fb79181900360600190a1505050611f908282613abe565b505092915050565b60405163288c314960e21b81526001600160a01b0382811660048301526000919084169063a230c5249060240160206040518083038186803b158015611fdd57600080fd5b505afa158015611ff1573d6000803e3d6000fd5b505050506040513d601f19601f8201168201806040525081019061048e9190614605565b600061201f6142bc565b6001600160a01b0384166000818152602081815260408083208784529091528082209051634941d71d60e11b81527f6e9fd67c3f2ca4e2b4e4b45b33b985dc3a1bffcadea24d12440a5901f72217b56004820152909290639283ae3a9060240160206040518083038186803b15801561209757600080fd5b505afa1580156120ab573d6000803e3d6000fd5b505050506040513d601f19601f820116820180604052508101906120cf9190614894565b156120db5760016120de565b60005b9050600181600181111561210257634e487b7160e01b600052602160045260246000fd5b141561210d57612f12565b601282015460e0840152600282015460208401526040516317ba7d8560e01b81527f2207fd6117465cefcba0abc867150698c0464aa41a293ec29ca01b67a6350c3c60048201526001600160a01b038716906317ba7d859060240160206040518083038186803b15801561218057600080fd5b505afa158015612194573d6000803e3d6000fd5b505050506040513d601f19601f820116820180604052508101906121b89190614561565b6001600160a01b039081166060850152604051632c9f4b5b60e11b81527fb12a3847d47fefceb164b75823af125f9aa82b76938df0ddf08c04cd314ba37c60048201529087169063593e96b69060240160206040518083038186803b15801561222057600080fd5b505afa158015612234573d6000803e3d6000fd5b505050506040513d601f19601f820116820180604052508101906122589190614561565b6001600160a01b039081166080850152600a830154811660c0850152606084015160405163030bd86760e11b8152888316600482015260248101889052911690630617b0ce9060440160206040518083038186803b1580156122b957600080fd5b505afa1580156122cd573d6000803e3d6000fd5b505050506040513d601f19601f820116820180604052508101906122f19190614561565b6001600160a01b039081166101008501528681166000908152602081815260408083208984529091529020600101541661018084015260e083015142101561234c57604051635d68b4f160e01b815260040160405180910390fd5b6040516330490e9160e01b8152600481018690526001600160a01b038716906330490e9190602401600060405180830381600087803b15801561238e57600080fd5b505af11580156123a2573d6000803e3d6000fd5b5050604051634941d71d60e11b81527fccf4bb1047cabb77da550bb31bee75254c3f57ec1cfd0ea27fcac549b296120a6004820152606492506001600160a01b0389169150639283ae3a9060240160206040518083038186803b15801561240857600080fd5b505afa15801561241c573d6000803e3d6000fd5b505050506040513d601f19601f820116820180604052508101906124409190614894565b8461010001516001600160a01b03166124599190614d1c565b6124639190614d08565b610120840152604051634941d71d60e11b81527fda34ff95e06cbf2c9c32a559cd8aadd1a10104596417d62c03db2c1258df83d360048201526001600160a01b03871690639283ae3a9060240160206040518083038186803b1580156124c857600080fd5b505afa1580156124dc573d6000803e3d6000fd5b505050506040513d601f19601f820116820180604052508101906125009190614894565b156125a157604051634941d71d60e11b81527f64c49ee5084f4940c312104c41603e43791b03dad28152afd6eadb5b960a8a8760048201526001600160a01b03871690639283ae3a9060240160206040518083038186803b15801561256457600080fd5b505afa158015612578573d6000803e3d6000fd5b505050506040513d601f19601f8201168201806040525081019061259c9190614894565b61265e565b604051634941d71d60e11b81527f64c49ee5084f4940c312104c41603e43791b03dad28152afd6eadb5b960a8a8760048201526064906001600160a01b03881690639283ae3a9060240160206040518083038186803b15801561260357600080fd5b505afa158015612617573d6000803e3d6000fd5b505050506040513d601f19601f8201168201806040525081019061263b9190614894565b8461010001516001600160a01b03166126549190614d1c565b61265e9190614d08565b610140840181905260228301546101608501819052610120850151602086015191929161268b9190614cf0565b6126959190614cf0565b61269f9190614cf0565b8361010001516001600160a01b031610612efc5760258201805460ff19166004179055610120830151156127dd5782608001516001600160a01b031663ceb1bfa686886001600160a01b031663fd310d297f69a955ab31f501fa90dd9fe1b664a35d6405d643110370db4655d52ba39422f76040518263ffffffff1660e01b815260040161272f91815260200190565b60206040518083038186803b15801561274757600080fd5b505afa15801561275b573d6000803e3d6000fd5b505050506040513d601f19601f8201168201806040525081019061277f9190614561565b8661018001518761012001516040518563ffffffff1660e01b81526004016127aa9493929190614bdf565b600060405180830381600087803b1580156127c457600080fd5b505af11580156127d8573d6000803e3d6000fd5b505050505b610140830151156128f85782608001516001600160a01b031663ceb1bfa686886001600160a01b031663fd310d297f8987d08c67963e4cacd5e5936c122a968c66853d58299dd822c19422271098396040518263ffffffff1660e01b815260040161284a91815260200190565b60206040518083038186803b15801561286257600080fd5b505afa158015612876573d6000803e3d6000fd5b505050506040513d601f19601f8201168201806040525081019061289a9190614561565b8661018001518761014001516040518563ffffffff1660e01b81526004016128c59493929190614bdf565b600060405180830381600087803b1580156128df57600080fd5b505af11580156128f3573d6000803e3d6000fd5b505050505b6101608301511561297b5760808301518254610180850151610160860151604051636758dfd360e11b81526001600160a01b039485169463ceb1bfa694612948948c949190921692600401614bdf565b600060405180830381600087803b15801561296257600080fd5b505af1158015612976573d6000803e3d6000fd5b505050505b82608001516001600160a01b031663ceb1bfa6868560c001518661018001518761016001518861014001518961012001518a61010001516001600160a01b03166129c59190614d3b565b6129cf9190614d3b565b6129d99190614d3b565b6040518563ffffffff1660e01b81526004016129f89493929190614bdf565b600060405180830381600087803b158015612a1257600080fd5b505af1158015612a26573d6000803e3d6000fd5b50505050600482015460ff1615612d6a576006820154610100840151670de0b6b3a764000091612a5e916001600160a01b0316614d08565b612a689190614d1c565b60058301819055610200840181905260098301546004840154612a9f9289926001600160a01b039081169261010090041690613acd565b612ac6576025820180546003919060ff19166001835b021790555060009350505050610466565b6102008301516001600160a01b0387811660008181526001602090815260408083208b845282528083206009890154909516835293905282902092909255516317ba7d8560e01b8152600080516020614e4083398151915260048201526317ba7d859060240160206040518083038186803b158015612b4457600080fd5b505afa158015612b58573d6000803e3d6000fd5b505050506040513d601f19601f82011682018060405250810190612b7c9190614561565b6001600160a01b0390811660a0850152600483810154610100900482166101a08601819052845483166101c08701526040516317ba7d8560e01b8152600080516020614e40833981519152928101929092529163095ea7b391908916906317ba7d859060240160206040518083038186803b158015612bfa57600080fd5b505afa158015612c0e573d6000803e3d6000fd5b505050506040513d601f19601f82011682018060405250810190612c329190614561565b6102008601516040516001600160e01b031960e085901b1681526001600160a01b0390921660048301526024820152604401602060405180830381600087803b158015612c7e57600080fd5b505af1158015612c92573d6000803e3d6000fd5b505050506040513d601f19601f82011682018060405250810190612cb69190614605565b5060a0808401516101a08501516101c08601516040805194850181526102008801518552600b8701546020860152600c87015485820152600d8701546060860152600e870154608086015251632eae6d9960e11b81526001600160a01b0390931693635d5cdb3293612d33938c93909290918c9190600401614c04565b600060405180830381600087803b158015612d4d57600080fd5b505af1158015612d61573d6000803e3d6000fd5b50505050612e7b565b6040516317ba7d8560e01b8152600080516020614e4083398151915260048201526001600160a01b038716906317ba7d859060240160206040518083038186803b158015612db757600080fd5b505afa158015612dcb573d6000803e3d6000fd5b505050506040513d601f19601f82011682018060405250810190612def9190614561565b6001600160a01b0390811660a08501819052604051639a3eb32b60e01b815291881660048301526024820187905290639a3eb32b90604401602060405180830381600087803b158015612e4157600080fd5b505af1158015612e55573d6000803e3d6000fd5b505050506040513d601f19601f82011682018060405250810190612e799190614605565b505b6080830151610100840151604051630224f62b60e31b8152600481018890526001600160a01b039182166024820152911690631127b15890604401600060405180830381600087803b158015612ed057600080fd5b505af1158015612ee4573d6000803e3d6000fd5b5050505060258201805460ff19166005179055612f12565b6025820180546003919060ff1916600183612ab5565b60258201546040517ff854addaea7ab1ac33b2a81fdae355ba1b5600023b89719b7c224c866577421e91612f4f918991899160ff90911690614a38565b60405180910390a150600195945050505050565b6040516368c18beb60e01b815233600482015282906001600160a01b038216906368c18beb9060240160206040518083038186803b158015612fa457600080fd5b505afa158015612fb8573d6000803e3d6000fd5b505050506040513d601f19601f82011682018060405250810190612fdc9190614605565b80612feb5750612feb81613ebc565b6130255760405162461bcd60e51b815260206004820152600b60248201526a37b7363ca0b230b83a32b960a91b6044820152606401610737565b505050565b816000613036826136f4565b6001600160a01b03851660009081526001602090815260408083208784528252808320338452909152902054909150806130d15760405162461bcd60e51b815260206004820152603660248201527f466c65782046756e64696e673a3a72657472756e546f6b656e546f417070726f6044820152753b32b91d1d373790333ab732103a37903932ba3ab93760511b6064820152608401610737565b6001600160a01b038581166000908152602081815260408083208884529091529081902060048082015492516370a0823160e01b81523091810191909152909261010090920490911690839082906370a082319060240160206040518083038186803b15801561314057600080fd5b505afa158015613154573d6000803e3d6000fd5b505050506040513d601f19601f820116820180604052508101906131789190614894565b10156131ec5760405162461bcd60e51b815260206004820152603760248201527f466c65782046756e64696e673a3a72657472756e546f6b656e546f417070726f60448201527f7665723a3a496e73756666696369656e742046756e64730000000000000000006064820152608401610737565b6003602583015460ff16600681111561321557634e487b7160e01b600052602160045260246000fd5b1461327b5760405162461bcd60e51b815260206004820152603060248201527f466c65782046756e64696e673a3a72657472756e546f6b656e546f417070726f60448201526f3b32b91d1d31b0b73a103932ba3ab93760811b6064820152608401610737565b6001600160a01b0387811660009081526001602090815260408083208a8452825280832033808552925280832092909255905163a9059cbb60e01b81526004810191909152602481018590529082169063a9059cbb90604401602060405180830381600087803b1580156132ee57600080fd5b505af1158015613302573d6000803e3d6000fd5b505050506040513d601f19601f820116820180604052508101906133269190614605565b505050506133348282613abe565b50505050565b600060208181529281526040808220845291815281902080548251610160810184526001808401546001600160a01b039081168352600285015483880152600385015483870152600485015460ff8082161515606080870191909152610100928390048416608080880191909152600589015460a08089019190915260068a015460c089015260078a015460e089015260088a0154948801949094526009890154851661012080890191909152600a8a015486166101408901528a519485018b52600b8a01548552600c8a01549b85019b909b52600d890154848b0152600e89015491840191909152600f880154908301528751988901909752601086018054929095169793969095949284929091169081111561346857634e487b7160e01b600052602160045260246000fd5b600181111561348757634e487b7160e01b600052602160045260246000fd5b8152602001600182015481526020016002820154815260200160038201548152602001600482015481526020016005820160009054906101000a900460ff16151515158152602001600682016040518060a00160405290816000820160009054906101000a900460ff16600381111561351057634e487b7160e01b600052602160045260246000fd5b600381111561352f57634e487b7160e01b600052602160045260246000fd5b81528154610100810463ffffffff16602080840191909152650100000000009091046001600160a01b031660408084019190915260018401546060840152600290930154608090920191909152918352600984015460ff908116151584840152815160e081018352600a860180548252600b87015494820194909452600c860154948301949093928401911660038111156135da57634e487b7160e01b600052602160045260246000fd5b60038111156135f957634e487b7160e01b600052602160045260246000fd5b8152600382015460208083019190915260048301546001600160a01b03166040808401919091526005840154606084015260069093015460809092019190915291909252815180830190925260218501548252602285015490820152602384015460248501546025909501549394919390925060ff1688565b8161367d81336140c3565b6001600160a01b038316600090815260026020526040902061369f90836136d2565b613025576001600160a01b03831660009081526002602052604090206133349083614106565b6060600061048e8361411b565b6001600160a01b0381166000908152600183016020526040812054151561048e565b6040805160808101825260008082526020820181905291810182905260608101919091525a81600001818152505043826001600160a01b031663b21634826040518163ffffffff1660e01b815260040160206040518083038186803b15801561375c57600080fd5b505afa158015613770573d6000803e3d6000fd5b505050506040513d601f19601f820116820180604052508101906137949190614894565b14156137d55760405162461bcd60e51b815260206004820152601060248201526f1c99595b9d1c985b98de4819dd585c9960821b6044820152606401610737565b816001600160a01b03166310fdb0a26040518163ffffffff1660e01b8152600401600060405180830381600087803b15801561381057600080fd5b505af1158015613824573d6000803e3d6000fd5b50506040516372c6838f60e01b81527f1f2fd42ad6a6cacd573c4b212beb7a4e2499ad45d742a65337097f130e71daff6004820152600092506001600160a01b03851691506372c6838f9060240160206040518083038186803b15801561388a57600080fd5b505afa15801561389e573d6000803e3d6000fd5b505050506040513d601f19601f820116820180604052508101906138c29190614561565b90506001600160a01b0381166138de576000602083015261397a565b6001600160a01b038181166060840181905283516040516343a8a3f160e01b8152928616600484015260248301526000918291906343a8a3f190604401604080518083038186803b15801561393257600080fd5b505afa158015613946573d6000803e3d6000fd5b505050506040513d601f19601f8201168201806040525081019061396a9190614621565b9015156020860152604085015250505b50919050565b6060816139a45750506040805180820190915260018152600360fc1b602082015290565b8160005b81156139ce57806139b881614d7e565b91506139c79050600a83614d08565b91506139a8565b60008167ffffffffffffffff8111156139f757634e487b7160e01b600052604160045260246000fd5b6040519080825280601f01601f191660200182016040528015613a21576020820181803683370190505b5090505b8415613a9a57613a36600183614d3b565b9150613a43600a86614d99565b613a4e906030614cf0565b60f81b818381518110613a7157634e487b7160e01b600052603260045260246000fd5b60200101906001600160f81b031916908160001a905350613a93600a86614d08565b9450613a25565b949350505050565b6000815160001415613ab657506000919050565b506020015190565b613ac9828233614177565b5050565b6040516370a0823160e01b81526001600160a01b03848116600483015260009184918491908316906370a082319060240160206040518083038186803b158015613b1657600080fd5b505afa158015613b2a573d6000803e3d6000fd5b505050506040513d601f19601f82011682018060405250810190613b4e9190614894565b1080613bd95750604051636eb1769f60e11b81526001600160a01b03868116600483015230602483015284919083169063dd62ed3e9060440160206040518083038186803b158015613b9f57600080fd5b505afa158015613bb3573d6000803e3d6000fd5b505050506040513d601f19601f82011682018060405250810190613bd79190614894565b105b15613be8576000915050613a9a565b6000816001600160a01b031663dd62ed3e30896001600160a01b03166317ba7d85600080516020614e408339815191526040518263ffffffff1660e01b8152600401613c3691815260200190565b60206040518083038186803b158015613c4e57600080fd5b505afa158015613c62573d6000803e3d6000fd5b505050506040513d601f19601f82011682018060405250810190613c869190614561565b6040516001600160e01b031960e085901b1681526001600160a01b0392831660048201529116602482015260440160206040518083038186803b158015613ccc57600080fd5b505afa158015613ce0573d6000803e3d6000fd5b505050506040513d601f19601f82011682018060405250810190613d049190614894565b90506000613d128583614cf0565b6040516317ba7d8560e01b8152600080516020614e4083398151915260048201529091506001600160a01b038085169163095ea7b3918b16906317ba7d859060240160206040518083038186803b158015613d6c57600080fd5b505afa158015613d80573d6000803e3d6000fd5b505050506040513d601f19601f82011682018060405250810190613da49190614561565b6040516001600160e01b031960e084901b1681526001600160a01b03909116600482015260248101849052604401602060405180830381600087803b158015613dec57600080fd5b505af1158015613e00573d6000803e3d6000fd5b505050506040513d601f19601f82011682018060405250810190613e249190614605565b506040516323b872dd60e01b81526001600160a01b038881166004830152306024830152604482018790528416906323b872dd90606401602060405180830381600087803b158015613e7557600080fd5b505af1158015613e89573d6000803e3d6000fd5b505050506040513d601f19601f82011682018060405250810190613ead9190614605565b50600198975050505050505050565b600080826001600160a01b031663c19d93fb6040518163ffffffff1660e01b815260040160206040518083038186803b158015613ef857600080fd5b505afa158015613f0c573d6000803e3d6000fd5b505050506040513d601f19601f82011682018060405250810190613f309190614722565b6001811115613f4f57634e487b7160e01b600052602160045260246000fd5b1480156104665750816001600160a01b031663c67143666040518163ffffffff1660e01b815260040160206040518083038186803b158015613f9057600080fd5b505afa158015613fa4573d6000803e3d6000fd5b505050506040513d601f19601f82011682018060405250810190613fc89190614894565b1580614046575060405163288c314960e21b81523360048201526001600160a01b0383169063a230c5249060240160206040518083038186803b15801561400e57600080fd5b505afa158015614022573d6000803e3d6000fd5b505050506040513d601f19601f820116820180604052508101906140469190614605565b8061046657506040516368c18beb60e01b81523360048201526001600160a01b038316906368c18beb9060240160206040518083038186803b15801561408b57600080fd5b505afa15801561409f573d6000803e3d6000fd5b505050506040513d601f19601f820116820180604052508101906104669190614605565b6140cd8282611f98565b613ac95760405162461bcd60e51b815260206004820152600a60248201526937b7363ca6b2b6b132b960b11b6044820152606401610737565b600061048e836001600160a01b03841661426d565b60608160000180548060200260200160405190810160405280929190818152602001828054801561416b57602002820191906000526020600020905b815481526020019060010190808311614157575b50505050509050919050565b8160200151156142155781606001516001600160a01b0316635e5eb01384835a86516141a39190614d3b565b60408088015190516001600160e01b031960e087901b1681526001600160a01b03948516600482015293909216602484015260448301526064820152608401600060405180830381600087803b1580156141fc57600080fd5b505af1158015614210573d6000803e3d6000fd5b505050505b826001600160a01b031663d4f7af436040518163ffffffff1660e01b8152600401600060405180830381600087803b15801561425057600080fd5b505af1158015614264573d6000803e3d6000fd5b50505050505050565b60008181526001830160205260408120546142b457508154600181810184556000848152602080822090930184905584548482528286019093526040902091909155610466565b506000610466565b6040518061022001604052806142d061434f565b815260006020820181905260408201819052606082018190526080820181905260a0820181905260c0820181905260e08201819052610100820181905261012082018190526101408201819052610160820181905261018082018190526101a082018190526101c082018190526101e082018190526102009091015290565b60408051610100808201835260008083528351610160810185528181526020818101839052948101829052606081018290526080810182905260a0810182905260c0810182905260e081018290529182018190526101208201819052610140820152909182019081526020016143ed6040518060a0016040528060008152602001600081526020016000815260200160008152602001600081525090565b81526020016143fa614455565b815260200161441c604051806040016040528060008152602001600081525090565b815260200160008152602001600081526020016000600681111561445057634e487b7160e01b600052602160045260246000fd5b905290565b6040805161012081019091528060008152602001600081526020016000815260200160008152602001600081526020016000151581526020016144c16040805160a081019091528060008152600060208201819052604082018190526060820181905260809091015290565b8152600060208201526040016144506040518060e0016040528060008152602001600081526020016000600381111561450a57634e487b7160e01b600052602160045260246000fd5b81526020016000815260200160006001600160a01b0316815260200160008152602001600081525090565b803561454081614e02565b919050565b600060208284031215614556578081fd5b813561048e81614e02565b600060208284031215614572578081fd5b815161048e81614e02565b6000806040838503121561458f578081fd5b823561459a81614e02565b946020939093013593505050565b6000806000606084860312156145bc578081fd5b83356145c781614e02565b92506020840135915060408401356145de81614e02565b809150509250925092565b6000602082840312156145fa578081fd5b813561048e81614e17565b600060208284031215614616578081fd5b815161048e81614e17565b60008060408385031215614633578182fd5b825161463e81614e17565b6020939093015192949293505050565b60008060408385031215614660578182fd5b823561466b81614e02565b9150602083013561467b81614e02565b809150509250929050565b6000806040838503121561458f578182fd5b600080604083850312156146aa578182fd5b82356146b581614e02565b9150602083013561467b81614e32565b6000808284036104c08112156146d9578283fd5b83356146e481614e02565b92506104a0601f19820112156146f8578182fd5b506020830190509250929050565b600060208284031215614717578081fd5b813561048e81614e25565b600060208284031215614733578081fd5b815161048e81614e32565b60006020828403121561474f578081fd5b813561048e81614e32565b600060a0828403121561476b578081fd5b60405160a0810181811067ffffffffffffffff8211171561479a57634e487b7160e01b83526041600452602483fd5b60405282356147a881614e25565b8152602083013563ffffffff811681146147c0578283fd5b602082015260408301356147d381614e02565b6040820152606083810135908201526080928301359281019290925250919050565b600060e08284031215614806578081fd5b60405160e0810181811067ffffffffffffffff8211171561483557634e487b7160e01b83526041600452602483fd5b80604052508235815260208301356020820152604083013561485681614e25565b60408201526060838101359082015261487160808401614535565b608082015260a083013560a082015260c083013560c08201528091505092915050565b6000602082840312156148a5578081fd5b5051919050565b600081518084526148c4816020860160208601614d52565b601f01601f19169290920160200192915050565b600281106148e8576148e8614dd9565b9052565b600781106148e8576148e8614dd9565b805161490781614def565b825260208181015163ffffffff16908301526040808201516001600160a01b03169083015260608082015190830152608090810151910152565b61494c8282516148d8565b6020810151602083015260408101516040830152606081015160608301526080810151608083015260a0810151151560a083015260c081015161499260c08401826148fc565b5060e081015180151561016084015250610100810151613025610180840182805182526020810151602083015260408101516149cd81614def565b6040830152606081810151908301526080808201516001600160a01b03169083015260a0808201519083015260c090810151910152565b6b466c657846756e64696e672360a01b815260008251614a2b81600c850160208701614d52565b91909101600c0192915050565b6001600160a01b03841681526020810183905260608101613a9a60408301846148ec565b6001600160a01b0389811682528851166020820152610520810160208901516040830152604089015160608301526060890151614a9d608084018215159052565b5060808901516001600160a01b03811660a08401525060a089015160c083015260c089015160e083015260e08901516101008181850152808b01519150506101208181850152808b0151915050610140614b01818501836001600160a01b03169052565b8a01516001600160a01b031661016084015250875161018083015260208801516101a083015260408801516101c083015260608801516101e08301526080880151610200830152614b56610220830188614941565b855161048083015260208601516104a0830152846104c0830152836104e0830152614b856105008301846148ec565b9998505050505050505050565b6020808252825182820181905260009190848201906040850190845b81811015614bd35783516001600160a01b031683529284019291840191600101614bae565b50909695505050505050565b9384526001600160a01b03928316602085015291166040830152606082015260800190565b6001600160a01b03868116825285811660208084019190915290851660408301526060820184905261012082019060808301908460005b6005811015614c5857815184529282019290820190600101614c3b565b505050509695505050505050565b600060018060a01b038087168352808616602084015260806040840152614c9060808401866148ac565b915080841660608401525095945050505050565b60018060a01b0384168152826020820152606060408201526000614ccb60608301846148ac565b95945050505050565b6020810161046682846148d8565b6020810161046682846148ec565b60008219821115614d0357614d03614dad565b500190565b600082614d1757614d17614dc3565b500490565b6000816000190483118215151615614d3657614d36614dad565b500290565b600082821015614d4d57614d4d614dad565b500390565b60005b83811015614d6d578181015183820152602001614d55565b838111156133345750506000910152565b6000600019821415614d9257614d92614dad565b5060010190565b600082614da857614da8614dc3565b500690565b634e487b7160e01b600052601160045260246000fd5b634e487b7160e01b600052601260045260246000fd5b634e487b7160e01b600052602160045260246000fd5b60048110614dff57614dff614dd9565b50565b6001600160a01b0381168114614dff57600080fd5b8015158114614dff57600080fd5b60048110614dff57600080fd5b60028110614dff57600080fdfeb0326f8dfc913f537596953a938551c86ac8fe0da74c9a8cd0ee660e627dccc857901982635f8a470a3648422f8f769cf08dc2057489be5bf0099fcb44f7d43ca264697066735822122068d30f5afebe6e961b4e98a8ccf691494294916f93af0b6f7e19271bd7faeb3164736f6c63430008040033",
  "linkReferences": {},
  "deployedLinkReferences": {}
}