{
  "_format": "hh-sol-artifact-1",
  "contractName": "FlexVesting",
  "sourceName": "contracts/flex/adatpers/FlexVesting.sol",
  "abi": [
    {
      "inputs": [],
      "stateMutability": "nonpayable",
      "type": "constructor"
    },
    {
      "inputs": [],
      "name": "InvalidStart",
      "type": "error"
    },
    {
      "inputs": [],
      "name": "InvalidStepSetting",
      "type": "error"
    },
    {
      "inputs": [],
      "name": "NotOwner",
      "type": "error"
    },
    {
      "inputs": [],
      "name": "NotVestReceiver",
      "type": "error"
    },
    {
      "anonymous": false,
      "inputs": [
        {
          "indexed": true,
          "internalType": "uint256",
          "name": "vestId",
          "type": "uint256"
        },
        {
          "indexed": true,
          "internalType": "uint256",
          "name": "ownerAmount",
          "type": "uint256"
        },
        {
          "indexed": true,
          "internalType": "uint256",
          "name": "recipientAmount",
          "type": "uint256"
        },
        {
          "indexed": false,
          "internalType": "address",
          "name": "token",
          "type": "address"
        },
        {
          "indexed": false,
          "internalType": "bool",
          "name": "toBentoBox",
          "type": "bool"
        }
      ],
      "name": "CancelVesting",
      "type": "event"
    },
    {
      "anonymous": false,
      "inputs": [
        {
          "indexed": true,
          "internalType": "uint256",
          "name": "vestId",
          "type": "uint256"
        },
        {
          "indexed": false,
          "internalType": "address",
          "name": "token",
          "type": "address"
        },
        {
          "indexed": true,
          "internalType": "address",
          "name": "recipient",
          "type": "address"
        },
        {
          "indexed": false,
          "internalType": "uint32",
          "name": "start",
          "type": "uint32"
        },
        {
          "indexed": false,
          "internalType": "uint32",
          "name": "cliffDuration",
          "type": "uint32"
        },
        {
          "indexed": false,
          "internalType": "uint32",
          "name": "stepDuration",
          "type": "uint32"
        },
        {
          "indexed": false,
          "internalType": "uint32",
          "name": "steps",
          "type": "uint32"
        },
        {
          "indexed": false,
          "internalType": "uint128",
          "name": "cliffShares",
          "type": "uint128"
        },
        {
          "indexed": false,
          "internalType": "uint128",
          "name": "stepShares",
          "type": "uint128"
        },
        {
          "indexed": false,
          "internalType": "bytes32",
          "name": "proposalId",
          "type": "bytes32"
        }
      ],
      "name": "CreateVesting",
      "type": "event"
    },
    {
      "anonymous": false,
      "inputs": [
        {
          "indexed": true,
          "internalType": "uint256",
          "name": "vestId",
          "type": "uint256"
        },
        {
          "indexed": true,
          "internalType": "address",
          "name": "newOwner",
          "type": "address"
        }
      ],
      "name": "LogUpdateOwner",
      "type": "event"
    },
    {
      "anonymous": false,
      "inputs": [
        {
          "indexed": true,
          "internalType": "address",
          "name": "previousOwner",
          "type": "address"
        },
        {
          "indexed": true,
          "internalType": "address",
          "name": "newOwner",
          "type": "address"
        }
      ],
      "name": "OwnershipTransferred",
      "type": "event"
    },
    {
      "anonymous": false,
      "inputs": [
        {
          "indexed": true,
          "internalType": "uint256",
          "name": "vestId",
          "type": "uint256"
        },
        {
          "indexed": true,
          "internalType": "address",
          "name": "token",
          "type": "address"
        },
        {
          "indexed": true,
          "internalType": "uint256",
          "name": "amount",
          "type": "uint256"
        },
        {
          "indexed": false,
          "internalType": "bool",
          "name": "toBentoBox",
          "type": "bool"
        }
      ],
      "name": "Withdraw",
      "type": "event"
    },
    {
      "inputs": [],
      "name": "PERCENTAGE_PRECISION",
      "outputs": [
        {
          "internalType": "uint256",
          "name": "",
          "type": "uint256"
        }
      ],
      "stateMutability": "view",
      "type": "function"
    },
    {
      "inputs": [],
      "name": "claimOwnership",
      "outputs": [],
      "stateMutability": "nonpayable",
      "type": "function"
    },
    {
      "inputs": [
        {
          "internalType": "contract DaoRegistry",
          "name": "dao",
          "type": "address"
        },
        {
          "internalType": "address",
          "name": "recipientAddr",
          "type": "address"
        },
        {
          "internalType": "bytes32",
          "name": "proposalId",
          "type": "bytes32"
        }
      ],
      "name": "createVesting",
      "outputs": [
        {
          "internalType": "uint256",
          "name": "depositedShares",
          "type": "uint256"
        },
        {
          "internalType": "uint256",
          "name": "vestId",
          "type": "uint256"
        },
        {
          "internalType": "uint128",
          "name": "stepShares",
          "type": "uint128"
        },
        {
          "internalType": "uint128",
          "name": "cliffShares",
          "type": "uint128"
        }
      ],
      "stateMutability": "payable",
      "type": "function"
    },
    {
      "inputs": [
        {
          "internalType": "bytes[]",
          "name": "data",
          "type": "bytes[]"
        }
      ],
      "name": "multicall",
      "outputs": [
        {
          "internalType": "bytes[]",
          "name": "results",
          "type": "bytes[]"
        }
      ],
      "stateMutability": "payable",
      "type": "function"
    },
    {
      "inputs": [],
      "name": "owner",
      "outputs": [
        {
          "internalType": "address",
          "name": "",
          "type": "address"
        }
      ],
      "stateMutability": "view",
      "type": "function"
    },
    {
      "inputs": [],
      "name": "pendingOwner",
      "outputs": [
        {
          "internalType": "address",
          "name": "",
          "type": "address"
        }
      ],
      "stateMutability": "view",
      "type": "function"
    },
    {
      "inputs": [
        {
          "internalType": "address",
          "name": "_fetcher",
          "type": "address"
        }
      ],
      "name": "setTokenURIFetcher",
      "outputs": [],
      "stateMutability": "nonpayable",
      "type": "function"
    },
    {
      "inputs": [],
      "name": "tokenURIFetcher",
      "outputs": [
        {
          "internalType": "address",
          "name": "",
          "type": "address"
        }
      ],
      "stateMutability": "view",
      "type": "function"
    },
    {
      "inputs": [
        {
          "internalType": "address",
          "name": "newOwner",
          "type": "address"
        },
        {
          "internalType": "bool",
          "name": "direct",
          "type": "bool"
        },
        {
          "internalType": "bool",
          "name": "renounce",
          "type": "bool"
        }
      ],
      "name": "transferOwnership",
      "outputs": [],
      "stateMutability": "nonpayable",
      "type": "function"
    },
    {
      "inputs": [
        {
          "internalType": "uint256",
          "name": "vestId",
          "type": "uint256"
        },
        {
          "internalType": "address",
          "name": "newOwner",
          "type": "address"
        }
      ],
      "name": "updateOwner",
      "outputs": [],
      "stateMutability": "nonpayable",
      "type": "function"
    },
    {
      "inputs": [
        {
          "internalType": "uint256",
          "name": "vestId",
          "type": "uint256"
        }
      ],
      "name": "vestBalance",
      "outputs": [
        {
          "internalType": "uint256",
          "name": "",
          "type": "uint256"
        }
      ],
      "stateMutability": "view",
      "type": "function"
    },
    {
      "inputs": [],
      "name": "vestIds",
      "outputs": [
        {
          "internalType": "uint256",
          "name": "",
          "type": "uint256"
        }
      ],
      "stateMutability": "view",
      "type": "function"
    },
    {
      "inputs": [
        {
          "internalType": "uint256",
          "name": "",
          "type": "uint256"
        }
      ],
      "name": "vests",
      "outputs": [
        {
          "internalType": "bytes32",
          "name": "proposalId",
          "type": "bytes32"
        },
        {
          "internalType": "address",
          "name": "owner",
          "type": "address"
        },
        {
          "internalType": "address",
          "name": "recipient",
          "type": "address"
        },
        {
          "internalType": "address",
          "name": "token",
          "type": "address"
        },
        {
          "internalType": "uint32",
          "name": "start",
          "type": "uint32"
        },
        {
          "internalType": "uint32",
          "name": "cliffDuration",
          "type": "uint32"
        },
        {
          "internalType": "uint32",
          "name": "stepDuration",
          "type": "uint32"
        },
        {
          "internalType": "uint32",
          "name": "steps",
          "type": "uint32"
        },
        {
          "internalType": "uint128",
          "name": "cliffShares",
          "type": "uint128"
        },
        {
          "internalType": "uint128",
          "name": "stepShares",
          "type": "uint128"
        },
        {
          "internalType": "uint128",
          "name": "claimed",
          "type": "uint128"
        }
      ],
      "stateMutability": "view",
      "type": "function"
    },
    {
      "inputs": [],
      "name": "wETH",
      "outputs": [
        {
          "internalType": "address",
          "name": "",
          "type": "address"
        }
      ],
      "stateMutability": "view",
      "type": "function"
    },
    {
      "inputs": [
        {
          "internalType": "contract DaoRegistry",
          "name": "dao",
          "type": "address"
        },
        {
          "internalType": "uint256",
          "name": "vestId",
          "type": "uint256"
        }
      ],
      "name": "withdraw",
      "outputs": [],
      "stateMutability": "nonpayable",
      "type": "function"
    }
  ],
  "bytecode": "0x60a060405234801561001057600080fd5b50600080546001600160a01b0319163390811782556040519091907f8be0079c531659141344cd1fd0a4f28419497f9722a3daafe3b4186f6b6457e0908290a36000608081905260016004556124bc610073823960006103d201526124bc6000f3fe6080604052600436106100e85760003560e01c80637192711f1161008a578063e256888f11610059578063e256888f14610384578063e30c3978146103a0578063f2428621146103c0578063f3fef3a3146103f457600080fd5b80637192711f146103045780638da5cb5b14610324578063ac9650d814610344578063b3a2b2cf1461036457600080fd5b80632bcea736116100c65780632bcea7361461017a5780633ae9bc03146101905780634e71e0c8146101d257806351def556146101e757600080fd5b8063078dfbe7146100ed57806307d88aad1461010f57806319f771711461014c575b600080fd5b3480156100f957600080fd5b5061010d610108366004611dcc565b610414565b005b34801561011b57600080fd5b5060025461012f906001600160a01b031681565b6040516001600160a01b0390911681526020015b60405180910390f35b34801561015857600080fd5b5061016c6101673660046120ee565b610558565b604051908152602001610143565b34801561018657600080fd5b5061016c60045481565b6101a361019e366004611fda565b610636565b6040805194855260208501939093526001600160801b0391821692840192909252166060820152608001610143565b3480156101de57600080fd5b5061010d610fcd565b3480156101f357600080fd5b5061028f6102023660046120ee565b600360208190526000918252604090912080546001820154600283015493830154600484015460059094015492946001600160a01b0392831694908316939282169263ffffffff600160a01b8404811693600160c01b8104821693600160e01b909104821692918116916001600160801b0364010000000090920482169181811691600160801b9004168b565b604080519b8c526001600160a01b039a8b1660208d0152988a16988b019890985295909716606089015263ffffffff938416608089015291831660a0880152821660c08701521660e08501526001600160801b0392831661010085015282166101208401521661014082015261016001610143565b34801561031057600080fd5b5061010d61031f36600461211e565b61108a565b34801561033057600080fd5b5060005461012f906001600160a01b031681565b610357610352366004611f4e565b611115565b60405161014391906121f3565b34801561037057600080fd5b5061010d61037f366004611d94565b611297565b34801561039057600080fd5b5061016c670de0b6b3a764000081565b3480156103ac57600080fd5b5060015461012f906001600160a01b031681565b3480156103cc57600080fd5b5061012f7f000000000000000000000000000000000000000000000000000000000000000081565b34801561040057600080fd5b5061010d61040f36600461201a565b611313565b6000546001600160a01b031633146104735760405162461bcd60e51b815260206004820181905260248201527f4f776e61626c653a2063616c6c6572206973206e6f7420746865206f776e657260448201526064015b60405180910390fd5b8115610536576001600160a01b03831615158061048d5750805b6104d15760405162461bcd60e51b81526020600482015260156024820152744f776e61626c653a207a65726f206164647265737360581b604482015260640161046a565b600080546040516001600160a01b03808716939216917f8be0079c531659141344cd1fd0a4f28419497f9722a3daafe3b4186f6b6457e091a3600080546001600160a01b0385166001600160a01b031991821617909155600180549091169055505050565b600180546001600160a01b0385166001600160a01b0319909116179055505050565b60008181526003602081815260408084208151610160810183528154815260018201546001600160a01b0390811694820194909452600282015484169281019290925292830154918216606082015263ffffffff600160a01b830481166080830152600160c01b8304811660a0830152600160e01b909204821660c0820152600483015491821660e08201526001600160801b036401000000009092048216610100820152600590920154808216610120840152600160801b9004166101408201819052610625826114e6565b61062f91906123c5565b9392505050565b6000806000806106446119c9565b6040516317ba7d8560e01b81527fb0326f8dfc913f537596953a938551c86ac8fe0da74c9a8cd0ee660e627dccc860048201526001600160a01b038916906317ba7d859060240160206040518083038186803b1580156106a357600080fd5b505afa1580156106b7573d6000803e3d6000fd5b505050506040513d601f19601f820116820180604052508101906106db9190611db0565b6001600160a01b0316610200820181905260c08201819052604051630613e02360e31b815263309f011890610718908b908a908c906004016121d0565b60206040518083038186803b15801561073057600080fd5b505afa158015610744573d6000803e3d6000fd5b505050506040513d601f19601f820116820180604052508101906107689190611fbe565b6107e45760405162461bcd60e51b815260206004820152604160248201527f56657374696e673a3a63726561746556657374696e673a3a526563697069656e60448201527f74206e6f7420656c696769626c65206f6620746869732070726f706f73616c496064820152601960fa1b608482015260a40161046a565b8060c001516001600160a01b0316636cb4e9eb89888a6040518463ffffffff1660e01b8152600401610818939291906121d0565b60206040518083038186803b15801561083057600080fd5b505afa158015610844573d6000803e3d6000fd5b505050506040513d601f19601f820116820180604052508101906108689190611fbe565b156108c55760405162461bcd60e51b815260206004820152602760248201527f56657374696e673a3a63726561746556657374696e673a3a416c72656164792060448201526618dc99585d195960ca1b606482015260840161046a565b6040516317ba7d8560e01b81527f7a8526bca00f0726b2fab8c3bfd5b00bfa84d07f111e48263b13de605eefcdda60048201526001600160a01b038916906317ba7d859060240160206040518083038186803b15801561092457600080fd5b505afa158015610938573d6000803e3d6000fd5b505050506040513d601f19601f8201168201806040525081019061095c9190611db0565b6001600160a01b0390811660e083015260c08201516040516308c8585360e11b8152911690631190b0a690610999908b908a908c906004016121d0565b604080518083038186803b1580156109b057600080fd5b505afa1580156109c4573d6000803e3d6000fd5b505050506040513d601f19601f820116820180604052508101906109e8919061214d565b5061014082015260e0810151604051632fd2666560e21b81526001600160a01b038a81166004830152602482018990529091169063bf499994906044016105206040518083038186803b158015610a3e57600080fd5b505afa158015610a52573d6000803e3d6000fd5b505050506040513d601f19601f82011682018060405250810190610a769190611e16565b50505050610220850182905250610240840182905260a09091015160809091015111159050610ab85760405163349db54560e21b815260040160405180910390fd5b610220810151604001511580610ad5575061022081015160600151155b15610af35760405163349db54560e21b815260040160405180910390fd5b610b15888261024001516080015183610200015130856101400151600061158a565b6020820152610220810151606081015161024083015160a00151608090920151909190610b4290826123c5565b8360200151610b5191906123a6565b610b5b9190612386565b610b659190612386565b6001600160801b031660608083018290526102208301510151610b87916123a6565b8160200151610b9691906123c5565b6001600160801b0316608082015260048054906000610bb48361240c565b91905055816040018181525050604051806101600160405280878152602001336001600160a01b03168152602001886001600160a01b03168152602001826102400151608001516001600160a01b031681526020018261022001516000015163ffffffff1681526020018261022001516020015163ffffffff1681526020018261022001516040015163ffffffff1681526020018261022001516060015163ffffffff16815260200182608001516001600160801b0316815260200182606001516001600160801b0316815260200160006001600160801b031681525060036000836040015181526020019081526020016000206000820151816000015560208201518160010160006101000a8154816001600160a01b0302191690836001600160a01b0316021790555060408201518160020160006101000a8154816001600160a01b0302191690836001600160a01b0316021790555060608201518160030160006101000a8154816001600160a01b0302191690836001600160a01b0316021790555060808201518160030160146101000a81548163ffffffff021916908363ffffffff16021790555060a08201518160030160186101000a81548163ffffffff021916908363ffffffff16021790555060c082015181600301601c6101000a81548163ffffffff021916908363ffffffff16021790555060e08201518160040160006101000a81548163ffffffff021916908363ffffffff1602179055506101008201518160040160046101000a8154816001600160801b0302191690836001600160801b031602179055506101208201518160050160006101000a8154816001600160801b0302191690836001600160801b031602179055506101408201518160050160106101000a8154816001600160801b0302191690836001600160801b031602179055509050508060c001516001600160a01b031663560dbdd789888a6040518463ffffffff1660e01b8152600401610e96939291906121d0565b602060405180830381600087803b158015610eb057600080fd5b505af1158015610ec4573d6000803e3d6000fd5b505050506040513d601f19601f82011682018060405250810190610ee89190611fbe565b50866001600160a01b031681604001517f4c51f0095be9553b8e5eadbc42f96ab0b0c6526566307069cfcbecc63ea41c528361024001516080015184610220015160000151856102200151602001518661022001516040015187610220015160600151886080015189606001518f604051610fbb9897969594939291906001600160a01b0398909816885263ffffffff968716602089015294861660408801529285166060870152931660808501526001600160801b0392831660a085015290911660c083015260e08201526101000190565b60405180910390a35093509350935093565b6001546001600160a01b03163381146110285760405162461bcd60e51b815260206004820181905260248201527f4f776e61626c653a2063616c6c657220213d2070656e64696e67206f776e6572604482015260640161046a565b600080546040516001600160a01b03808516939216917f8be0079c531659141344cd1fd0a4f28419497f9722a3daafe3b4186f6b6457e091a3600080546001600160a01b039092166001600160a01b0319928316179055600180549091169055565b600082815260036020526040902060018101546001600160a01b031633146110c5576040516330cd747160e01b815260040160405180910390fd5b6001810180546001600160a01b0319166001600160a01b03841690811790915560405184907fca0251ba80971adc7e92434b097ca40450b2a317013c51c5c5cb6ae74500bb0090600090a3505050565b60608167ffffffffffffffff81111561113e57634e487b7160e01b600052604160045260246000fd5b60405190808252806020026020018201604052801561117157816020015b606081526020019060019003908161115c5790505b50905060005b8281101561129057600080308686858181106111a357634e487b7160e01b600052603260045260246000fd5b90506020028101906111b59190612267565b6040516111c39291906121c0565b600060405180830381855af49150503d80600081146111fe576040519150601f19603f3d011682016040523d82523d6000602084013e611203565b606091505b50915091508161124f5760448151101561121c57600080fd5b600481019050808060200190518101906112369190612045565b60405162461bcd60e51b815260040161046a9190612254565b8084848151811061127057634e487b7160e01b600052603260045260246000fd5b6020026020010181905250505080806112889061240c565b915050611177565b5092915050565b6000546001600160a01b031633146112f15760405162461bcd60e51b815260206004820181905260248201527f4f776e61626c653a2063616c6c6572206973206e6f7420746865206f776e6572604482015260640161046a565b600280546001600160a01b0319166001600160a01b0392909216919091179055565b600081815260036020526040902060028101546001600160a01b031633811461134f5760405163e1c6117160e01b815260040160405180910390fd5b600582015460408051610160810182528454815260018501546001600160a01b039081166020830152600286015481169282019290925260038501549182166060820152600160a01b820463ffffffff9081166080830152600160c01b8304811660a0830152600160e01b909204821660c0820152600485015491821660e08201526001600160801b036401000000009092048216610100820152818316610120820152600160801b909204166101408201819052600091611410906114e6565b61141a91906123c5565b905080611428575050505050565b808360050160108282829054906101000a90046001600160801b031661144e9190612324565b92506101000a8154816001600160801b0302191690836001600160801b03160217905550611498858460030160009054906101000a90046001600160a01b031630858560006117f6565b60038301546040516000815282916001600160a01b03169086907fff942d249898505febb2a9a00118e27567c084b9497d0aa3ba5e332c235b4f389060200160405180910390a45050505050565b6000808260a0015183608001516114fd9190612367565b63ffffffff169050804210156115135750919050565b600061151f82426123c5565b9050600061154c8560e0015163ffffffff168660c0015163ffffffff16846115479190612386565b6119b3565b9050808561012001516001600160801b031661156891906123a6565b8561010001516001600160801b0316611581919061234f565b95945050505050565b6040516317ba7d8560e01b81527fdfea78be99560632cc4c199ca1b0d68ffe0bbbb07b685976cefc8820374ac73a600482015260009081906001600160a01b038916906317ba7d859060240160206040518083038186803b1580156115ee57600080fd5b505afa158015611602573d6000803e3d6000fd5b505050506040513d601f19601f820116820180604052508101906116269190611db0565b9050821561173057604051636d289ce560e11b81526001600160a01b038881166004830152602482018690526000604483015282169063da5139ca9060640160206040518083038186803b15801561167d57600080fd5b505afa158015611691573d6000803e3d6000fd5b505050506040513d601f19601f820116820180604052508101906116b59190612106565b604051633c6340f360e21b81526001600160a01b03898116600483015288811660248301528781166044830152606482018390529193509082169063f18d03cc90608401600060405180830381600087803b15801561171357600080fd5b505af1158015611727573d6000803e3d6000fd5b505050506117eb565b6001600160a01b03808216906302b9446c90891615611750576000611752565b855b6040516001600160e01b031960e084901b1681526001600160a01b03808c166004830152808b16602483015289166044820152606481018890526000608482015260a40160408051808303818588803b1580156117ae57600080fd5b505af11580156117c2573d6000803e3d6000fd5b50505050506040513d601f19601f820116820180604052508101906117e79190612171565b9250505b509695505050505050565b6040516317ba7d8560e01b81527fdfea78be99560632cc4c199ca1b0d68ffe0bbbb07b685976cefc8820374ac73a60048201526000906001600160a01b038816906317ba7d859060240160206040518083038186803b15801561185857600080fd5b505afa15801561186c573d6000803e3d6000fd5b505050506040513d601f19601f820116820180604052508101906118909190611db0565b9050811561190f57604051633c6340f360e21b81526001600160a01b038781166004830152868116602483015285811660448301526064820185905282169063f18d03cc90608401600060405180830381600087803b1580156118f257600080fd5b505af1158015611906573d6000803e3d6000fd5b505050506119aa565b60405163097da6d360e41b81526001600160a01b0387811660048301528681166024830152858116604483015260006064830152608482018590528216906397da6d309060a4016040805180830381600087803b15801561196f57600080fd5b505af1158015611983573d6000803e3d6000fd5b505050506040513d601f19601f820116820180604052508101906119a79190612171565b50505b50505050505050565b60008183106119c2578161062f565b5090919050565b60405180610260016040528060008152602001600081526020016000815260200160006001600160801b0316815260200160006001600160801b0316815260200160006001600160801b0316815260200160006001600160a01b0316815260200160006001600160a01b0316815260200160008152602001600081526020016000815260200160006001600160a01b031681526020016000815260200160008152602001600081526020016000815260200160006001600160a01b03168152602001611abd6040518060a0016040528060008152602001600081526020016000815260200160008152602001600081525090565b8152604080516101608101825260008082526020828101829052928201819052606082018190526080820181905260a0820181905260c0820181905260e082018190526101008201819052610120820181905261014082015291015290565b8051611b2781612453565b919050565b8051611b278161246b565b805160028110611b2757600080fd5b805160078110611b2757600080fd5b600060a08284031215611b66578081fd5b611b6e6122b3565b90508151611b7b81612479565b8152602082015163ffffffff81168114611b9457600080fd5b60208201526040820151611ba781612453565b80604083015250606082015160608201526080820151608082015292915050565b60006102608284031215611bda578081fd5b611be26122dc565b9050611bed82611b37565b815260208201516020820152604082015160408201526060820151606082015260808201516080820152611c2360a08301611b2c565b60a0820152611c358360c08401611b55565b60c0820152611c476101608301611b2c565b60e0820152611c5a836101808401611c66565b61010082015292915050565b600060e08284031215611c77578081fd5b60405160e0810181811067ffffffffffffffff82111715611c9a57611c9a61243d565b806040525080915082518152602083015160208201526040830151611cbe81612479565b604082015260608381015190820152611cd960808401611b1c565b608082015260a083015160a082015260c083015160c08201525092915050565b600060408284031215611d0a578081fd5b6040516040810181811067ffffffffffffffff82111715611d2d57611d2d61243d565b604052825181526020928301519281019290925250919050565b600060a08284031215611d58578081fd5b611d606122b3565b9050815181526020820151602082015260408201516040820152606082015160608201526080820151608082015292915050565b600060208284031215611da5578081fd5b813561062f81612453565b600060208284031215611dc1578081fd5b815161062f81612453565b600080600060608486031215611de0578182fd5b8335611deb81612453565b92506020840135611dfb8161246b565b91506040840135611e0b8161246b565b809150509250925092565b600080600080600080600080888a03610520811215611e33578687fd5b8951611e3e81612453565b9850610160601f198201811315611e53578788fd5b611e5b612300565b9150611e6960208c01611b1c565b825260408b0151602083015260608b01516040830152611e8b60808c01611b2c565b6060830152611e9c60a08c01611b1c565b608083015260c08b015160a083015260e08b015160c0830152610100808c015160e0840152610120808d0151828501526101409150611edc828e01611b1c565b90840152611eeb8c8301611b1c565b90830152509650611f008a6101808b01611d47565b9550611f108a6102208b01611bc8565b9450611f208a6104808b01611cf9565b93506104c089015192506104e08901519150611f3f6105008a01611b46565b90509295985092959890939650565b60008060208385031215611f60578182fd5b823567ffffffffffffffff80821115611f77578384fd5b818501915085601f830112611f8a578384fd5b813581811115611f98578485fd5b8660208260051b8501011115611fac578485fd5b60209290920196919550909350505050565b600060208284031215611fcf578081fd5b815161062f8161246b565b600080600060608486031215611fee578081fd5b8335611ff981612453565b9250602084013561200981612453565b929592945050506040919091013590565b6000806040838503121561202c578182fd5b823561203781612453565b946020939093013593505050565b600060208284031215612056578081fd5b815167ffffffffffffffff8082111561206d578283fd5b818401915084601f830112612080578283fd5b8151818111156120925761209261243d565b604051601f8201601f19908116603f011681019083821181831017156120ba576120ba61243d565b816040528281528760208487010111156120d2578586fd5b6120e38360208301602088016123dc565b979650505050505050565b6000602082840312156120ff578081fd5b5035919050565b600060208284031215612117578081fd5b5051919050565b60008060408385031215612130578182fd5b82359150602083013561214281612453565b809150509250929050565b6000806040838503121561215f578182fd5b8251915060208301516121428161246b565b60008060408385031215612183578182fd5b505080516020909101519092909150565b600081518084526121ac8160208601602086016123dc565b601f01601f19169290920160200192915050565b8183823760009101908152919050565b6001600160a01b0393841681526020810192909252909116604082015260600190565b6000602080830181845280855180835260408601915060408160051b8701019250838701855b8281101561224757603f19888603018452612235858351612194565b94509285019290850190600101612219565b5092979650505050505050565b60208152600061062f6020830184612194565b6000808335601e1984360301811261227d578283fd5b83018035915067ffffffffffffffff821115612297578283fd5b6020019150368190038213156122ac57600080fd5b9250929050565b60405160a0810167ffffffffffffffff811182821017156122d6576122d661243d565b60405290565b604051610120810167ffffffffffffffff811182821017156122d6576122d661243d565b604051610160810167ffffffffffffffff811182821017156122d6576122d661243d565b60006001600160801b0380831681851680830382111561234657612346612427565b01949350505050565b6000821982111561236257612362612427565b500190565b600063ffffffff80831681851680830382111561234657612346612427565b6000826123a157634e487b7160e01b81526012600452602481fd5b500490565b60008160001904831182151516156123c0576123c0612427565b500290565b6000828210156123d7576123d7612427565b500390565b60005b838110156123f75781810151838201526020016123df565b83811115612406576000848401525b50505050565b600060001982141561242057612420612427565b5060010190565b634e487b7160e01b600052601160045260246000fd5b634e487b7160e01b600052604160045260246000fd5b6001600160a01b038116811461246857600080fd5b50565b801515811461246857600080fd5b6004811061246857600080fdfea26469706673582212203a01126b28c1049cd8c505998cbce30ee06c35b01027d6da35d0c351ff38e8d864736f6c63430008040033",
  "linkReferences": {},
  "deployedLinkReferences": {}
}