{
  "_format": "hh-sol-artifact-1",
  "contractName": "FundRaiseAdapterContract",
  "sourceName": "contracts/adapters/FundRaise.sol",
  "abi": [
    {
      "inputs": [],
      "name": "InvalidParamsSetting",
      "type": "error"
    },
    {
      "anonymous": false,
      "inputs": [
        {
          "indexed": false,
          "internalType": "address",
          "name": "daoAddr",
          "type": "address"
        },
        {
          "indexed": false,
          "internalType": "bytes32",
          "name": "proposalId",
          "type": "bytes32"
        }
      ],
      "name": "ProposalCreated",
      "type": "event"
    },
    {
      "anonymous": false,
      "inputs": [
        {
          "indexed": false,
          "internalType": "address",
          "name": "daoAddr",
          "type": "address"
        },
        {
          "indexed": false,
          "internalType": "bytes32",
          "name": "proposalId",
          "type": "bytes32"
        },
        {
          "indexed": false,
          "internalType": "enum IFundRaise.ProposalState",
          "name": "state",
          "type": "uint8"
        }
      ],
      "name": "proposalExecuted",
      "type": "event"
    },
    {
      "inputs": [
        {
          "internalType": "address",
          "name": "",
          "type": "address"
        },
        {
          "internalType": "bytes32",
          "name": "",
          "type": "bytes32"
        }
      ],
      "name": "Proposals",
      "outputs": [
        {
          "internalType": "address",
          "name": "acceptTokenAddr",
          "type": "address"
        },
        {
          "internalType": "uint256",
          "name": "fundRaiseTarget",
          "type": "uint256"
        },
        {
          "internalType": "uint256",
          "name": "fundRaiseMaxAmount",
          "type": "uint256"
        },
        {
          "internalType": "uint256",
          "name": "lpMinDepositAmount",
          "type": "uint256"
        },
        {
          "internalType": "uint256",
          "name": "lpMaxDepositAmount",
          "type": "uint256"
        },
        {
          "components": [
            {
              "internalType": "uint256",
              "name": "fundRaiseStartTime",
              "type": "uint256"
            },
            {
              "internalType": "uint256",
              "name": "fundRaiseEndTime",
              "type": "uint256"
            },
            {
              "internalType": "uint256",
              "name": "fundTerm",
              "type": "uint256"
            },
            {
              "internalType": "uint256",
              "name": "redemptPeriod",
              "type": "uint256"
            },
            {
              "internalType": "uint256",
              "name": "redemptDuration",
              "type": "uint256"
            },
            {
              "internalType": "uint256",
              "name": "returnDuration",
              "type": "uint256"
            }
          ],
          "internalType": "struct IFundRaise.FundRiaseTimeInfo",
          "name": "timesInfo",
          "type": "tuple"
        },
        {
          "components": [
            {
              "internalType": "uint256",
              "name": "proposerRewardRatio",
              "type": "uint256"
            },
            {
              "internalType": "uint256",
              "name": "managementFeeRatio",
              "type": "uint256"
            },
            {
              "internalType": "uint256",
              "name": "redepmtFeeRatio",
              "type": "uint256"
            },
            {
              "internalType": "uint256",
              "name": "protocolFeeRatio",
              "type": "uint256"
            },
            {
              "internalType": "address",
              "name": "managementFeeAddress",
              "type": "address"
            }
          ],
          "internalType": "struct IFundRaise.FundRaiseRewardAndFeeInfo",
          "name": "feeInfo",
          "type": "tuple"
        },
        {
          "internalType": "enum IFundRaise.ProposalState",
          "name": "state",
          "type": "uint8"
        },
        {
          "internalType": "uint256",
          "name": "creationTime",
          "type": "uint256"
        },
        {
          "internalType": "uint256",
          "name": "stopVoteTime",
          "type": "uint256"
        }
      ],
      "stateMutability": "view",
      "type": "function"
    },
    {
      "inputs": [
        {
          "internalType": "contract DaoRegistry",
          "name": "dao",
          "type": "address"
        },
        {
          "internalType": "address",
          "name": "_addr",
          "type": "address"
        }
      ],
      "name": "isActiveGeneralPartner",
      "outputs": [
        {
          "internalType": "bool",
          "name": "",
          "type": "bool"
        }
      ],
      "stateMutability": "view",
      "type": "function"
    },
    {
      "inputs": [
        {
          "internalType": "contract DaoRegistry",
          "name": "dao",
          "type": "address"
        },
        {
          "internalType": "address",
          "name": "_addr",
          "type": "address"
        }
      ],
      "name": "isActiveMember",
      "outputs": [
        {
          "internalType": "bool",
          "name": "",
          "type": "bool"
        }
      ],
      "stateMutability": "view",
      "type": "function"
    },
    {
      "inputs": [
        {
          "internalType": "address",
          "name": "",
          "type": "address"
        }
      ],
      "name": "lastProposalIds",
      "outputs": [
        {
          "internalType": "bytes32",
          "name": "",
          "type": "bytes32"
        }
      ],
      "stateMutability": "view",
      "type": "function"
    },
    {
      "inputs": [
        {
          "internalType": "contract DaoRegistry",
          "name": "dao",
          "type": "address"
        },
        {
          "internalType": "bytes32",
          "name": "proposalId",
          "type": "bytes32"
        }
      ],
      "name": "processProposal",
      "outputs": [],
      "stateMutability": "nonpayable",
      "type": "function"
    },
    {
      "inputs": [],
      "name": "proposalIds",
      "outputs": [
        {
          "internalType": "uint256",
          "name": "",
          "type": "uint256"
        }
      ],
      "stateMutability": "view",
      "type": "function"
    },
    {
      "inputs": [
        {
          "components": [
            {
              "internalType": "contract DaoRegistry",
              "name": "dao",
              "type": "address"
            },
            {
              "components": [
                {
                  "internalType": "uint256",
                  "name": "fundRaiseTarget",
                  "type": "uint256"
                },
                {
                  "internalType": "uint256",
                  "name": "fundRaiseMaxAmount",
                  "type": "uint256"
                },
                {
                  "internalType": "uint256",
                  "name": "lpMinDepositAmount",
                  "type": "uint256"
                },
                {
                  "internalType": "uint256",
                  "name": "lpMaxDepositAmount",
                  "type": "uint256"
                }
              ],
              "internalType": "struct IFundRaise.ProposalFundRaiseInfo",
              "name": "proposalFundRaiseInfo",
              "type": "tuple"
            },
            {
              "components": [
                {
                  "internalType": "uint256",
                  "name": "fundRaiseStartTime",
                  "type": "uint256"
                },
                {
                  "internalType": "uint256",
                  "name": "fundRaiseEndTime",
                  "type": "uint256"
                },
                {
                  "internalType": "uint256",
                  "name": "fundTerm",
                  "type": "uint256"
                },
                {
                  "internalType": "uint256",
                  "name": "redemptPeriod",
                  "type": "uint256"
                },
                {
                  "internalType": "uint256",
                  "name": "redemptDuration",
                  "type": "uint256"
                },
                {
                  "internalType": "uint256",
                  "name": "returnDuration",
                  "type": "uint256"
                }
              ],
              "internalType": "struct IFundRaise.ProposalTimeInfo",
              "name": "proposalTimeInfo",
              "type": "tuple"
            },
            {
              "components": [
                {
                  "internalType": "uint256",
                  "name": "proposerRewardRatio",
                  "type": "uint256"
                },
                {
                  "internalType": "uint256",
                  "name": "managementFeeRatio",
                  "type": "uint256"
                },
                {
                  "internalType": "uint256",
                  "name": "redepmtFeeRatio",
                  "type": "uint256"
                }
              ],
              "internalType": "struct IFundRaise.ProposalFeeInfo",
              "name": "proposalFeeInfo",
              "type": "tuple"
            },
            {
              "components": [
                {
                  "internalType": "address",
                  "name": "managementFeeAddress",
                  "type": "address"
                },
                {
                  "internalType": "address",
                  "name": "fundRaiseTokenAddress",
                  "type": "address"
                }
              ],
              "internalType": "struct IFundRaise.ProposalAddressInfo",
              "name": "proposalAddressInfo",
              "type": "tuple"
            }
          ],
          "internalType": "struct IFundRaise.ProposalParams",
          "name": "params",
          "type": "tuple"
        }
      ],
      "name": "submitProposal",
      "outputs": [],
      "stateMutability": "nonpayable",
      "type": "function"
    }
  ],
  "bytecode": "0x6080604052620186c260015534801561001757600080fd5b50612f6a806100276000396000f3fe608060405234801561001057600080fd5b506004361061007d5760003560e01c80639573167d1161005b5780639573167d146100e1578063a5254bc0146100f6578063bf49999414610109578063ea7075a81461021657600080fd5b806301c22a3d146100825780633d5af2ed146100b55780638ecf7720146100be575b600080fd5b6100a2610090366004612af2565b60036020526000908152604090205481565b6040519081526020015b60405180910390f35b6100a260015481565b6100d16100cc366004612ba1565b610229565b60405190151581526020016100ac565b6100f46100ef366004612bd9565b6102af565b005b6100d1610104366004612ba1565b6108ce565b610200610117366004612b31565b600060208181529281526040808220845291815281902080546001820154600283015460038401546004850154865160c081018852600587015481526006870154818a015260078701548189015260088701546060808301919091526009880154608080840191909152600a89015460a0808501919091528a519081018b52600b8a01548152600c8a01549b81019b909b52600d890154998b0199909952600e880154908a0152600f8701546001600160a01b03908116988a019890985260108701546011880154601290980154989096169894979396929591949093909260ff90921691908a565b6040516100ac9a99989796959493929190612d1a565b6100f4610224366004612c51565b610a06565b60405163288c314960e21b81526001600160a01b0382811660048301526000919084169063a230c5249060240160206040518083038186803b15801561026e57600080fd5b505afa158015610282573d6000803e3d6000fd5b505050506040513d601f19601f820116820180604052508101906102a69190612b5c565b90505b92915050565b8160006102bb82611ad6565b90506102c56129a2565b6001600160a01b0385166000818152602081815260408083208884529091529081902090516330490e9160e01b8152600481018790529091906330490e9190602401600060405180830381600087803b15801561032157600080fd5b505af1158015610335573d6000803e3d6000fd5b50506040516317ba7d8560e01b81527ff26d4834b4a91110d15379eda333e30be707af3a839ee5dbd668b89e4c6c6f6f60048201526001600160a01b03891692506317ba7d85915060240160206040518083038186803b15801561039857600080fd5b505afa1580156103ac573d6000803e3d6000fd5b505050506040513d601f19601f820116820180604052508101906103d09190612b15565b6001600160a01b03908116608084015260405163206f381f60e11b815260048101879052908716906340de703e9060240160206040518083038186803b15801561041957600080fd5b505afa15801561042d573d6000803e3d6000fd5b505050506040513d601f19601f820116820180604052508101906104519190612b15565b6001600160a01b0316602083018190526104cf5760405162461bcd60e51b815260206004820152603460248201527f46756e6452616973653a3a70726f6365737350726f706f73616c3a3a766f74696044820152731b99c81859185c1d195c881b9bdd08199bdd5b9960621b60648201526084015b60405180910390fd5b60208201516040516376225e7360e01b81526001600160a01b03888116600483015260248201889052909116906376225e739060440160606040518083038186803b15801561051d57600080fd5b505afa158015610531573d6000803e3d6000fd5b505050506040513d601f19601f820116820180604052508101906105559190612c0a565b6001600160801b0380821660e0870152821660c086015260a0850183600581111561059057634e487b7160e01b600052602160045260246000fd5b60058111156105af57634e487b7160e01b600052602160045260246000fd5b905250600291506105bd9050565b8260a0015160058111156105e157634e487b7160e01b600052602160045260246000fd5b14156107a85760108101805460ff19166001908117909155604080516101408101825283546001600160a01b0390811682528385015460208084019190915260028601548385015260038601546060808501919091526004870154608080860191909152855160c0808201885260058a0154825260068a01548286015260078a01548289015260088a01548285015260098a015482840152600a8a015460a0808401919091528088019290925287519182018852600b8a01548252600c8a015494820194909452600d89015496810196909652600e88015491860191909152600f8701549092169184019190915281019190915260e0810191909152601182015461010082015260128201546101208201526106fe908790611d62565b608082015160405163f10e6b6b60e01b81526001600160a01b0388811660048301529091169063f10e6b6b90602401600060405180830381600087803b15801561074757600080fd5b505af115801561075b573d6000803e3d6000fd5b5050506010820180546002925060ff191660018302179055506001600160a01b038616600090815260026020526040812080546001929061079d908490612e52565b909155506108779050565b60038260a0015160058111156107ce57634e487b7160e01b600052602160045260246000fd5b14806107fd575060018260a0015160058111156107fb57634e487b7160e01b600052602160045260246000fd5b145b156108165760108101805460ff19166003179055610877565b60405162461bcd60e51b815260206004820152603060248201527f46756e6452616973653a3a70726f6365737350726f706f73616c3a3a766f746960448201526f1b99c81b9bdd08199a5b985b1a5e995960821b60648201526084016104c6565b60108101546040517fbeb8db02792d733cf2b08fd8b125f6c2e102f9ef7308e675eced2303d27f4856916108b4918991899160ff90911690612cf6565b60405180910390a150506108c88282612731565b50505050565b60405163fefbd87560e01b81527f67e84d3ef18b24e32f9a9b2e9bac9e7ea8cde2f146ce512d44b9d6718a1f3ca0600482015260009081906001600160a01b0385169063fefbd8759060240160206040518083038186803b15801561093257600080fd5b505afa158015610946573d6000803e3d6000fd5b505050506040513d601f19601f8201168201806040525081019061096a9190612b15565b90506001600160a01b038116156109fc576040516319a73c8360e31b81526001600160a01b03848116600483015282169063cd39e4189060240160206040518083038186803b1580156109bc57600080fd5b505afa1580156109d0573d6000803e3d6000fd5b505050506040513d601f19601f820116820180604052508101906109f49190612b5c565b9150506102a9565b5060009392505050565b610a136020820182612af2565b6000610a1e82611ad6565b9050610a2d6020840184612af2565b610a378133612740565b6000600381610a496020880188612af2565b6001600160a01b03166001600160a01b031681526020019081526020016000205414158015610bcf575060008080610a846020880188612af2565b6001600160a01b03166001600160a01b03168152602001908152602001600020600060036000886000016020810190610abd9190612af2565b6001600160a01b03166001600160a01b0316815260200190815260200160002054815260200190815260200160002060100160009054906101000a900460ff166003811115610b1c57634e487b7160e01b600052602160045260246000fd5b1480610bcf57506001600080610b356020880188612af2565b6001600160a01b03166001600160a01b03168152602001908152602001600020600060036000886000016020810190610b6e9190612af2565b6001600160a01b03166001600160a01b0316815260200190815260200160002054815260200190815260200160002060100160009054906101000a900460ff166003811115610bcd57634e487b7160e01b600052602160045260246000fd5b145b15610c2b5760405162461bcd60e51b815260206004820152602660248201527f6c6173742066756e642072616973652070726f706f73616c206e6f742066696e604482015265185b1a5e995960d21b60648201526084016104c6565b610cfe604051806102a001604052806000815260200160006001600160a01b0316815260200160006001600160a01b0316815260200160006001600160a01b0316815260200160006001600160a01b0316815260200160008019168152602001600081526020016000815260200160008152602001600081526020016000815260200160008152602001600081526020016000815260200160008152602001600081526020016000815260200160008152602001600081526020016000815260200160006001600160a01b031681525090565b610d0b6020860186612af2565b604051634941d71d60e11b81527f9ce69cf04065e3c7823cc5540c0598d8a694bd7a9a5a2a786d8bccf14ed6e2ea60048201526001600160a01b039190911690639283ae3a9060240160206040518083038186803b158015610d6c57600080fd5b505afa158015610d80573d6000803e3d6000fd5b505050506040513d601f19601f82011682018060405250810190610da49190612c63565b8152610db36020860186612af2565b604051634941d71d60e11b81527fb0d4178853a5320a41f8c55fa6d58af06637e392beff71e66dba4e8f32c39bb860048201526001600160a01b039190911690639283ae3a9060240160206040518083038186803b158015610e1457600080fd5b505afa158015610e28573d6000803e3d6000fd5b505050506040513d601f19601f82011682018060405250810190610e4c9190612c63565b6101e0820152610e5f6020860186612af2565b6040516317ba7d8560e01b81527ff26d4834b4a91110d15379eda333e30be707af3a839ee5dbd668b89e4c6c6f6f60048201526001600160a01b0391909116906317ba7d859060240160206040518083038186803b158015610ec057600080fd5b505afa158015610ed4573d6000803e3d6000fd5b505050506040513d601f19601f82011682018060405250810190610ef89190612b15565b6001600160a01b03166102808201819052600090631ee1a2b0610f1e6020890189612af2565b6040516001600160e01b031960e084901b1681526001600160a01b03909116600482015260240160206040518083038186803b158015610f5d57600080fd5b505afa158015610f71573d6000803e3d6000fd5b505050506040513d601f19601f82011682018060405250810190610f959190612beb565b6003811115610fb457634e487b7160e01b600052602160045260246000fd5b1480611076575060036102808201516001600160a01b0316631ee1a2b0610fde6020890189612af2565b6040516001600160e01b031960e084901b1681526001600160a01b03909116600482015260240160206040518083038186803b15801561101d57600080fd5b505afa158015611031573d6000803e3d6000fd5b505050506040513d601f19601f820116820180604052508101906110559190612beb565b600381111561107457634e487b7160e01b600052602160045260246000fd5b145b80611152575060026102808201516001600160a01b0316631ee1a2b061109f6020890189612af2565b6040516001600160e01b031960e084901b1681526001600160a01b03909116600482015260240160206040518083038186803b1580156110de57600080fd5b505afa1580156110f2573d6000803e3d6000fd5b505050506040513d601f19601f820116820180604052508101906111169190612beb565b600381111561113557634e487b7160e01b600052602160045260246000fd5b14801561115257506101e0810151815161114f9190612e52565b42115b6111c45760405162461bcd60e51b815260206004820152603e60248201527f46756e6452616973653a3a7375626d697450726f706f73616c3a3a63616e742060448201527f7375626d69742066756e642072616973652070726f706f73616c206e6f77000060648201526084016104c6565b8061028001516001600160a01b031663b0e21e8a6040518163ffffffff1660e01b815260040160206040518083038186803b15801561120257600080fd5b505afa158015611216573d6000803e3d6000fd5b505050506040513d601f19601f8201168201806040525081019061123a9190612c63565b6102608201526102808101516001600160a01b031663e29e09746112616020880188612af2565b6040516001600160e01b031960e084901b1681526001600160a01b03909116600482015260240160206040518083038186803b1580156112a057600080fd5b505afa1580156112b4573d6000803e3d6000fd5b505050506040513d601f19601f820116820180604052508101906112d89190612c63565b60208601351115806112e8575060005b806113085750604085013515801590611308575060208501356040860135105b80611311575060005b806113315750608085013515801590611331575060608501356080860135105b8061133e575060a0850135155b8061134b575060c0850135155b8061135d575060a085013560c0860135105b8061136a575060e0850135155b806113785750610100850135155b806113865750610120850135155b806113945750610140850135155b806113a55750606461016086013510155b806113ae575060005b806113bf5750606461018086013510155b806113c8575060005b806113d9575060646101a086013510155b806113e2575060005b15611400576040516313ca70ab60e21b815260040160405180910390fd5b61140d6020860186612af2565b6040516317ba7d8560e01b81527f0272405e7a7e2834b06b48bd0de471bbb4d8400020ec22f05b6fc30ffddb34a860048201526001600160a01b0391909116906317ba7d859060240160206040518083038186803b15801561146e57600080fd5b505afa158015611482573d6000803e3d6000fd5b505050506040513d601f19601f820116820180604052508101906114a69190612b15565b6001600160a01b0316602080830182905263966917d0906114c990880188612af2565b604080516020810182526000815290516001600160e01b031960e085901b1681526114fb929130913390600401612ddd565b602060405180830381600087803b15801561151557600080fd5b505af1158015611529573d6000803e3d6000fd5b505050506040513d601f19601f8201168201806040525081019061154d9190612b15565b6001600160a01b0316608082015260015461158f9061156b9061278b565b60405160200161157b9190612cc9565b6040516020818303038152906040526128ad565b60a08201526115a16020860186612af2565b6001600160a01b031663b73dc3898260a001516040518263ffffffff1660e01b81526004016115d291815260200190565b600060405180830381600087803b1580156115ec57600080fd5b505af1158015611600573d6000803e3d6000fd5b5050604080516101408101909152915081905061162561020088016101e08901612af2565b6001600160a01b0316815260208781013581830152604080890135818401526060808a0135818501526080808b013581860152825160c0808201855260a0808e01358352818e01358388015260e08e0135838701526101008e0135838601526101208e0135838501526101408e01358382015280880192909252845191820185526101608d013582526101808d0135958201959095526101a08c0135938101939093526102608701519183019190915291909201919081016116ef6101e08a016101c08b01612af2565b6001600160a01b0316905281526020016000815260200142815260200186600001602081019061171f9190612af2565b604051634941d71d60e11b81527f9876c0f0505bfb2b1c38d3bbd25ba13159172cd0868972d76927723f5a9480fc60048201526001600160a01b039190911690639283ae3a9060240160206040518083038186803b15801561178057600080fd5b505afa158015611794573d6000803e3d6000fd5b505050506040513d601f19601f820116820180604052508101906117b89190612c63565b6117c29042612e52565b90526000806117d46020890189612af2565b6001600160a01b0390811682526020808301939093526040918201600090812060a080880151835290855290839020855181549084166001600160a01b0319918216178255868601516001808401919091558786015160028401556060808901516003808601919091556080808b015160048701558a87015180516005880155808b01516006880155808a0151600788015580840151600888015580820151600988015590960151600a86015560c08a01518051600b87015598890151600c86015596880151600d850155870151600e8401559590920151600f820180549190941692169190911790915560e084015160108201805492949193909260ff1916919084908111156118f557634e487b7160e01b600052602160045260246000fd5b02179055506101008201516011820155610120909101516012909101556020808201516001600160a01b0316906326078cd09061193490880188612af2565b60a0840151604080516020810182526000815290516001600160e01b031960e086901b16815261196a9392914291600401612e1b565b600060405180830381600087803b15801561198457600080fd5b505af1158015611998573d6000803e3d6000fd5b506119aa925050506020860186612af2565b60a0820151608083015160208401516040516344b574dd60e11b815260048101939093526001600160a01b03918216602484015281166044830152919091169063896ae9ba90606401600060405180830381600087803b158015611a0d57600080fd5b505af1158015611a21573d6000803e3d6000fd5b505050506001806000828254611a379190612e52565b909155505060a081015160036000611a526020890189612af2565b6001600160a01b03168152602080820192909252604001600020919091557ffe22c13d0cc04eef2a813c30901da5f8cd64f5ba91866fccce71c606ce46487490611a9e90870187612af2565b60a0830151604080516001600160a01b03909316835260208301919091520160405180910390a15050611ad18282612731565b505050565b6040805160808101825260008082526020820181905291810182905260608101919091525a81600001818152505043826001600160a01b031663b21634826040518163ffffffff1660e01b815260040160206040518083038186803b158015611b3e57600080fd5b505afa158015611b52573d6000803e3d6000fd5b505050506040513d601f19601f82011682018060405250810190611b769190612c63565b1415611bb75760405162461bcd60e51b815260206004820152601060248201526f1c99595b9d1c985b98de4819dd585c9960821b60448201526064016104c6565b816001600160a01b03166310fdb0a26040518163ffffffff1660e01b8152600401600060405180830381600087803b158015611bf257600080fd5b505af1158015611c06573d6000803e3d6000fd5b50506040516372c6838f60e01b81527f1f2fd42ad6a6cacd573c4b212beb7a4e2499ad45d742a65337097f130e71daff6004820152600092506001600160a01b03851691506372c6838f9060240160206040518083038186803b158015611c6c57600080fd5b505afa158015611c80573d6000803e3d6000fd5b505050506040513d601f19601f82011682018060405250810190611ca49190612b15565b90506001600160a01b038116611cc05760006020830152611d5c565b6001600160a01b038181166060840181905283516040516343a8a3f160e01b8152928616600484015260248301526000918291906343a8a3f190604401604080518083038186803b158015611d1457600080fd5b505afa158015611d28573d6000803e3d6000fd5b505050506040513d601f19601f82011682018060405250810190611d4c9190612b76565b9015156020860152604085015250505b50919050565b6040516317ba7d8560e01b81527ff26d4834b4a91110d15379eda333e30be707af3a839ee5dbd668b89e4c6c6f6f60048201526000906001600160a01b038416906317ba7d859060240160206040518083038186803b158015611dc457600080fd5b505afa158015611dd8573d6000803e3d6000fd5b505050506040513d601f19601f82011682018060405250810190611dfc9190612b15565b6020830151604051630da0f6c760e41b81527f31af571e53636dddd77f772cce9d30b42075760f2da731636acc6962da2fbef8600482015260248101919091529091506001600160a01b0384169063da0f6c7090604401600060405180830381600087803b158015611e6d57600080fd5b505af1158015611e81573d6000803e3d6000fd5b50505050604082015115611f1a576040828101519051630da0f6c760e41b81527f7e07fb4530796d057ca1d76d83f47aa8629dbb7e942ac28f30ad6f5e9e8d4189600482015260248101919091526001600160a01b0384169063da0f6c7090604401600060405180830381600087803b158015611efd57600080fd5b505af1158015611f11573d6000803e3d6000fd5b50505050611f9b565b604051630da0f6c760e41b81527f7e07fb4530796d057ca1d76d83f47aa8629dbb7e942ac28f30ad6f5e9e8d41896004820152600060248201526001600160a01b0384169063da0f6c7090604401600060405180830381600087803b158015611f8257600080fd5b505af1158015611f96573d6000803e3d6000fd5b505050505b6060820151604051630da0f6c760e41b81527fbdd40865e74210f0a46799ae63462c62010da92014a08cbc32f1d049d0a22c6b600482015260248101919091526001600160a01b0384169063da0f6c7090604401600060405180830381600087803b15801561200957600080fd5b505af115801561201d573d6000803e3d6000fd5b505050506080820151604051630da0f6c760e41b81527f5fa39c8100b49336846e52d39403e353bf782275f905a885f09224779ff1c924600482015260248101919091526001600160a01b0384169063da0f6c7090604401600060405180830381600087803b15801561208f57600080fd5b505af11580156120a3573d6000803e3d6000fd5b5050505060a082015151604051630da0f6c760e41b81527fbd04d44792b7dbfe3b50b0f9f2006f7ef449e374a39021cb9bfa7cd0bdd850d7600482015260248101919091526001600160a01b0384169063da0f6c7090604401600060405180830381600087803b15801561211657600080fd5b505af115801561212a573d6000803e3d6000fd5b5050505060a082015160200151604051630da0f6c760e41b81527f533afc15b6312917b5e28e2272ea69d44e5ea8e00d3bd57cada1275c2f14c9e8600482015260248101919091526001600160a01b0384169063da0f6c7090604401600060405180830381600087803b1580156121a057600080fd5b505af11580156121b4573d6000803e3d6000fd5b5050505060a082015160200151604051630da0f6c760e41b81527fd99dae5492aa0c08830764a319f29225cc739a0ed8683d8fd1b5bc3a8fe31672600482015260248101919091526001600160a01b0384169063da0f6c7090604401600060405180830381600087803b15801561222a57600080fd5b505af115801561223e573d6000803e3d6000fd5b50505050826001600160a01b031663da0f6c707f9ce69cf04065e3c7823cc5540c0598d8a694bd7a9a5a2a786d8bccf14ed6e2ea8460a00151604001518560a001516020015161228e9190612e52565b6040516001600160e01b031960e085901b16815260048101929092526024820152604401600060405180830381600087803b1580156122cc57600080fd5b505af11580156122e0573d6000803e3d6000fd5b5050505060a082015160600151604051630da0f6c760e41b81527f6a2acfe6164f3ec20e6d80e2f4e4f7ae2b9962615c9596c872d01f6cd244aed3600482015260248101919091526001600160a01b0384169063da0f6c7090604401600060405180830381600087803b15801561235657600080fd5b505af115801561236a573d6000803e3d6000fd5b5050505060a082015160800151604051630da0f6c760e41b81527f2305fa3a9f84625f75d70f539e621c658cf49e7477ab5af9cacd278ca7904e30600482015260248101919091526001600160a01b0384169063da0f6c7090604401600060405180830381600087803b1580156123e057600080fd5b505af11580156123f4573d6000803e3d6000fd5b5050505060a0828101510151604051630da0f6c760e41b81527fb0d4178853a5320a41f8c55fa6d58af06637e392beff71e66dba4e8f32c39bb8600482015260248101919091526001600160a01b0384169063da0f6c7090604401600060405180830381600087803b15801561246957600080fd5b505af115801561247d573d6000803e3d6000fd5b5050505060c082015151604051630da0f6c760e41b81527f852a1117c7e9da33751d11fe2e33c597893ea8a4a1ae7116f44e407f91a25603600482015260248101919091526001600160a01b0384169063da0f6c7090604401600060405180830381600087803b1580156124f057600080fd5b505af1158015612504573d6000803e3d6000fd5b5050505060c082015160200151604051630da0f6c760e41b81527f11618fa890234170104debf73b2563b667bd200bac1d7d8dd024e2f3fadaefd2600482015260248101919091526001600160a01b0384169063da0f6c7090604401600060405180830381600087803b15801561257a57600080fd5b505af115801561258e573d6000803e3d6000fd5b50505060c08301516040908101519051630da0f6c760e41b81527f3e453820e0fc9cb9a1e799559661cf9c1db4cc7d7fbcb7e0fdaf884cbe29c356600482015260248101919091526001600160a01b038516915063da0f6c7090604401600060405180830381600087803b15801561260557600080fd5b505af1158015612619573d6000803e3d6000fd5b5050505060c082015160800151604051631da7c90d60e11b81527f5460409b9aa4688f80c10b29c3d7ad16025f050f472a6882a45fa7bb9bd12fb160048201526001600160a01b03918216602482015290841690633b4f921a90604401600060405180830381600087803b15801561269057600080fd5b505af11580156126a4573d6000803e3d6000fd5b50508351604051631da7c90d60e11b81527f7fa36390a0e9b8b8004035572fd8345b1128cea12d1763a1baf8fbd4fb7b202760048201526001600160a01b0391821660248201529086169250633b4f921a9150604401600060405180830381600087803b15801561271457600080fd5b505af1158015612728573d6000803e3d6000fd5b50505050505050565b61273c8282336128c9565b5050565b61274a82826108ce565b61273c5760405162461bcd60e51b815260206004820152601260248201527137b7363ca3b2b732b930b62830b93a3732b960711b60448201526064016104c6565b6060816127af5750506040805180820190915260018152600360fc1b602082015290565b8160005b81156127d957806127c381612ec1565b91506127d29050600a83612e6a565b91506127b3565b60008167ffffffffffffffff81111561280257634e487b7160e01b600052604160045260246000fd5b6040519080825280601f01601f19166020018201604052801561282c576020820181803683370190505b5090505b84156128a557612841600183612e7e565b915061284e600a86612edc565b612859906030612e52565b60f81b81838151811061287c57634e487b7160e01b600052603260045260246000fd5b60200101906001600160f81b031916908160001a90535061289e600a86612e6a565b9450612830565b949350505050565b60008151600014156128c157506000919050565b506020015190565b8160200151156129675781606001516001600160a01b0316635e5eb01384835a86516128f59190612e7e565b60408088015190516001600160e01b031960e087901b1681526001600160a01b03948516600482015293909216602484015260448301526064820152608401600060405180830381600087803b15801561294e57600080fd5b505af1158015612962573d6000803e3d6000fd5b505050505b826001600160a01b031663d4f7af436040518163ffffffff1660e01b8152600401600060405180830381600087803b15801561271457600080fd5b604080516101408101825260008082526020820181905291810182905260608101829052608081018290529060a082019081526000602082018190526040820181905260608201526080016129f56129fa565b905290565b60405180610140016040528060006001600160a01b0316815260200160008152602001600081526020016000815260200160008152602001612a6b6040518060c001604052806000815260200160008152602001600081526020016000815260200160008152602001600081525090565b8152602001612aab6040518060a001604052806000815260200160008152602001600081526020016000815260200160006001600160a01b031681525090565b81526020016000815260200160008152602001600081525090565b80518015158114612ad657600080fd5b919050565b80516001600160801b0381168114612ad657600080fd5b600060208284031215612b03578081fd5b8135612b0e81612f1c565b9392505050565b600060208284031215612b26578081fd5b8151612b0e81612f1c565b60008060408385031215612b43578081fd5b8235612b4e81612f1c565b946020939093013593505050565b600060208284031215612b6d578081fd5b6102a682612ac6565b60008060408385031215612b88578182fd5b612b9183612ac6565b9150602083015190509250929050565b60008060408385031215612bb3578182fd5b8235612bbe81612f1c565b91506020830135612bce81612f1c565b809150509250929050565b60008060408385031215612b43578182fd5b600060208284031215612bfc578081fd5b815160048110612b0e578182fd5b600080600060608486031215612c1e578081fd5b835160068110612c2c578182fd5b9250612c3a60208501612adb565b9150612c4860408501612adb565b90509250925092565b60006102008284031215611d5c578081fd5b600060208284031215612c74578081fd5b5051919050565b60008151808452612c93816020860160208601612e95565b601f01601f19169290920160200192915050565b60048110612cc557634e487b7160e01b600052602160045260246000fd5b9052565b64544652502360d81b815260008251612ce9816005850160208701612e95565b9190910160050192915050565b6001600160a01b038416815260208101839052606081016128a56040830184612ca7565b6001600160a01b038b8116825260208083018c905260408084018c905260608085018c905260808086018c90528a5160a0808801919091528b85015160c08801528b84015160e08801528b8301516101008801528b8201516101208801528b0151610140870152895161016087015292890151610180860152908801516101a08501528701516101c0840152860151166101e08201526102608101612dc3610200830186612ca7565b610220820193909352610240015298975050505050505050565b600060018060a01b038087168352808616602084015260806040840152612e076080840186612c7b565b915080841660608401525095945050505050565b60018060a01b0385168152836020820152826040820152608060608201526000612e486080830184612c7b565b9695505050505050565b60008219821115612e6557612e65612ef0565b500190565b600082612e7957612e79612f06565b500490565b600082821015612e9057612e90612ef0565b500390565b60005b83811015612eb0578181015183820152602001612e98565b838111156108c85750506000910152565b6000600019821415612ed557612ed5612ef0565b5060010190565b600082612eeb57612eeb612f06565b500690565b634e487b7160e01b600052601160045260246000fd5b634e487b7160e01b600052601260045260246000fd5b6001600160a01b0381168114612f3157600080fd5b5056fea2646970667358221220a73d56f6a055a98559f3ff12af3cbee58bc9039412ed863f2c0dd9ded8de79ce64736f6c63430008040033",
  "linkReferences": {},
  "deployedLinkReferences": {}
}