{
  "_format": "hh-sol-artifact-1",
  "contractName": "GPDaoOnboardingAdapterContract",
  "sourceName": "contracts/adapters/GPDaoOnboarding.sol",
  "abi": [
    {
      "anonymous": false,
      "inputs": [
        {
          "indexed": false,
          "internalType": "address",
          "name": "daoAddr",
          "type": "address"
        },
        {
          "indexed": false,
          "internalType": "bytes32",
          "name": "proposalId",
          "type": "bytes32"
        },
        {
          "indexed": false,
          "internalType": "address",
          "name": "applicant",
          "type": "address"
        },
        {
          "indexed": false,
          "internalType": "uint256",
          "name": "creationTime",
          "type": "uint256"
        },
        {
          "indexed": false,
          "internalType": "uint256",
          "name": "stopVoteTime",
          "type": "uint256"
        }
      ],
      "name": "ProposalCreated",
      "type": "event"
    },
    {
      "anonymous": false,
      "inputs": [
        {
          "indexed": false,
          "internalType": "address",
          "name": "daoAddr",
          "type": "address"
        },
        {
          "indexed": false,
          "internalType": "bytes32",
          "name": "proposalId",
          "type": "bytes32"
        },
        {
          "indexed": false,
          "internalType": "enum IGPVoting.VotingState",
          "name": "voteRelsult",
          "type": "uint8"
        },
        {
          "indexed": false,
          "internalType": "enum GPDaoOnboardingAdapterContract.ProposalState",
          "name": "state",
          "type": "uint8"
        },
        {
          "indexed": false,
          "internalType": "uint128",
          "name": "allVotingWeight",
          "type": "uint128"
        },
        {
          "indexed": false,
          "internalType": "uint128",
          "name": "nbYes",
          "type": "uint128"
        },
        {
          "indexed": false,
          "internalType": "uint128",
          "name": "nbNo",
          "type": "uint128"
        }
      ],
      "name": "ProposalProcessed",
      "type": "event"
    },
    {
      "inputs": [
        {
          "internalType": "contract DaoRegistry",
          "name": "dao",
          "type": "address"
        },
        {
          "internalType": "uint32",
          "name": "quorum",
          "type": "uint32"
        },
        {
          "internalType": "uint32",
          "name": "superMajority",
          "type": "uint32"
        }
      ],
      "name": "configureDao",
      "outputs": [],
      "stateMutability": "nonpayable",
      "type": "function"
    },
    {
      "inputs": [
        {
          "internalType": "contract DaoRegistry",
          "name": "dao",
          "type": "address"
        },
        {
          "internalType": "bytes32",
          "name": "proposalId",
          "type": "bytes32"
        }
      ],
      "name": "processProposal",
      "outputs": [],
      "stateMutability": "nonpayable",
      "type": "function"
    },
    {
      "inputs": [],
      "name": "proposalIds",
      "outputs": [
        {
          "internalType": "uint256",
          "name": "",
          "type": "uint256"
        }
      ],
      "stateMutability": "view",
      "type": "function"
    },
    {
      "inputs": [
        {
          "internalType": "contract DaoRegistry",
          "name": "",
          "type": "address"
        },
        {
          "internalType": "bytes32",
          "name": "",
          "type": "bytes32"
        }
      ],
      "name": "proposals",
      "outputs": [
        {
          "internalType": "bytes32",
          "name": "id",
          "type": "bytes32"
        },
        {
          "internalType": "address",
          "name": "applicant",
          "type": "address"
        },
        {
          "internalType": "uint256",
          "name": "creationTime",
          "type": "uint256"
        },
        {
          "internalType": "uint256",
          "name": "stopVoteTime",
          "type": "uint256"
        },
        {
          "internalType": "enum GPDaoOnboardingAdapterContract.ProposalState",
          "name": "state",
          "type": "uint8"
        }
      ],
      "stateMutability": "view",
      "type": "function"
    },
    {
      "inputs": [
        {
          "internalType": "contract DaoRegistry",
          "name": "dao",
          "type": "address"
        },
        {
          "internalType": "address",
          "name": "applicant",
          "type": "address"
        }
      ],
      "name": "submitProposal",
      "outputs": [
        {
          "internalType": "bytes32",
          "name": "proposalId",
          "type": "bytes32"
        }
      ],
      "stateMutability": "nonpayable",
      "type": "function"
    }
  ],
  "bytecode": "0x6080604052620186d260015534801561001757600080fd5b506127dd806100276000396000f3fe608060405234801561001057600080fd5b50600436106100575760003560e01c8063075724cf1461005c5780633d5af2ed146100715780635cb752761461008d5780639573167d146100f0578063e4780fc514610103575b600080fd5b61006f61006a3660046123e1565b610116565b005b61007a60015481565b6040519081526020015b60405180910390f35b6100df61009b3660046123b6565b60006020818152928152604080822090935290815220805460018201546002830154600384015460049094015492936001600160a01b039092169290919060ff1685565b604051610084959493929190612585565b61006f6100fe3660046123b6565b6101e3565b61007a61011136600461237e565b6107bd565b6040516368c18beb60e01b815233600482015283906001600160a01b038216906368c18beb9060240160206040518083038186803b15801561015757600080fd5b505afa15801561016b573d6000803e3d6000fd5b505050506040513d601f19601f8201168201806040525081019061018f9190612339565b8061019e575061019e81611527565b6101dd5760405162461bcd60e51b815260206004820152600b60248201526a37b7363ca0b230b83a32b960a91b60448201526064015b60405180910390fd5b50505050565b8160006101ef82611734565b6001600160a01b038516600090815260208181526040808320878452909152902080549192509084146102645760405162461bcd60e51b815260206004820152601760248201527f70726f706f73616c20646f6573206e6f7420657869737400000000000000000060448201526064016101d4565b60405163f941f69160e01b81526001600160a01b0386169063f941f691906102939087906002906004016125c0565b60206040518083038186803b1580156102ab57600080fd5b505afa1580156102bf573d6000803e3d6000fd5b505050506040513d601f19601f820116820180604052508101906102e39190612339565b156103305760405162461bcd60e51b815260206004820152601a60248201527f70726f706f73616c20616c72656164792070726f63657373656400000000000060448201526064016101d4565b60405163206f381f60e11b8152600481018590526000906001600160a01b038716906340de703e9060240160206040518083038186803b15801561037357600080fd5b505afa158015610387573d6000803e3d6000fd5b505050506040513d601f19601f820116820180604052508101906103ab919061231d565b604051633e599bfb60e11b81526001600160a01b038881166004830152919250600091831690637cb337f69060240160206040518083038186803b1580156103f257600080fd5b505afa158015610406573d6000803e3d6000fd5b505050506040513d601f19601f8201168201806040525081019061042a9190612482565b90506001600160a01b0382166104765760405162461bcd60e51b81526020600482015260116024820152701859185c1d195c881b9bdd08199bdd5b99607a1b60448201526064016101d4565b6040516376225e7360e01b81526001600160a01b0388811660048301526024820188905260009182918291908616906376225e739060440160606040518083038186803b1580156104c657600080fd5b505afa1580156104da573d6000803e3d6000fd5b505050506040513d601f19601f820116820180604052508101906104fe9190612444565b6040516330490e9160e01b8152600481018d905292955090935091506001600160a01b038b16906330490e9190602401600060405180830381600087803b15801561054857600080fd5b505af115801561055c573d6000803e3d6000fd5b5060029250610569915050565b83600581111561058957634e487b7160e01b600052602160045260246000fd5b14156106a9576004868101805460ff19166001908117909155870154604051632c9f4b5b60e11b8152600080516020612768833981519152928101929092526001600160a01b03908116916000918d169063593e96b69060240160206040518083038186803b1580156105fb57600080fd5b505afa15801561060f573d6000803e3d6000fd5b505050506040513d601f19601f82011682018060405250810190610633919061231d565b60405163afe73ba360e01b81526001600160a01b0384811660048301529192509082169063afe73ba390602401600060405180830381600087803b15801561067a57600080fd5b505af115801561068e573d6000803e3d6000fd5b5050505060048801805460ff19166002179055506107629050565b60038360058111156106cb57634e487b7160e01b600052602160045260246000fd5b14806106f6575060018360058111156106f457634e487b7160e01b600052602160045260246000fd5b145b1561070f5760048601805460ff19166003179055610762565b60405162461bcd60e51b815260206004820152602260248201527f70726f706f73616c20686173206e6f74206265656e20766f746564206f6e2079604482015261195d60f21b60648201526084016101d4565b60048601546040517f31d6ed385785e3a147155178ade3955980b07e3c8f66dcbca1bd07e38670359d916107a5918d918d91889160ff16908a9089908990612520565b60405180910390a15050505050506101dd82826119c0565b60008260006107cb82611734565b9050846107d881336119cf565b604051634941d71d60e11b81527fcb1b85cff5456dffe0156522a7b50aa7e44ed692ccf353928d783aa10b41c2b66004820152869086906001600160a01b03831690639283ae3a9060240160206040518083038186803b15801561083b57600080fd5b505afa15801561084f573d6000803e3d6000fd5b505050506040513d601f19601f82011682018060405250810190610873919061249c565b6001141561134457604051634941d71d60e11b815260008051602061278883398151915260048201526001600160a01b03831690639283ae3a9060240160206040518083038186803b1580156108c857600080fd5b505afa1580156108dc573d6000803e3d6000fd5b505050506040513d601f19601f82011682018060405250810190610900919061249c565b610a8857604051634941d71d60e11b815260008051602061274883398151915260048201526001600160a01b03831690639283ae3a9060240160206040518083038186803b15801561095157600080fd5b505afa158015610965573d6000803e3d6000fd5b505050506040513d601f19601f82011682018060405250810190610989919061249c565b60405163fd310d2960e01b81527f24ff71fc31a6b2be78a265ecbb78906acfd30d6b24357ca298e295b93087d9ea6004820152610a2b906001600160a01b0385169063fd310d29906024015b60206040518083038186803b1580156109ed57600080fd5b505afa158015610a01573d6000803e3d6000fd5b505050506040513d601f19601f82011682018060405250810190610a25919061231d565b83611b12565b1015610a885760405162461bcd60e51b815260206004820152602660248201527f6e6f74206d656574206572633230206d696e20686f6c64696e67207265717569604482015265726d656e747360d01b60648201526084016101d4565b604051634941d71d60e11b815260008051602061278883398151915260048201526001600160a01b03831690639283ae3a9060240160206040518083038186803b158015610ad557600080fd5b505afa158015610ae9573d6000803e3d6000fd5b505050506040513d601f19601f82011682018060405250810190610b0d919061249c565b60011415610c4857604051634941d71d60e11b815260008051602061274883398151915260048201526001600160a01b03831690639283ae3a9060240160206040518083038186803b158015610b6257600080fd5b505afa158015610b76573d6000803e3d6000fd5b505050506040513d601f19601f82011682018060405250810190610b9a919061249c565b60405163fd310d2960e01b81527f24ff71fc31a6b2be78a265ecbb78906acfd30d6b24357ca298e295b93087d9ea6004820152610bea906001600160a01b0385169063fd310d29906024016109d5565b1015610c485760405162461bcd60e51b815260206004820152602760248201527f6e6f74206d65657420657263373231206d696e20686f6c64696e67207265717560448201526669726d656e747360c81b60648201526084016101d4565b604051634941d71d60e11b815260008051602061278883398151915260048201526001600160a01b03831690639283ae3a9060240160206040518083038186803b158015610c9557600080fd5b505afa158015610ca9573d6000803e3d6000fd5b505050506040513d601f19601f82011682018060405250810190610ccd919061249c565b60021415610ef157604051634941d71d60e11b815260008051602061274883398151915260048201526001600160a01b03831690639283ae3a9060240160206040518083038186803b158015610d2257600080fd5b505afa158015610d36573d6000803e3d6000fd5b505050506040513d601f19601f82011682018060405250810190610d5a919061249c565b60405163fd310d2960e01b81527f24ff71fc31a6b2be78a265ecbb78906acfd30d6b24357ca298e295b93087d9ea6004820152610e92906001600160a01b0385169063fd310d299060240160206040518083038186803b158015610dbd57600080fd5b505afa158015610dd1573d6000803e3d6000fd5b505050506040513d601f19601f82011682018060405250810190610df5919061231d565b604051634941d71d60e11b81527fa2169a266a000b9ed910243e4e95f23d7d383448dfa96f2cfb3cd2ba907d6ed660048201526001600160a01b03861690639283ae3a9060240160206040518083038186803b158015610e5457600080fd5b505afa158015610e68573d6000803e3d6000fd5b505050506040513d601f19601f82011682018060405250810190610e8c919061249c565b84611b96565b1015610ef15760405162461bcd60e51b815260206004820152602860248201527f6e6f74206d6565742065726331313535206d696e20686f6c64696e67207265716044820152677569726d656e747360c01b60648201526084016101d4565b604051634941d71d60e11b815260008051602061278883398151915260048201526001600160a01b03831690639283ae3a9060240160206040518083038186803b158015610f3e57600080fd5b505afa158015610f52573d6000803e3d6000fd5b505050506040513d601f19601f82011682018060405250810190610f76919061249c565b60031415611171576040516317ba7d8560e01b81527ff26d4834b4a91110d15379eda333e30be707af3a839ee5dbd668b89e4c6c6f6f60048201526000906001600160a01b038416906317ba7d859060240160206040518083038186803b158015610fe057600080fd5b505afa158015610ff4573d6000803e3d6000fd5b505050506040513d601f19601f82011682018060405250810190611018919061231d565b604051634941d71d60e11b815260008051602061274883398151915260048201529091506001600160a01b03841690639283ae3a9060240160206040518083038186803b15801561106857600080fd5b505afa15801561107c573d6000803e3d6000fd5b505050506040513d601f19601f820116820180604052508101906110a0919061249c565b604051633de222bb60e21b81526001600160a01b038581166004830152848116602483015283169063f7888aec9060440160206040518083038186803b1580156110e957600080fd5b505afa1580156110fd573d6000803e3d6000fd5b505050506040513d601f19601f82011682018060405250810190611121919061249c565b101561116f5760405162461bcd60e51b815260206004820181905260248201527f6e6f74206d656574206d696e206465706f736974207265717569726d656e747360448201526064016101d4565b505b604051634941d71d60e11b815260008051602061278883398151915260048201526001600160a01b03831690639283ae3a9060240160206040518083038186803b1580156111be57600080fd5b505afa1580156111d2573d6000803e3d6000fd5b505050506040513d601f19601f820116820180604052508101906111f6919061249c565b6004141561134457604051632c9f4b5b60e11b815260008051602061276883398151915260048201526000906001600160a01b0384169063593e96b69060240160206040518083038186803b15801561124e57600080fd5b505afa158015611262573d6000803e3d6000fd5b505050506040513d601f19601f82011682018060405250810190611286919061231d565b60405163f99031a760e01b81526001600160a01b0384811660048301529192509082169063f99031a79060240160206040518083038186803b1580156112cb57600080fd5b505afa1580156112df573d6000803e3d6000fd5b505050506040513d601f19601f820116820180604052508101906113039190612339565b6113425760405162461bcd60e51b815260206004820152601060248201526f1b9bdd081a5b881dda1a5d195b1a5cdd60821b60448201526064016101d4565b505b61134d87611c20565b6113995760405162461bcd60e51b815260206004820152601d60248201527f6170706c6963616e74206973207265736572766564206164647265737300000060448201526064016101d4565b60006113cd6113a9600154611c64565b6040516020016113b991906124f4565b604051602081830303815290604052611d7e565b604051634941d71d60e11b81527f9876c0f0505bfb2b1c38d3bbd25ba13159172cd0868972d76927723f5a9480fc600482015290915042906000906001600160a01b038c1690639283ae3a9060240160206040518083038186803b15801561143457600080fd5b505afa158015611448573d6000803e3d6000fd5b505050506040513d601f19601f8201168201806040525081019061146c919061249c565b611476908361264f565b90506114858b848c8585611d9a565b6114a08b848460405180602001604052806000815250612025565b60018060008282546114b2919061264f565b9091555050604080516001600160a01b038d81168252602082018690528c1681830152606081018490526080810183905290517f6aaae501ff139d513d1bc12ea99b136b059504e091d4f950c8636d3a4256c2989181900360a00190a150505050505061151f82826119c0565b505092915050565b600080826001600160a01b031663c19d93fb6040518163ffffffff1660e01b815260040160206040518083038186803b15801561156357600080fd5b505afa158015611577573d6000803e3d6000fd5b505050506040513d601f19601f8201168201806040525081019061159b9190612425565b60018111156115ba57634e487b7160e01b600052602160045260246000fd5b14801561172e5750816001600160a01b031663c67143666040518163ffffffff1660e01b815260040160206040518083038186803b1580156115fb57600080fd5b505afa15801561160f573d6000803e3d6000fd5b505050506040513d601f19601f82011682018060405250810190611633919061249c565b15806116b1575060405163288c314960e21b81523360048201526001600160a01b0383169063a230c5249060240160206040518083038186803b15801561167957600080fd5b505afa15801561168d573d6000803e3d6000fd5b505050506040513d601f19601f820116820180604052508101906116b19190612339565b8061172e57506040516368c18beb60e01b81523360048201526001600160a01b038316906368c18beb9060240160206040518083038186803b1580156116f657600080fd5b505afa15801561170a573d6000803e3d6000fd5b505050506040513d601f19601f8201168201806040525081019061172e9190612339565b92915050565b6040805160808101825260008082526020820181905291810182905260608101919091525a81600001818152505043826001600160a01b031663b21634826040518163ffffffff1660e01b815260040160206040518083038186803b15801561179c57600080fd5b505afa1580156117b0573d6000803e3d6000fd5b505050506040513d601f19601f820116820180604052508101906117d4919061249c565b14156118155760405162461bcd60e51b815260206004820152601060248201526f1c99595b9d1c985b98de4819dd585c9960821b60448201526064016101d4565b816001600160a01b03166310fdb0a26040518163ffffffff1660e01b8152600401600060405180830381600087803b15801561185057600080fd5b505af1158015611864573d6000803e3d6000fd5b50506040516372c6838f60e01b81527f1f2fd42ad6a6cacd573c4b212beb7a4e2499ad45d742a65337097f130e71daff6004820152600092506001600160a01b03851691506372c6838f9060240160206040518083038186803b1580156118ca57600080fd5b505afa1580156118de573d6000803e3d6000fd5b505050506040513d601f19601f82011682018060405250810190611902919061231d565b90506001600160a01b03811661191e57600060208301526119ba565b6001600160a01b038181166060840181905283516040516343a8a3f160e01b8152928616600484015260248301526000918291906343a8a3f190604401604080518083038186803b15801561197257600080fd5b505afa158015611986573d6000803e3d6000fd5b505050506040513d601f19601f820116820180604052508101906119aa9190612353565b9015156020860152604085015250505b50919050565b6119cb8282336121e7565b5050565b60405163fefbd87560e01b815260008051602061276883398151915260048201526000906001600160a01b0384169063fefbd8759060240160206040518083038186803b158015611a1f57600080fd5b505afa158015611a33573d6000803e3d6000fd5b505050506040513d601f19601f82011682018060405250810190611a57919061231d565b6040516319a73c8360e31b81526001600160a01b0384811660048301529192509082169063cd39e4189060240160206040518083038186803b158015611a9c57600080fd5b505afa158015611ab0573d6000803e3d6000fd5b505050506040513d601f19601f82011682018060405250810190611ad49190612339565b611b0d5760405162461bcd60e51b815260206004820152600a60248201526937b7363ca930b4b9b2b960b11b60448201526064016101d4565b505050565b6040516370a0823160e01b81526001600160a01b038281166004830152600091908416906370a082319060240160206040518083038186803b158015611b5757600080fd5b505afa158015611b6b573d6000803e3d6000fd5b505050506040513d601f19601f82011682018060405250810190611b8f919061249c565b9392505050565b604051627eeac760e11b81526001600160a01b038281166004830152602482018490526000919085169062fdd58e9060440160206040518083038186803b158015611be057600080fd5b505afa158015611bf4573d6000803e3d6000fd5b505050506040513d601f19601f82011682018060405250810190611c18919061249c565b949350505050565b60006001600160a01b03821661dead14801590611c4857506001600160a01b03821661babe14155b801561172e57506001600160a01b038216614bec141592915050565b606081611c885750506040805180820190915260018152600360fc1b602082015290565b8160005b8115611cb25780611c9c816126be565b9150611cab9050600a83612667565b9150611c8c565b60008167ffffffffffffffff811115611cdb57634e487b7160e01b600052604160045260246000fd5b6040519080825280601f01601f191660200182016040528015611d05576020820181803683370190505b5090505b8415611c1857611d1a60018361267b565b9150611d27600a866126d9565b611d3290603061264f565b60f81b818381518110611d5557634e487b7160e01b600052603260045260246000fd5b60200101906001600160f81b031916908160001a905350611d77600a86612667565b9450611d09565b6000815160001415611d9257506000919050565b506020015190565b604051632c9f4b5b60e11b815260008051602061276883398151915260048201526000906001600160a01b0387169063593e96b69060240160206040518083038186803b158015611dea57600080fd5b505afa158015611dfe573d6000803e3d6000fd5b505050506040513d601f19601f82011682018060405250810190611e22919061231d565b6040516319a73c8360e31b81526001600160a01b0386811660048301529192509082169063cd39e4189060240160206040518083038186803b158015611e6757600080fd5b505afa158015611e7b573d6000803e3d6000fd5b505050506040513d601f19601f82011682018060405250810190611e9f9190612339565b15611f075760405162461bcd60e51b815260206004820152603260248201527f475044616f4f6e626f617264696e673a3a7375626d697450726f706f73616c3a6044820152710e985c1c1b1a58d85b9d08195e1a5cdd195960721b60648201526084016101d4565b6040805160a0810182528681526001600160a01b038681166020808401918252838501888152606085018881526000608087018181528e871682528185528882208e835290945296909620855181559251600180850180546001600160a01b031916929096169190911790945551600283015593516003808301919091559351600482018054949592949193909260ff19909216918490811115611fbb57634e487b7160e01b600052602160045260246000fd5b02179055505060405163b73dc38960e01b8152600481018790526001600160a01b038816915063b73dc389906024015b600060405180830381600087803b15801561200557600080fd5b505af1158015612019573d6000803e3d6000fd5b50505050505050505050565b6040516317ba7d8560e01b81527f0272405e7a7e2834b06b48bd0de471bbb4d8400020ec22f05b6fc30ffddb34a860048201526000906001600160a01b038616906317ba7d859060240160206040518083038186803b15801561208757600080fd5b505afa15801561209b573d6000803e3d6000fd5b505050506040513d601f19601f820116820180604052508101906120bf919061231d565b90506000816001600160a01b031663966917d0873086336040518563ffffffff1660e01b81526004016120f594939291906125e4565b602060405180830381600087803b15801561210f57600080fd5b505af1158015612123573d6000803e3d6000fd5b505050506040513d601f19601f82011682018060405250810190612147919061231d565b6040516344b574dd60e11b8152600481018790526001600160a01b03808316602483015284811660448301529192509087169063896ae9ba90606401600060405180830381600087803b15801561219d57600080fd5b505af11580156121b1573d6000803e3d6000fd5b505060405163026078cd60e41b81526001600160a01b03851692506326078cd09150611feb908990899089908990600401612622565b8160200151156122855781606001516001600160a01b0316635e5eb01384835a8651612213919061267b565b60408088015190516001600160e01b031960e087901b1681526001600160a01b03948516600482015293909216602484015260448301526064820152608401600060405180830381600087803b15801561226c57600080fd5b505af1158015612280573d6000803e3d6000fd5b505050505b826001600160a01b031663d4f7af436040518163ffffffff1660e01b8152600401600060405180830381600087803b1580156122c057600080fd5b505af11580156122d4573d6000803e3d6000fd5b50505050505050565b805180151581146122ed57600080fd5b919050565b80516001600160801b03811681146122ed57600080fd5b803563ffffffff811681146122ed57600080fd5b60006020828403121561232e578081fd5b8151611b8f8161272f565b60006020828403121561234a578081fd5b611b8f826122dd565b60008060408385031215612365578081fd5b61236e836122dd565b9150602083015190509250929050565b60008060408385031215612390578182fd5b823561239b8161272f565b915060208301356123ab8161272f565b809150509250929050565b600080604083850312156123c8578182fd5b82356123d38161272f565b946020939093013593505050565b6000806000606084860312156123f5578081fd5b83356124008161272f565b925061240e60208501612309565b915061241c60408501612309565b90509250925092565b600060208284031215612436578081fd5b815160028110611b8f578182fd5b600080600060608486031215612458578283fd5b835160068110612466578384fd5b9250612474602085016122f2565b915061241c604085016122f2565b600060208284031215612493578081fd5b611b8f826122f2565b6000602082840312156124ad578081fd5b5051919050565b600081518084526124cc816020860160208601612692565b601f01601f19169290920160200192915050565b600481106124f0576124f0612719565b9052565b63544d502360e01b815260008251612513816004850160208701612692565b9190910160040192915050565b6001600160a01b03881681526020810187905260e081016006871061254757612547612719565b86604083015261255a60608301876124e0565b6001600160801b03948516608083015292841660a0820152921660c090920191909152949350505050565b8581526001600160a01b0385166020820152604081018490526060810183905260a081016125b660808301846124e0565b9695505050505050565b82815260408101600383106125d7576125d7612719565b8260208301529392505050565b600060018060a01b03808716835280861660208401526080604084015261260e60808401866124b4565b915080841660608401525095945050505050565b60018060a01b03851681528360208201528260408201526080606082015260006125b660808301846124b4565b60008219821115612662576126626126ed565b500190565b60008261267657612676612703565b500490565b60008282101561268d5761268d6126ed565b500390565b60005b838110156126ad578181015183820152602001612695565b838111156101dd5750506000910152565b60006000198214156126d2576126d26126ed565b5060010190565b6000826126e8576126e8612703565b500690565b634e487b7160e01b600052601160045260246000fd5b634e487b7160e01b600052601260045260246000fd5b634e487b7160e01b600052602160045260246000fd5b6001600160a01b038116811461274457600080fd5b5056fecc90045e39ac105dcebbf952dd5296ea6b2d31393f3eb9ef0a0ab3458d85d10f67e84d3ef18b24e32f9a9b2e9bac9e7ea8cde2f146ce512d44b9d6718a1f3ca0c1b209168198eccc84193211efbd20aab87007db7285581e7b1e8ff3fe504fcda2646970667358221220dba1d575c03bad3c5863160c0d0a1ee2434c7b28cab3670ed4a2964003f3c40964736f6c63430008040033",
  "linkReferences": {},
  "deployedLinkReferences": {}
}