{
  "_format": "hh-sol-artifact-1",
  "contractName": "GPKickAdapterContract",
  "sourceName": "contracts/adapters/GPKick.sol",
  "abi": [
    {
      "anonymous": false,
      "inputs": [
        {
          "indexed": false,
          "internalType": "address",
          "name": "daoAddr",
          "type": "address"
        },
        {
          "indexed": false,
          "internalType": "bytes32",
          "name": "proposalId",
          "type": "bytes32"
        },
        {
          "indexed": false,
          "internalType": "address",
          "name": "gpToKick",
          "type": "address"
        },
        {
          "indexed": false,
          "internalType": "uint256",
          "name": "creationTime",
          "type": "uint256"
        },
        {
          "indexed": false,
          "internalType": "uint256",
          "name": "stopVoteTime",
          "type": "uint256"
        }
      ],
      "name": "ProposalCreated",
      "type": "event"
    },
    {
      "anonymous": false,
      "inputs": [
        {
          "indexed": false,
          "internalType": "address",
          "name": "daoAddr",
          "type": "address"
        },
        {
          "indexed": false,
          "internalType": "bytes32",
          "name": "proposalId",
          "type": "bytes32"
        },
        {
          "indexed": false,
          "internalType": "enum IGPOnboardingVoting.VotingState",
          "name": "voteRelsult",
          "type": "uint8"
        },
        {
          "indexed": false,
          "internalType": "enum GPKickAdapterContract.ProposalState",
          "name": "state",
          "type": "uint8"
        },
        {
          "indexed": false,
          "internalType": "uint128",
          "name": "allVotingWeight",
          "type": "uint128"
        },
        {
          "indexed": false,
          "internalType": "uint128",
          "name": "nbYes",
          "type": "uint128"
        },
        {
          "indexed": false,
          "internalType": "uint128",
          "name": "nbNo",
          "type": "uint128"
        }
      ],
      "name": "ProposalProcessed",
      "type": "event"
    },
    {
      "inputs": [
        {
          "internalType": "address",
          "name": "",
          "type": "address"
        },
        {
          "internalType": "bytes32",
          "name": "",
          "type": "bytes32"
        }
      ],
      "name": "kickProposals",
      "outputs": [
        {
          "internalType": "address",
          "name": "gpToKick",
          "type": "address"
        },
        {
          "internalType": "enum GPKickAdapterContract.ProposalState",
          "name": "state",
          "type": "uint8"
        },
        {
          "internalType": "uint256",
          "name": "creationTime",
          "type": "uint256"
        },
        {
          "internalType": "uint256",
          "name": "stopVoteTime",
          "type": "uint256"
        }
      ],
      "stateMutability": "view",
      "type": "function"
    },
    {
      "inputs": [
        {
          "internalType": "contract DaoRegistry",
          "name": "dao",
          "type": "address"
        },
        {
          "internalType": "bytes32",
          "name": "proposalId",
          "type": "bytes32"
        }
      ],
      "name": "processProposal",
      "outputs": [],
      "stateMutability": "nonpayable",
      "type": "function"
    },
    {
      "inputs": [],
      "name": "proposalIds",
      "outputs": [
        {
          "internalType": "uint256",
          "name": "",
          "type": "uint256"
        }
      ],
      "stateMutability": "view",
      "type": "function"
    },
    {
      "inputs": [
        {
          "internalType": "contract DaoRegistry",
          "name": "dao",
          "type": "address"
        },
        {
          "internalType": "address",
          "name": "gpToKick",
          "type": "address"
        }
      ],
      "name": "submitProposal",
      "outputs": [],
      "stateMutability": "nonpayable",
      "type": "function"
    }
  ],
  "bytecode": "0x6080604052620186be60015534801561001757600080fd5b506116ad806100276000396000f3fe608060405234801561001057600080fd5b506004361061004c5760003560e01c80633d5af2ed146100515780639573167d1461006d578063e4780fc514610082578063e74f20ab14610095575b600080fd5b61005a60015481565b6040519081526020015b60405180910390f35b61008061007b366004611387565b6100f1565b005b61008061009036600461134f565b6105d1565b6100e16100a33660046112df565b60006020818152928152604080822090935290815220805460018201546002909201546001600160a01b03821692600160a01b90920460ff16919084565b60405161006494939291906114e2565b8160006100fd82610c6c565b6040516330490e9160e01b8152600481018590529091506001600160a01b038516906330490e9190602401600060405180830381600087803b15801561014257600080fd5b505af1158015610156573d6000803e3d6000fd5b505060405163206f381f60e11b815260048101869052600092506001600160a01b03871691506340de703e9060240160206040518083038186803b15801561019d57600080fd5b505afa1580156101b1573d6000803e3d6000fd5b505050506040513d601f19601f820116820180604052508101906101d591906112bc565b90506001600160a01b0381166102265760405162461bcd60e51b81526020600482015260116024820152701859185c1d195c881b9bdd08199bdd5b99607a1b60448201526064015b60405180910390fd5b604051633e599bfb60e11b81526001600160a01b038681166004830152600091829182918291861690637cb337f69060240160206040518083038186803b15801561027057600080fd5b505afa158015610284573d6000803e3d6000fd5b505050506040513d601f19601f820116820180604052508101906102a891906113e0565b6040516376225e7360e01b81526001600160a01b038b81166004830152602482018b9052919250908616906376225e739060440160606040518083038186803b1580156102f457600080fd5b505afa158015610308573d6000803e3d6000fd5b505050506040513d601f19601f8201168201806040525081019061032c9190611399565b6001600160a01b038c166000908152602081815260408083208e845290915290209296509094509250600285600581111561037757634e487b7160e01b600052602160045260246000fd5b14156104bc578054600160a01b60ff60a01b19909116178155604051632c9f4b5b60e11b81527f67e84d3ef18b24e32f9a9b2e9bac9e7ea8cde2f146ce512d44b9d6718a1f3ca060048201526000906001600160a01b038c169063593e96b69060240160206040518083038186803b1580156103f257600080fd5b505afa158015610406573d6000803e3d6000fd5b505050506040513d601f19601f8201168201806040525081019061042a91906112bc565b6001600160a01b038c81166000908152602081815260408083208f8452909152908190205490516354829da160e01b815290821660048201529192508216906354829da190602401600060405180830381600087803b15801561048c57600080fd5b505af11580156104a0573d6000803e3d6000fd5b5050835460ff60a01b1916600160a11b1784555061056c915050565b60038560058111156104de57634e487b7160e01b600052602160045260246000fd5b14806105095750600185600581111561050757634e487b7160e01b600052602160045260246000fd5b145b1561052457805460ff60a01b1916600360a01b17815561056c565b60405162461bcd60e51b815260206004820152601b60248201527f766f74696e67206973207374696c6c20696e2070726f67726573730000000000604482015260640161021d565b80546040517f31d6ed385785e3a147155178ade3955980b07e3c8f66dcbca1bd07e38670359d916105b3918d918d918a91600160a01b900460ff169088908b908b9061147d565b60405180910390a15050505050506105cb8282610ef8565b50505050565b8160006105dd82610c6c565b9050836105ea8133610f07565b6040516317ba7d8560e01b81527f60c070b9a72ac4c8e5f956ed17fe8117b5ec87b0ceefa6de23348ec16fc8b9ea60048201526000906001600160a01b038716906317ba7d859060240160206040518083038186803b15801561064c57600080fd5b505afa158015610660573d6000803e3d6000fd5b505050506040513d601f19601f8201168201806040525081019061068491906112bc565b604051632c9f4b5b60e11b81527f67e84d3ef18b24e32f9a9b2e9bac9e7ea8cde2f146ce512d44b9d6718a1f3ca060048201529091506000906001600160a01b0388169063593e96b69060240160206040518083038186803b1580156106e957600080fd5b505afa1580156106fd573d6000803e3d6000fd5b505050506040513d601f19601f8201168201806040525081019061072191906112bc565b90506001600160a01b038616158015906107bd5750806001600160a01b03166377c936626040518163ffffffff1660e01b815260040160206040518083038186803b15801561076f57600080fd5b505afa158015610783573d6000803e3d6000fd5b505050506040513d601f19601f820116820180604052508101906107a791906112bc565b6001600160a01b0316866001600160a01b031614155b6108225760405162461bcd60e51b815260206004820152603060248201527f47504b69636b3a3a7375626d697450726f706f73616c3a3a6770546f4b69636b60448201526f081859191c995cdcc81a5b9d985b1a5960821b606482015260840161021d565b6040805160208101825260008082529151630966917d60e41b81526001600160a01b0385169163966917d091610861918c913091903390600401611511565b602060405180830381600087803b15801561087b57600080fd5b505af115801561088f573d6000803e3d6000fd5b505050506040513d601f19601f820116820180604052508101906108b391906112bc565b9050866001600160a01b0316816001600160a01b031614156109235760405162461bcd60e51b8152602060048201526024808201527f47504b69636b3a3a7375626d697450726f706f73616c3a3a75736520726167656044820152631c5d5a5d60e21b606482015260840161021d565b600061095761093360015461105c565b6040516020016109439190611452565b60405160208183030381529060405261117e565b60405163b73dc38960e01b8152600481018290529091506001600160a01b038a169063b73dc38990602401600060405180830381600087803b15801561099c57600080fd5b505af11580156109b0573d6000803e3d6000fd5b5050604051634941d71d60e11b81527f9876c0f0505bfb2b1c38d3bbd25ba13159172cd0868972d76927723f5a9480fc6004820152429250600091506001600160a01b038c1690639283ae3a9060240160206040518083038186803b158015610a1857600080fd5b505afa158015610a2c573d6000803e3d6000fd5b505050506040513d601f19601f82011682018060405250810190610a5091906113fa565b610a5a908361157f565b60408051608081019091526001600160a01b038c1681529091506020810160008152602080820185905260409182018490526001600160a01b03808f1660009081528083528381208882528352929092208351815493166001600160a01b0319841681178255918401519092909183916001600160a81b03191617600160a01b836003811115610afa57634e487b7160e01b600052602160045260246000fd5b0217905550604082810151600183015560609092015160029091015580516020810182526000815290516302b0974d60e41b81526001600160a01b03881691632b0974d091610b50918f9188919060040161154f565b600060405180830381600087803b158015610b6a57600080fd5b505af1158015610b7e573d6000803e3d6000fd5b50506040516344b574dd60e11b8152600481018690526001600160a01b03878116602483015289811660448301528e16925063896ae9ba9150606401600060405180830381600087803b158015610bd457600080fd5b505af1158015610be8573d6000803e3d6000fd5b505050506001806000828254610bfe919061157f565b9091555050604080516001600160a01b038d81168252602082018690528c1681830152606081018490526080810183905290517f6aaae501ff139d513d1bc12ea99b136b059504e091d4f950c8636d3a4256c2989181900360a00190a1505050505050506105cb8282610ef8565b6040805160808101825260008082526020820181905291810182905260608101919091525a81600001818152505043826001600160a01b031663b21634826040518163ffffffff1660e01b815260040160206040518083038186803b158015610cd457600080fd5b505afa158015610ce8573d6000803e3d6000fd5b505050506040513d601f19601f82011682018060405250810190610d0c91906113fa565b1415610d4d5760405162461bcd60e51b815260206004820152601060248201526f1c99595b9d1c985b98de4819dd585c9960821b604482015260640161021d565b816001600160a01b03166310fdb0a26040518163ffffffff1660e01b8152600401600060405180830381600087803b158015610d8857600080fd5b505af1158015610d9c573d6000803e3d6000fd5b50506040516372c6838f60e01b81527f1f2fd42ad6a6cacd573c4b212beb7a4e2499ad45d742a65337097f130e71daff6004820152600092506001600160a01b03851691506372c6838f9060240160206040518083038186803b158015610e0257600080fd5b505afa158015610e16573d6000803e3d6000fd5b505050506040513d601f19601f82011682018060405250810190610e3a91906112bc565b90506001600160a01b038116610e565760006020830152610ef2565b6001600160a01b038181166060840181905283516040516343a8a3f160e01b8152928616600484015260248301526000918291906343a8a3f190604401604080518083038186803b158015610eaa57600080fd5b505afa158015610ebe573d6000803e3d6000fd5b505050506040513d601f19601f82011682018060405250810190610ee29190611324565b9015156020860152604085015250505b50919050565b610f0382823361119a565b5050565b60405163fefbd87560e01b81527f67e84d3ef18b24e32f9a9b2e9bac9e7ea8cde2f146ce512d44b9d6718a1f3ca060048201526000906001600160a01b0384169063fefbd8759060240160206040518083038186803b158015610f6957600080fd5b505afa158015610f7d573d6000803e3d6000fd5b505050506040513d601f19601f82011682018060405250810190610fa191906112bc565b6040516319a73c8360e31b81526001600160a01b0384811660048301529192509082169063cd39e4189060240160206040518083038186803b158015610fe657600080fd5b505afa158015610ffa573d6000803e3d6000fd5b505050506040513d601f19601f8201168201806040525081019061101e919061130a565b6110575760405162461bcd60e51b815260206004820152600a60248201526937b7363ca930b4b9b2b960b11b604482015260640161021d565b505050565b6060816110805750506040805180820190915260018152600360fc1b602082015290565b8160005b81156110aa5780611094816115ee565b91506110a39050600a83611597565b9150611084565b60008167ffffffffffffffff8111156110d357634e487b7160e01b600052604160045260246000fd5b6040519080825280601f01601f1916602001820160405280156110fd576020820181803683370190505b5090505b8415611176576111126001836115ab565b915061111f600a86611609565b61112a90603061157f565b60f81b81838151811061114d57634e487b7160e01b600052603260045260246000fd5b60200101906001600160f81b031916908160001a90535061116f600a86611597565b9450611101565b949350505050565b600081516000141561119257506000919050565b506020015190565b8160200151156112385781606001516001600160a01b0316635e5eb01384835a86516111c691906115ab565b60408088015190516001600160e01b031960e087901b1681526001600160a01b03948516600482015293909216602484015260448301526064820152608401600060405180830381600087803b15801561121f57600080fd5b505af1158015611233573d6000803e3d6000fd5b505050505b826001600160a01b031663d4f7af436040518163ffffffff1660e01b8152600401600060405180830381600087803b15801561127357600080fd5b505af1158015611287573d6000803e3d6000fd5b50505050505050565b805180151581146112a057600080fd5b919050565b80516001600160801b03811681146112a057600080fd5b6000602082840312156112cd578081fd5b81516112d88161165f565b9392505050565b600080604083850312156112f1578081fd5b82356112fc8161165f565b946020939093013593505050565b60006020828403121561131b578081fd5b6112d882611290565b60008060408385031215611336578182fd5b61133f83611290565b9150602083015190509250929050565b60008060408385031215611361578182fd5b823561136c8161165f565b9150602083013561137c8161165f565b809150509250929050565b600080604083850312156112f1578182fd5b6000806000606084860312156113ad578081fd5b8351600681106113bb578182fd5b92506113c9602085016112a5565b91506113d7604085016112a5565b90509250925092565b6000602082840312156113f1578081fd5b6112d8826112a5565b60006020828403121561140b578081fd5b5051919050565b6000815180845261142a8160208601602086016115c2565b601f01601f19169290920160200192915050565b6004811061144e5761144e611649565b9052565b620544b560ec1b8152600082516114708160038501602087016115c2565b9190910160030192915050565b6001600160a01b03881681526020810187905260e08101600687106114a4576114a4611649565b8660408301526114b7606083018761143e565b6001600160801b03948516608083015292841660a0820152921660c090920191909152949350505050565b6001600160a01b0385168152608081016114ff602083018661143e565b60408201939093526060015292915050565b600060018060a01b03808716835280861660208401526080604084015261153b6080840186611412565b915080841660608401525095945050505050565b60018060a01b03841681528260208201526060604082015260006115766060830184611412565b95945050505050565b600082198211156115925761159261161d565b500190565b6000826115a6576115a6611633565b500490565b6000828210156115bd576115bd61161d565b500390565b60005b838110156115dd5781810151838201526020016115c5565b838111156105cb5750506000910152565b60006000198214156116025761160261161d565b5060010190565b60008261161857611618611633565b500690565b634e487b7160e01b600052601160045260246000fd5b634e487b7160e01b600052601260045260246000fd5b634e487b7160e01b600052602160045260246000fd5b6001600160a01b038116811461167457600080fd5b5056fea264697066735822122078119a01c0745f52af92155cfbeb3df872217773700291bcc0e37f3ae741c70064736f6c63430008040033",
  "linkReferences": {},
  "deployedLinkReferences": {}
}