{
  "_format": "hh-sol-artifact-1",
  "contractName": "GPOnboardVotingContract",
  "sourceName": "contracts/adapters/voting/GPOnboardingVoting.sol",
  "abi": [
    {
      "anonymous": false,
      "inputs": [
        {
          "indexed": false,
          "internalType": "address",
          "name": "daoAddr",
          "type": "address"
        },
        {
          "indexed": false,
          "internalType": "bytes32",
          "name": "proposalId",
          "type": "bytes32"
        },
        {
          "indexed": false,
          "internalType": "uint256",
          "name": "voteTime",
          "type": "uint256"
        },
        {
          "indexed": false,
          "internalType": "address",
          "name": "voter",
          "type": "address"
        },
        {
          "indexed": false,
          "internalType": "uint256",
          "name": "voteValue",
          "type": "uint256"
        },
        {
          "indexed": false,
          "internalType": "uint128",
          "name": "votingWeight",
          "type": "uint128"
        },
        {
          "indexed": false,
          "internalType": "uint128",
          "name": "nbYes",
          "type": "uint128"
        },
        {
          "indexed": false,
          "internalType": "uint128",
          "name": "nbNo",
          "type": "uint128"
        }
      ],
      "name": "SubmitVote",
      "type": "event"
    },
    {
      "inputs": [],
      "name": "ADAPTER_NAME",
      "outputs": [
        {
          "internalType": "string",
          "name": "",
          "type": "string"
        }
      ],
      "stateMutability": "view",
      "type": "function"
    },
    {
      "inputs": [
        {
          "internalType": "contract DaoRegistry",
          "name": "dao",
          "type": "address"
        },
        {
          "internalType": "uint256",
          "name": "votingPeriod",
          "type": "uint256"
        },
        {
          "internalType": "uint256",
          "name": "gracePeriod",
          "type": "uint256"
        }
      ],
      "name": "configureDao",
      "outputs": [],
      "stateMutability": "nonpayable",
      "type": "function"
    },
    {
      "inputs": [],
      "name": "getAdapterName",
      "outputs": [
        {
          "internalType": "string",
          "name": "",
          "type": "string"
        }
      ],
      "stateMutability": "pure",
      "type": "function"
    },
    {
      "inputs": [
        {
          "internalType": "contract DaoRegistry",
          "name": "dao",
          "type": "address"
        }
      ],
      "name": "getAllGPWeight",
      "outputs": [
        {
          "internalType": "uint128",
          "name": "",
          "type": "uint128"
        }
      ],
      "stateMutability": "view",
      "type": "function"
    },
    {
      "inputs": [
        {
          "internalType": "contract DaoRegistry",
          "name": "",
          "type": "address"
        },
        {
          "internalType": "address",
          "name": "",
          "type": "address"
        },
        {
          "internalType": "bytes",
          "name": "",
          "type": "bytes"
        },
        {
          "internalType": "address",
          "name": "sender",
          "type": "address"
        }
      ],
      "name": "getSenderAddress",
      "outputs": [
        {
          "internalType": "address",
          "name": "",
          "type": "address"
        }
      ],
      "stateMutability": "pure",
      "type": "function"
    },
    {
      "inputs": [
        {
          "internalType": "contract DaoRegistry",
          "name": "dao",
          "type": "address"
        },
        {
          "internalType": "bytes32",
          "name": "proposalId",
          "type": "bytes32"
        },
        {
          "internalType": "bytes",
          "name": "",
          "type": "bytes"
        }
      ],
      "name": "startNewVotingForProposal",
      "outputs": [],
      "stateMutability": "nonpayable",
      "type": "function"
    },
    {
      "inputs": [
        {
          "internalType": "contract DaoRegistry",
          "name": "dao",
          "type": "address"
        },
        {
          "internalType": "bytes32",
          "name": "proposalId",
          "type": "bytes32"
        },
        {
          "internalType": "uint256",
          "name": "voteValue",
          "type": "uint256"
        }
      ],
      "name": "submitVote",
      "outputs": [],
      "stateMutability": "nonpayable",
      "type": "function"
    },
    {
      "inputs": [
        {
          "internalType": "contract DaoRegistry",
          "name": "dao",
          "type": "address"
        },
        {
          "internalType": "bytes32",
          "name": "proposalId",
          "type": "bytes32"
        }
      ],
      "name": "voteResult",
      "outputs": [
        {
          "internalType": "enum IGPOnboardingVoting.VotingState",
          "name": "state",
          "type": "uint8"
        },
        {
          "internalType": "uint128",
          "name": "nbYes",
          "type": "uint128"
        },
        {
          "internalType": "uint128",
          "name": "nbNo",
          "type": "uint128"
        }
      ],
      "stateMutability": "view",
      "type": "function"
    },
    {
      "inputs": [
        {
          "internalType": "address",
          "name": "",
          "type": "address"
        },
        {
          "internalType": "bytes32",
          "name": "",
          "type": "bytes32"
        }
      ],
      "name": "votes",
      "outputs": [
        {
          "internalType": "uint128",
          "name": "nbYes",
          "type": "uint128"
        },
        {
          "internalType": "uint128",
          "name": "nbNo",
          "type": "uint128"
        },
        {
          "internalType": "uint256",
          "name": "startingTime",
          "type": "uint256"
        },
        {
          "internalType": "uint256",
          "name": "blockNumber",
          "type": "uint256"
        }
      ],
      "stateMutability": "view",
      "type": "function"
    }
  ],
  "bytecode": "0x608060405234801561001057600080fd5b506124f5806100206000396000f3fe608060405234801561001057600080fd5b50600436106100935760003560e01c806376225e731161006657806376225e731461017d5780637cb337f61461019f5780637fd3cd8b146101ca578063966917d014610206578063a60e68fe1461023357600080fd5b80631db5ade8146100985780631f86f5b3146101135780632b0974d014610155578063325b72f21461016a575b600080fd5b6100e36100a6366004611f26565b60006020818152928152604080822090935290815220805460018201546002909201546001600160801b0380831693600160801b90930416919084565b604080516001600160801b0395861681529490931660208501529183015260608201526080015b60405180910390f35b60408051808201909152601a81527f47504f6e626f617264696e67566f74696e67436f6e747261637400000000000060208201525b60405161010a91906122f9565b61016861016336600461213b565b610246565b005b6101686101783660046121bf565b610340565b61019061018b366004612129565b610a31565b60405161010a939291906122c7565b6101b26101ad36600461204a565b610fd8565b6040516001600160801b03909116815260200161010a565b6101486040518060400160405280601a81526020017f47504f6e626f617264696e67566f74696e67436f6e747261637400000000000081525081565b61021b610214366004612066565b9392505050565b6040516001600160a01b03909116815260200161010a565b6101686102413660046121f3565b611100565b6040516368c18beb60e01b815233600482015284906001600160a01b038216906368c18beb9060240160206040518083038186803b15801561028757600080fd5b505afa15801561029b573d6000803e3d6000fd5b505050506040513d601f19601f820116820180604052508101906102bf9190612005565b806102ce57506102ce816111c8565b61030d5760405162461bcd60e51b815260206004820152600b60248201526a37b7363ca0b230b83a32b960a91b60448201526064015b60405180910390fd5b5050506001600160a01b039091166000908152602081815260408083209383529290522042600182015543600290910155565b8261034b81336113d5565b8360006103578261152a565b60405163f941f69160e01b81529091506001600160a01b0387169063f941f69190610389908890600190600401612289565b60206040518083038186803b1580156103a157600080fd5b505afa1580156103b5573d6000803e3d6000fd5b505050506040513d601f19601f820116820180604052508101906103d99190612005565b6104355760405162461bcd60e51b815260206004820152602760248201527f7468652070726f706f73616c20686173206e6f74206265656e2073706f6e736f6044820152661c9959081e595d60ca1b6064820152608401610304565b60405163f941f69160e01b81526001600160a01b0387169063f941f69190610464908890600290600401612289565b60206040518083038186803b15801561047c57600080fd5b505afa158015610490573d6000803e3d6000fd5b505050506040513d601f19601f820116820180604052508101906104b49190612005565b156105115760405162461bcd60e51b815260206004820152602760248201527f7468652070726f706f73616c2068617320616c7265616479206265656e2070726044820152661bd8d95cdcd95960ca1b6064820152608401610304565b6003841080156105215750600084115b6105815760405162461bcd60e51b815260206004820152602b60248201527f6f6e6c79207965732028312920616e64206e6f202832292061726520706f737360448201526a69626c652076616c75657360a81b6064820152608401610304565b6001600160a01b0386166000908152602081815260408083208884529091529020600181015461060e5760405162461bcd60e51b815260206004820152603260248201527f746869732070726f706f73616c496420686173206e6f20766f746520676f696e60448201527119c81bdb88185d081d1a19481b5bdb595b9d60721b6064820152608401610304565b604051634941d71d60e11b81527f9876c0f0505bfb2b1c38d3bbd25ba13159172cd0868972d76927723f5a9480fc60048201526001600160a01b03881690639283ae3a9060240160206040518083038186803b15801561066d57600080fd5b505afa158015610681573d6000803e3d6000fd5b505050506040513d601f19601f820116820180604052508101906106a5919061224d565b81600101546106b491906123a8565b42106106fb5760405162461bcd60e51b81526020600482015260166024820152751d9bdd19481a185cc8185b1c9958591e48195b99195960521b6044820152606401610304565b60405163644ddc5d60e11b81523360048201526000906001600160a01b0389169063c89bb8ba9060240160206040518083038186803b15801561073d57600080fd5b505afa158015610751573d6000803e3d6000fd5b505050506040513d601f19601f820116820180604052508101906107759190611f0a565b6001600160a01b0381166000908152600384016020526040902054909150156107e05760405162461bcd60e51b815260206004820152601860248201527f6d656d6265722068617320616c726561647920766f74656400000000000000006044820152606401610304565b6001600160a01b03818116600090815260038401602052604080822089905551632c9f4b5b60e11b81527feadd166fac11c69a9d01b14cdd03f0902ebe2a3d90e6e17ced26382b23bfe1c4600482015290918a169063593e96b69060240160206040518083038186803b15801561085657600080fd5b505afa15801561086a573d6000803e3d6000fd5b505050506040513d601f19601f8201168201806040525081019061088e9190611f0a565b90506000816001600160a01b031663c68491ea6040518163ffffffff1660e01b815260040160206040518083038186803b1580156108cb57600080fd5b505afa1580156108df573d6000803e3d6000fd5b505050506040513d601f19601f820116820180604052508101906109039190611f0a565b905060006109128b33846117b6565b9050886001141561095c5784546109339082906001600160801b031661237d565b85546fffffffffffffffffffffffffffffffff19166001600160801b039190911617855561099b565b886002141561099b578454610982908290600160801b90046001600160801b031661237d565b85546001600160801b03918216600160801b0291161785555b8454604080516001600160a01b038e168152602081018d90524281830152336060820152608081018c90526001600160801b0384811660a083015280841660c0830152600160801b90930490921660e0830152517fcdc3d5c5cd9f25e2b681a6f4a071e61708f089cb0362e56b8355b7992dd5f247918190036101000190a15050505050610a298282611b49565b505050505050565b6001600160a01b0382166000908152602081815260408083208484529091528120600181015482918291610a815754600093506001600160801b038082169350600160801b909104169050610fd1565b604051634941d71d60e11b81527f9876c0f0505bfb2b1c38d3bbd25ba13159172cd0868972d76927723f5a9480fc60048201526001600160a01b03871690639283ae3a9060240160206040518083038186803b158015610ae057600080fd5b505afa158015610af4573d6000803e3d6000fd5b505050506040513d601f19601f82011682018060405250810190610b18919061224d565b8160010154610b2791906123a8565b421015610b505754600493506001600160801b038082169350600160801b909104169050610fd1565b60405163af3138cd60e01b81526000906001600160a01b0388169063af3138cd90610b80906001906004016122ad565b60206040518083038186803b158015610b9857600080fd5b505afa158015610bac573d6000803e3d6000fd5b505050506040513d601f19601f82011682018060405250810190610bd09190612265565b63ffffffff166003811115610bf557634e487b7160e01b600052602160045260246000fd5b90506000610c0288610fd8565b90506001826003811115610c2657634e487b7160e01b600052602160045260246000fd5b1480610c5157506003826003811115610c4f57634e487b7160e01b600052602160045260246000fd5b145b15610d6257604051634941d71d60e11b81527f0324de13a5a6e302ddb95a9fdf81cc736fc8acee2abe558970daac27395904e760048201526000906064906001600160a01b038b1690639283ae3a9060240160206040518083038186803b158015610cbb57600080fd5b505afa158015610ccf573d6000803e3d6000fd5b505050506040513d601f19601f82011682018060405250810190610cf3919061224d565b610d06906001600160801b03851661240f565b610d1091906123c0565b84549091506001600160801b03808216600160801b9092048116919091011681811015610d5f5750509154600395506001600160801b038082169550600160801b909104169250610fd1915050565b50505b6000826003811115610d8457634e487b7160e01b600052602160045260246000fd5b1480610daf57506001826003811115610dad57634e487b7160e01b600052602160045260246000fd5b145b15610e565782546001600160801b03600160801b8204811691161115610df357505054600293506001600160801b038082169350600160801b909104169050610fd1565b82546001600160801b03600160801b8204811691161015610e3257505054600393506001600160801b038082169350600160801b909104169050610fd1565b505054600193506001600160801b038082169350600160801b909104169050610fd1565b604051634941d71d60e11b81527fb4c601c38beae7eebb719eda3438f59fcbfd4c6dd7d38c00665b6fd5b432df3260048201526000906064906001600160a01b038b1690639283ae3a9060240160206040518083038186803b158015610ebb57600080fd5b505afa158015610ecf573d6000803e3d6000fd5b505050506040513d601f19601f82011682018060405250810190610ef3919061224d565b8554610f11906001600160801b03600160801b82048116911661237d565b6001600160801b0316610f24919061240f565b610f2e91906123c0565b905080158015610f46575083546001600160801b0316155b15610f725750509054600194506001600160801b038082169450600160801b909104169150610fd19050565b83546001600160801b03168111610faa5750509054600294506001600160801b038082169450600160801b909104169150610fd19050565b50509054600394506001600160801b038082169450600160801b909104169150610fd19050565b9250925092565b604051632c9f4b5b60e11b81527feadd166fac11c69a9d01b14cdd03f0902ebe2a3d90e6e17ced26382b23bfe1c4600482015260009081906001600160a01b0384169063593e96b69060240160206040518083038186803b15801561103c57600080fd5b505afa158015611050573d6000803e3d6000fd5b505050506040513d601f19601f820116820180604052508101906110749190611f0a565b90506000816001600160a01b031663c68491ea6040518163ffffffff1660e01b815260040160206040518083038186803b1580156110b157600080fd5b505afa1580156110c5573d6000803e3d6000fd5b505050506040513d601f19601f820116820180604052508101906110e99190611f0a565b905060006110f78583611b58565b95945050505050565b6040516368c18beb60e01b815233600482015283906001600160a01b038216906368c18beb9060240160206040518083038186803b15801561114157600080fd5b505afa158015611155573d6000803e3d6000fd5b505050506040513d601f19601f820116820180604052508101906111799190612005565b806111885750611188816111c8565b6111c25760405162461bcd60e51b815260206004820152600b60248201526a37b7363ca0b230b83a32b960a91b6044820152606401610304565b50505050565b600080826001600160a01b031663c19d93fb6040518163ffffffff1660e01b815260040160206040518083038186803b15801561120457600080fd5b505afa158015611218573d6000803e3d6000fd5b505050506040513d601f19601f8201168201806040525081019061123c9190612207565b600181111561125b57634e487b7160e01b600052602160045260246000fd5b1480156113cf5750816001600160a01b031663c67143666040518163ffffffff1660e01b815260040160206040518083038186803b15801561129c57600080fd5b505afa1580156112b0573d6000803e3d6000fd5b505050506040513d601f19601f820116820180604052508101906112d4919061224d565b1580611352575060405163288c314960e21b81523360048201526001600160a01b0383169063a230c5249060240160206040518083038186803b15801561131a57600080fd5b505afa15801561132e573d6000803e3d6000fd5b505050506040513d601f19601f820116820180604052508101906113529190612005565b806113cf57506040516368c18beb60e01b81523360048201526001600160a01b038316906368c18beb9060240160206040518083038186803b15801561139757600080fd5b505afa1580156113ab573d6000803e3d6000fd5b505050506040513d601f19601f820116820180604052508101906113cf9190612005565b92915050565b60405163fefbd87560e01b81527f67e84d3ef18b24e32f9a9b2e9bac9e7ea8cde2f146ce512d44b9d6718a1f3ca060048201526000906001600160a01b0384169063fefbd8759060240160206040518083038186803b15801561143757600080fd5b505afa15801561144b573d6000803e3d6000fd5b505050506040513d601f19601f8201168201806040525081019061146f9190611f0a565b6040516319a73c8360e31b81526001600160a01b0384811660048301529192509082169063cd39e4189060240160206040518083038186803b1580156114b457600080fd5b505afa1580156114c8573d6000803e3d6000fd5b505050506040513d601f19601f820116820180604052508101906114ec9190612005565b6115255760405162461bcd60e51b815260206004820152600a60248201526937b7363ca930b4b9b2b960b11b6044820152606401610304565b505050565b6040805160808101825260008082526020820181905291810182905260608101919091525a81600001818152505043826001600160a01b031663b21634826040518163ffffffff1660e01b815260040160206040518083038186803b15801561159257600080fd5b505afa1580156115a6573d6000803e3d6000fd5b505050506040513d601f19601f820116820180604052508101906115ca919061224d565b141561160b5760405162461bcd60e51b815260206004820152601060248201526f1c99595b9d1c985b98de4819dd585c9960821b6044820152606401610304565b816001600160a01b03166310fdb0a26040518163ffffffff1660e01b8152600401600060405180830381600087803b15801561164657600080fd5b505af115801561165a573d6000803e3d6000fd5b50506040516372c6838f60e01b81527f1f2fd42ad6a6cacd573c4b212beb7a4e2499ad45d742a65337097f130e71daff6004820152600092506001600160a01b03851691506372c6838f9060240160206040518083038186803b1580156116c057600080fd5b505afa1580156116d4573d6000803e3d6000fd5b505050506040513d601f19601f820116820180604052508101906116f89190611f0a565b90506001600160a01b03811661171457600060208301526117b0565b6001600160a01b038181166060840181905283516040516343a8a3f160e01b8152928616600484015260248301526000918291906343a8a3f190604401604080518083038186803b15801561176857600080fd5b505afa15801561177c573d6000803e3d6000fd5b505050506040513d601f19601f820116820180604052508101906117a0919061201f565b9015156020860152604085015250505b50919050565b604051632c9f4b5b60e11b81527feadd166fac11c69a9d01b14cdd03f0902ebe2a3d90e6e17ced26382b23bfe1c4600482015260009081906001600160a01b0386169063593e96b69060240160206040518083038186803b15801561181a57600080fd5b505afa15801561182e573d6000803e3d6000fd5b505050506040513d601f19601f820116820180604052508101906118529190611f0a565b6040516370a0823160e01b81526001600160a01b038681166004830152919250600091670de0b6b3a764000091908416906370a082319060240160206040518083038186803b1580156118a457600080fd5b505afa1580156118b8573d6000803e3d6000fd5b505050506040513d601f19601f820116820180604052508101906118dc919061224d565b6118e691906123c0565b9050600081116118fb57600092505050610214565b677fffffffffffffff811061191557603292505050610214565b6000826001600160a01b0316633dfa8b0f6040518163ffffffff1660e01b815260040160206040518083038186803b15801561195057600080fd5b505afa158015611964573d6000803e3d6000fd5b505050506040513d601f19601f820116820180604052508101906119889190612226565b6001600160801b031660011480611a1957506000836001600160a01b0316633dfa8b0f6040518163ffffffff1660e01b815260040160206040518083038186803b1580156119d557600080fd5b505afa1580156119e9573d6000803e3d6000fd5b505050506040513d601f19601f82011682018060405250810190611a0d9190612226565b6001600160801b031611155b15611a2357611b3f565b826001600160a01b0316630dd06f8d6040518163ffffffff1660e01b815260040160206040518083038186803b158015611a5c57600080fd5b505afa158015611a70573d6000803e3d6000fd5b505050506040513d601f19601f82011682018060405250810190611a949190612226565b836001600160a01b0316630a28a67b6040518163ffffffff1660e01b815260040160206040518083038186803b158015611acd57600080fd5b505afa158015611ae1573d6000803e3d6000fd5b505050506040513d601f19601f82011682018060405250810190611b059190612226565b611b1e611b19611b1486611cd6565b611cf4565b611dd8565b67ffffffffffffffff16611b3291906123e0565b611b3c919061237d565b90505b9695505050505050565b611b54828233611df4565b5050565b604051632c9f4b5b60e11b81527f67e84d3ef18b24e32f9a9b2e9bac9e7ea8cde2f146ce512d44b9d6718a1f3ca0600482015260009081906001600160a01b0385169063593e96b69060240160206040518083038186803b158015611bbc57600080fd5b505afa158015611bd0573d6000803e3d6000fd5b505050506040513d601f19601f82011682018060405250810190611bf49190611f0a565b6001600160a01b031663a8d0fe0d6040518163ffffffff1660e01b815260040160006040518083038186803b158015611c2c57600080fd5b505afa158015611c40573d6000803e3d6000fd5b505050506040513d6000823e601f3d908101601f19168201604052611c689190810190611f51565b90506000805b82518160ff161015611ccd57611caf86848360ff1681518110611ca157634e487b7160e01b600052603260045260246000fd5b6020026020010151876117b6565b611cb9908361237d565b915080611cc581612445565b915050611c6e565b50949350505050565b6000677fffffffffffffff821115611ced57600080fd5b5060401b90565b60008082600f0b13611d0557600080fd5b6000600f83900b680100000000000000008112611d24576040918201911d5b6401000000008112611d38576020918201911d5b620100008112611d4a576010918201911d5b6101008112611d5b576008918201911d5b60108112611d6b576004918201911d5b60048112611d7b576002918201911d5b60028112611d8a576001820191505b603f19820160401b600f85900b607f8490031b6780000000000000005b6000811315611dcd5790800260ff81901c8281029390930192607f011c9060011d611da7565b509095945050505050565b60008082600f0b1215611dea57600080fd5b50600f0b60401d90565b816020015115611e925781606001516001600160a01b0316635e5eb01384835a8651611e20919061242e565b60408088015190516001600160e01b031960e087901b1681526001600160a01b03948516600482015293909216602484015260448301526064820152608401600060405180830381600087803b158015611e7957600080fd5b505af1158015611e8d573d6000803e3d6000fd5b505050505b826001600160a01b031663d4f7af436040518163ffffffff1660e01b8152600401600060405180830381600087803b158015611ecd57600080fd5b505af1158015611ee1573d6000803e3d6000fd5b50505050505050565b8035611ef5816124a7565b919050565b80518015158114611ef557600080fd5b600060208284031215611f1b578081fd5b8151610214816124a7565b60008060408385031215611f38578081fd5b8235611f43816124a7565b946020939093013593505050565b60006020808385031215611f63578182fd5b825167ffffffffffffffff80821115611f7a578384fd5b818501915085601f830112611f8d578384fd5b815181811115611f9f57611f9f612491565b8060051b9150611fb084830161234c565b8181528481019084860184860187018a1015611fca578788fd5b8795505b83861015611ff85780519450611fe3856124a7565b84835260019590950194918601918601611fce565b5098975050505050505050565b600060208284031215612016578081fd5b61021482611efa565b60008060408385031215612031578182fd5b61203a83611efa565b9150602083015190509250929050565b60006020828403121561205b578081fd5b8135610214816124a7565b6000806000806080858703121561207b578182fd5b8435612086816124a7565b9350602085810135612097816124a7565b9350604086013567ffffffffffffffff808211156120b3578485fd5b818801915088601f8301126120c6578485fd5b8135818111156120d8576120d8612491565b6120ea601f8201601f1916850161234c565b915080825289848285010111156120ff578586fd5b8084840185840137810190920193909352915061211e60608601611eea565b905092959194509250565b60008060408385031215611f38578182fd5b60008060008060608587031215612150578384fd5b843561215b816124a7565b935060208501359250604085013567ffffffffffffffff8082111561217e578384fd5b818701915087601f830112612191578384fd5b81358181111561219f578485fd5b8860208285010111156121b0578485fd5b95989497505060200194505050565b6000806000606084860312156121d3578283fd5b83356121de816124a7565b95602085013595506040909401359392505050565b6000806000606084860312156121d3578081fd5b600060208284031215612218578081fd5b815160028110610214578182fd5b600060208284031215612237578081fd5b81516001600160801b0381168114610214578182fd5b60006020828403121561225e578081fd5b5051919050565b600060208284031215612276578081fd5b815163ffffffff81168114610214578182fd5b82815260408101600383106122a0576122a061247b565b8260208301529392505050565b60208101600d83106122c1576122c161247b565b91905290565b60608101600685106122db576122db61247b565b9381526001600160801b039283166020820152911660409091015290565b6000602080835283518082850152825b8181101561232557858101830151858201604001528201612309565b818111156123365783604083870101525b50601f01601f1916929092016040019392505050565b604051601f8201601f1916810167ffffffffffffffff8111828210171561237557612375612491565b604052919050565b60006001600160801b0380831681851680830382111561239f5761239f612465565b01949350505050565b600082198211156123bb576123bb612465565b500190565b6000826123db57634e487b7160e01b81526012600452602481fd5b500490565b60006001600160801b038083168185168183048111821515161561240657612406612465565b02949350505050565b600081600019048311821515161561242957612429612465565b500290565b60008282101561244057612440612465565b500390565b600060ff821660ff81141561245c5761245c612465565b60010192915050565b634e487b7160e01b600052601160045260246000fd5b634e487b7160e01b600052602160045260246000fd5b634e487b7160e01b600052604160045260246000fd5b6001600160a01b03811681146124bc57600080fd5b5056fea2646970667358221220bbb8048aad562b87cf8b564174639ac6af0af48e9d3eb63cbd775ae027a68a8f64736f6c63430008040033",
  "linkReferences": {},
  "deployedLinkReferences": {}
}