{
  "_format": "hh-sol-artifact-1",
  "contractName": "GPVotingContract",
  "sourceName": "contracts/adapters/voting/GPVoting.sol",
  "abi": [
    {
      "anonymous": false,
      "inputs": [
        {
          "indexed": false,
          "internalType": "uint256",
          "name": "votingPeriod",
          "type": "uint256"
        },
        {
          "indexed": false,
          "internalType": "uint256",
          "name": "gracePeriod",
          "type": "uint256"
        }
      ],
      "name": "ConfigureDao",
      "type": "event"
    },
    {
      "anonymous": false,
      "inputs": [
        {
          "indexed": false,
          "internalType": "bytes32",
          "name": "proposalId",
          "type": "bytes32"
        },
        {
          "indexed": false,
          "internalType": "uint256",
          "name": "blocktime",
          "type": "uint256"
        },
        {
          "indexed": false,
          "internalType": "address",
          "name": "voter",
          "type": "address"
        },
        {
          "indexed": false,
          "internalType": "uint128",
          "name": "origenalVotingWeight",
          "type": "uint128"
        },
        {
          "indexed": false,
          "internalType": "uint256",
          "name": "origenalVoteValue",
          "type": "uint256"
        }
      ],
      "name": "RevokeVote",
      "type": "event"
    },
    {
      "anonymous": false,
      "inputs": [
        {
          "indexed": false,
          "internalType": "address",
          "name": "daoAddr",
          "type": "address"
        },
        {
          "indexed": false,
          "internalType": "bytes32",
          "name": "proposalId",
          "type": "bytes32"
        },
        {
          "indexed": false,
          "internalType": "uint256",
          "name": "votestartingTime",
          "type": "uint256"
        },
        {
          "indexed": false,
          "internalType": "uint256",
          "name": "voteblockNumber",
          "type": "uint256"
        }
      ],
      "name": "StartNewVotingForProposal",
      "type": "event"
    },
    {
      "anonymous": false,
      "inputs": [
        {
          "indexed": false,
          "internalType": "address",
          "name": "daoAddr",
          "type": "address"
        },
        {
          "indexed": false,
          "internalType": "bytes32",
          "name": "proposalId",
          "type": "bytes32"
        },
        {
          "indexed": false,
          "internalType": "uint256",
          "name": "blocktime",
          "type": "uint256"
        },
        {
          "indexed": false,
          "internalType": "address",
          "name": "voter",
          "type": "address"
        },
        {
          "indexed": false,
          "internalType": "uint256",
          "name": "voteValue",
          "type": "uint256"
        },
        {
          "indexed": false,
          "internalType": "uint128",
          "name": "votingWeight",
          "type": "uint128"
        },
        {
          "indexed": false,
          "internalType": "uint128",
          "name": "nbYes",
          "type": "uint128"
        },
        {
          "indexed": false,
          "internalType": "uint128",
          "name": "nbNo",
          "type": "uint128"
        }
      ],
      "name": "SubmitVote",
      "type": "event"
    },
    {
      "anonymous": false,
      "inputs": [
        {
          "indexed": false,
          "internalType": "bytes32",
          "name": "proposalId",
          "type": "bytes32"
        },
        {
          "indexed": false,
          "internalType": "uint256",
          "name": "blocktime",
          "type": "uint256"
        },
        {
          "indexed": false,
          "internalType": "address",
          "name": "voter",
          "type": "address"
        },
        {
          "indexed": false,
          "internalType": "uint128",
          "name": "oldVotingWeight",
          "type": "uint128"
        },
        {
          "indexed": false,
          "internalType": "uint128",
          "name": "newVotingWeight",
          "type": "uint128"
        },
        {
          "indexed": false,
          "internalType": "uint128",
          "name": "nbYes",
          "type": "uint128"
        },
        {
          "indexed": false,
          "internalType": "uint128",
          "name": "nbNo",
          "type": "uint128"
        }
      ],
      "name": "UpdateVoteWeight",
      "type": "event"
    },
    {
      "inputs": [],
      "name": "ADAPTER_NAME",
      "outputs": [
        {
          "internalType": "string",
          "name": "",
          "type": "string"
        }
      ],
      "stateMutability": "view",
      "type": "function"
    },
    {
      "inputs": [
        {
          "internalType": "contract DaoRegistry",
          "name": "dao",
          "type": "address"
        },
        {
          "internalType": "bytes32",
          "name": "proposalId",
          "type": "bytes32"
        },
        {
          "internalType": "address",
          "name": "voterAddr",
          "type": "address"
        }
      ],
      "name": "checkIfVoted",
      "outputs": [
        {
          "internalType": "bool",
          "name": "",
          "type": "bool"
        }
      ],
      "stateMutability": "view",
      "type": "function"
    },
    {
      "inputs": [
        {
          "internalType": "contract DaoRegistry",
          "name": "dao",
          "type": "address"
        },
        {
          "internalType": "uint256",
          "name": "votingPeriod",
          "type": "uint256"
        },
        {
          "internalType": "uint256",
          "name": "gracePeriod",
          "type": "uint256"
        }
      ],
      "name": "configureDao",
      "outputs": [],
      "stateMutability": "nonpayable",
      "type": "function"
    },
    {
      "inputs": [],
      "name": "getAdapterName",
      "outputs": [
        {
          "internalType": "string",
          "name": "",
          "type": "string"
        }
      ],
      "stateMutability": "pure",
      "type": "function"
    },
    {
      "inputs": [
        {
          "internalType": "contract DaoRegistry",
          "name": "dao",
          "type": "address"
        }
      ],
      "name": "getAllGPWeight",
      "outputs": [
        {
          "internalType": "uint128",
          "name": "",
          "type": "uint128"
        }
      ],
      "stateMutability": "view",
      "type": "function"
    },
    {
      "inputs": [
        {
          "internalType": "contract DaoRegistry",
          "name": "",
          "type": "address"
        },
        {
          "internalType": "address",
          "name": "",
          "type": "address"
        },
        {
          "internalType": "bytes",
          "name": "",
          "type": "bytes"
        },
        {
          "internalType": "address",
          "name": "sender",
          "type": "address"
        }
      ],
      "name": "getSenderAddress",
      "outputs": [
        {
          "internalType": "address",
          "name": "",
          "type": "address"
        }
      ],
      "stateMutability": "pure",
      "type": "function"
    },
    {
      "inputs": [
        {
          "internalType": "contract DaoRegistry",
          "name": "dao",
          "type": "address"
        },
        {
          "internalType": "bytes32",
          "name": "proposalId",
          "type": "bytes32"
        },
        {
          "internalType": "uint256",
          "name": "projectVotingTimestamp",
          "type": "uint256"
        },
        {
          "internalType": "bytes",
          "name": "",
          "type": "bytes"
        }
      ],
      "name": "startNewVotingForProposal",
      "outputs": [],
      "stateMutability": "nonpayable",
      "type": "function"
    },
    {
      "inputs": [
        {
          "internalType": "contract DaoRegistry",
          "name": "dao",
          "type": "address"
        },
        {
          "internalType": "bytes32",
          "name": "proposalId",
          "type": "bytes32"
        },
        {
          "internalType": "uint256",
          "name": "voteValue",
          "type": "uint256"
        }
      ],
      "name": "submitVote",
      "outputs": [],
      "stateMutability": "nonpayable",
      "type": "function"
    },
    {
      "inputs": [
        {
          "internalType": "contract DaoRegistry",
          "name": "dao",
          "type": "address"
        },
        {
          "internalType": "bytes32",
          "name": "proposalId",
          "type": "bytes32"
        }
      ],
      "name": "voteResult",
      "outputs": [
        {
          "internalType": "enum IGPVoting.VotingState",
          "name": "state",
          "type": "uint8"
        },
        {
          "internalType": "uint128",
          "name": "nbYes",
          "type": "uint128"
        },
        {
          "internalType": "uint128",
          "name": "nbNo",
          "type": "uint128"
        }
      ],
      "stateMutability": "view",
      "type": "function"
    },
    {
      "inputs": [
        {
          "internalType": "address",
          "name": "",
          "type": "address"
        },
        {
          "internalType": "bytes32",
          "name": "",
          "type": "bytes32"
        },
        {
          "internalType": "address",
          "name": "",
          "type": "address"
        }
      ],
      "name": "voteWeights",
      "outputs": [
        {
          "internalType": "uint128",
          "name": "",
          "type": "uint128"
        }
      ],
      "stateMutability": "view",
      "type": "function"
    },
    {
      "inputs": [
        {
          "internalType": "address",
          "name": "",
          "type": "address"
        },
        {
          "internalType": "bytes32",
          "name": "",
          "type": "bytes32"
        }
      ],
      "name": "votes",
      "outputs": [
        {
          "internalType": "uint128",
          "name": "nbYes",
          "type": "uint128"
        },
        {
          "internalType": "uint128",
          "name": "nbNo",
          "type": "uint128"
        },
        {
          "internalType": "uint256",
          "name": "startingTime",
          "type": "uint256"
        },
        {
          "internalType": "uint256",
          "name": "blockNumber",
          "type": "uint256"
        },
        {
          "internalType": "uint256",
          "name": "voters",
          "type": "uint256"
        }
      ],
      "stateMutability": "view",
      "type": "function"
    }
  ],
  "bytecode": "0x608060405234801561001057600080fd5b5061262d806100206000396000f3fe608060405234801561001057600080fd5b50600436106100a95760003560e01c806376225e731161007157806376225e73146101b75780637cb337f6146101d95780637fd3cd8b1461020457806391d2fd5314610233578063966917d01461026c578063a60e68fe1461029957600080fd5b80631db5ade8146100ae5780631f86f5b31461013757806324a2cceb1461016c57806326078cd01461018f578063325b72f2146101a4575b600080fd5b6100ff6100bc366004612010565b6001602081815260009384526040808520909152918352912080549181015460028201546003909201546001600160801b0380851694600160801b900416929085565b604080516001600160801b039687168152959094166020860152928401919091526060830152608082015260a0015b60405180910390f35b60408051808201909152601081526f11d4159bdd1a5b99d0dbdb9d1c9858dd60821b60208201525b60405161012e9190612431565b61017f61017a366004612266565b6102ac565b604051901515815260200161012e565b6101a261019d3660046122ae565b6102fb565b005b6101a26101b236600461227a565b610441565b6101ca6101c5366004612254565b610b19565b60405161012e939291906123ff565b6101ec6101e7366004612175565b6110c2565b6040516001600160801b03909116815260200161012e565b61015f6040518060400160405280601081526020016f11d4159bdd1a5b99d0dbdb9d1c9858dd60821b81525081565b6101ec61024136600461203b565b600060208181529381526040808220855292815282812090935282529020546001600160801b031681565b61028161027a366004612191565b9392505050565b6040516001600160a01b03909116815260200161012e565b6101a26102a736600461227a565b6111ea565b6001600160a01b03808416600090815260016020908152604080832086845282528083209385168352600484019091528120549091906102f057600091505061027a565b506001949350505050565b6040516368c18beb60e01b815233600482015285906001600160a01b038216906368c18beb9060240160206040518083038186803b15801561033c57600080fd5b505afa158015610350573d6000803e3d6000fd5b505050506040513d601f19601f820116820180604052508101906103749190612130565b806103835750610383816112b2565b6103c25760405162461bcd60e51b815260206004820152600b60248201526a37b7363ca0b230b83a32b960a91b60448201526064015b60405180910390fd5b6001600160a01b03861660008181526001602081815260408084208a85528252928390209182018890554360028301819055835194855290840189905242848401526060840152905190917f21af5d881aa8442475abc2be295d24c036524242db2bebe1b628b51ae5aba528919081900360800190a150505050505050565b8261044c81336114bf565b83600061045882611614565b60405163f941f69160e01b81529091506001600160a01b0387169063f941f6919061048a9088906001906004016123c1565b60206040518083038186803b1580156104a257600080fd5b505afa1580156104b6573d6000803e3d6000fd5b505050506040513d601f19601f820116820180604052508101906104da9190612130565b6105365760405162461bcd60e51b815260206004820152602760248201527f7468652070726f706f73616c20686173206e6f74206265656e2073706f6e736f6044820152661c9959081e595d60ca1b60648201526084016103b9565b60405163f941f69160e01b81526001600160a01b0387169063f941f691906105659088906002906004016123c1565b60206040518083038186803b15801561057d57600080fd5b505afa158015610591573d6000803e3d6000fd5b505050506040513d601f19601f820116820180604052508101906105b59190612130565b156106125760405162461bcd60e51b815260206004820152602760248201527f7468652070726f706f73616c2068617320616c7265616479206265656e2070726044820152661bd8d95cdcd95960ca1b60648201526084016103b9565b6003841080156106225750600084115b6106825760405162461bcd60e51b815260206004820152602b60248201527f6f6e6c79207965732028312920616e64206e6f202832292061726520706f737360448201526a69626c652076616c75657360a81b60648201526084016103b9565b6001600160a01b038616600090815260016020818152604080842089855290915290912090810154421180156106bc575060008160010154115b61072e5760405162461bcd60e51b815260206004820152603a60248201527f4750566f74696e673a3a7375626d6974566f74653a3a746869732070726f706f60448201527f73616c496420686173206e6f7420737461727420766f74696e6700000000000060648201526084016103b9565b604051634941d71d60e11b81527f9876c0f0505bfb2b1c38d3bbd25ba13159172cd0868972d76927723f5a9480fc60048201526001600160a01b03881690639283ae3a9060240160206040518083038186803b15801561078d57600080fd5b505afa1580156107a1573d6000803e3d6000fd5b505050506040513d601f19601f820116820180604052508101906107c59190612385565b81600101546107d491906124e0565b42106108115760405162461bcd60e51b815260206004820152600c60248201526b1d9bdd1a5b99c8195b99195960a21b60448201526064016103b9565b336000908152600482016020526040902054156108705760405162461bcd60e51b815260206004820152601860248201527f6d656d6265722068617320616c726561647920766f746564000000000000000060448201526064016103b9565b604051632c9f4b5b60e11b81527feadd166fac11c69a9d01b14cdd03f0902ebe2a3d90e6e17ced26382b23bfe1c460048201526000906001600160a01b0389169063593e96b69060240160206040518083038186803b1580156108d257600080fd5b505afa1580156108e6573d6000803e3d6000fd5b505050506040513d601f19601f8201168201806040525081019061090a9190611ff4565b90506000816001600160a01b031663c68491ea6040518163ffffffff1660e01b815260040160206040518083038186803b15801561094757600080fd5b505afa15801561095b573d6000803e3d6000fd5b505050506040513d601f19601f8201168201806040525081019061097f9190611ff4565b9050600061098e8a33846118a0565b6109999060016124b5565b6001600160a01b038b166000908152602081815260408083208d84528252808320338452825280832080546001600160801b0319166001600160801b0386161790556004880190915281208a9055600386018054929350600192909190610a019084906124e0565b90915550506001881415610a45578354610a259082906001600160801b03166124b5565b84546001600160801b0319166001600160801b0391909116178455610a84565b8760021415610a84578354610a6b908290600160801b90046001600160801b03166124b5565b84546001600160801b03918216600160801b0291161784555b8354604080516001600160a01b038d168152602081018c90524281830152336060820152608081018b90526001600160801b0384811660a083015280841660c0830152600160801b90930490921660e0830152517fcdc3d5c5cd9f25e2b681a6f4a071e61708f089cb0362e56b8355b7992dd5f247918190036101000190a150505050610b118282611c33565b505050505050565b6001600160a01b0382166000908152600160208181526040808420858552909152822090810154829182914211610b6c5754600093506001600160801b038082169350600160801b9091041690506110bb565b604051634941d71d60e11b81527f9876c0f0505bfb2b1c38d3bbd25ba13159172cd0868972d76927723f5a9480fc60048201526001600160a01b03871690639283ae3a9060240160206040518083038186803b158015610bcb57600080fd5b505afa158015610bdf573d6000803e3d6000fd5b505050506040513d601f19601f82011682018060405250810190610c039190612385565b8160010154610c1291906124e0565b421015610c3b5754600493506001600160801b038082169350600160801b9091041690506110bb565b60405163af3138cd60e01b81526000906001600160a01b0388169063af3138cd90610c6a9084906004016123e5565b60206040518083038186803b158015610c8257600080fd5b505afa158015610c96573d6000803e3d6000fd5b505050506040513d601f19601f82011682018060405250810190610cba919061239d565b63ffffffff166003811115610cdf57634e487b7160e01b600052602160045260246000fd5b90506000610cec886110c2565b90506001826003811115610d1057634e487b7160e01b600052602160045260246000fd5b1480610d3b57506003826003811115610d3957634e487b7160e01b600052602160045260246000fd5b145b15610e4c57604051634941d71d60e11b81527f0324de13a5a6e302ddb95a9fdf81cc736fc8acee2abe558970daac27395904e760048201526000906064906001600160a01b038b1690639283ae3a9060240160206040518083038186803b158015610da557600080fd5b505afa158015610db9573d6000803e3d6000fd5b505050506040513d601f19601f82011682018060405250810190610ddd9190612385565b610df0906001600160801b038516612547565b610dfa91906124f8565b84549091506001600160801b03808216600160801b9092048116919091011681811015610e495750509154600395506001600160801b038082169550600160801b9091041692506110bb915050565b50505b6000826003811115610e6e57634e487b7160e01b600052602160045260246000fd5b1480610e9957506001826003811115610e9757634e487b7160e01b600052602160045260246000fd5b145b15610f405782546001600160801b03600160801b8204811691161115610edd57505054600293506001600160801b038082169350600160801b9091041690506110bb565b82546001600160801b03600160801b8204811691161015610f1c57505054600393506001600160801b038082169350600160801b9091041690506110bb565b505054600193506001600160801b038082169350600160801b9091041690506110bb565b604051634941d71d60e11b81527fb4c601c38beae7eebb719eda3438f59fcbfd4c6dd7d38c00665b6fd5b432df3260048201526000906064906001600160a01b038b1690639283ae3a9060240160206040518083038186803b158015610fa557600080fd5b505afa158015610fb9573d6000803e3d6000fd5b505050506040513d601f19601f82011682018060405250810190610fdd9190612385565b8554610ffb906001600160801b03600160801b8204811691166124b5565b6001600160801b031661100e9190612547565b61101891906124f8565b905080158015611030575083546001600160801b0316155b1561105c5750509054600194506001600160801b038082169450600160801b9091041691506110bb9050565b83546001600160801b031681116110945750509054600294506001600160801b038082169450600160801b9091041691506110bb9050565b50509054600394506001600160801b038082169450600160801b9091041691506110bb9050565b9250925092565b604051632c9f4b5b60e11b81527feadd166fac11c69a9d01b14cdd03f0902ebe2a3d90e6e17ced26382b23bfe1c4600482015260009081906001600160a01b0384169063593e96b69060240160206040518083038186803b15801561112657600080fd5b505afa15801561113a573d6000803e3d6000fd5b505050506040513d601f19601f8201168201806040525081019061115e9190611ff4565b90506000816001600160a01b031663c68491ea6040518163ffffffff1660e01b815260040160206040518083038186803b15801561119b57600080fd5b505afa1580156111af573d6000803e3d6000fd5b505050506040513d601f19601f820116820180604052508101906111d39190611ff4565b905060006111e18583611c42565b95945050505050565b6040516368c18beb60e01b815233600482015283906001600160a01b038216906368c18beb9060240160206040518083038186803b15801561122b57600080fd5b505afa15801561123f573d6000803e3d6000fd5b505050506040513d601f19601f820116820180604052508101906112639190612130565b806112725750611272816112b2565b6112ac5760405162461bcd60e51b815260206004820152600b60248201526a37b7363ca0b230b83a32b960a91b60448201526064016103b9565b50505050565b600080826001600160a01b031663c19d93fb6040518163ffffffff1660e01b815260040160206040518083038186803b1580156112ee57600080fd5b505afa158015611302573d6000803e3d6000fd5b505050506040513d601f19601f82011682018060405250810190611326919061233f565b600181111561134557634e487b7160e01b600052602160045260246000fd5b1480156114b95750816001600160a01b031663c67143666040518163ffffffff1660e01b815260040160206040518083038186803b15801561138657600080fd5b505afa15801561139a573d6000803e3d6000fd5b505050506040513d601f19601f820116820180604052508101906113be9190612385565b158061143c575060405163288c314960e21b81523360048201526001600160a01b0383169063a230c5249060240160206040518083038186803b15801561140457600080fd5b505afa158015611418573d6000803e3d6000fd5b505050506040513d601f19601f8201168201806040525081019061143c9190612130565b806114b957506040516368c18beb60e01b81523360048201526001600160a01b038316906368c18beb9060240160206040518083038186803b15801561148157600080fd5b505afa158015611495573d6000803e3d6000fd5b505050506040513d601f19601f820116820180604052508101906114b99190612130565b92915050565b60405163fefbd87560e01b81527f67e84d3ef18b24e32f9a9b2e9bac9e7ea8cde2f146ce512d44b9d6718a1f3ca060048201526000906001600160a01b0384169063fefbd8759060240160206040518083038186803b15801561152157600080fd5b505afa158015611535573d6000803e3d6000fd5b505050506040513d601f19601f820116820180604052508101906115599190611ff4565b6040516319a73c8360e31b81526001600160a01b0384811660048301529192509082169063cd39e4189060240160206040518083038186803b15801561159e57600080fd5b505afa1580156115b2573d6000803e3d6000fd5b505050506040513d601f19601f820116820180604052508101906115d69190612130565b61160f5760405162461bcd60e51b815260206004820152600a60248201526937b7363ca930b4b9b2b960b11b60448201526064016103b9565b505050565b6040805160808101825260008082526020820181905291810182905260608101919091525a81600001818152505043826001600160a01b031663b21634826040518163ffffffff1660e01b815260040160206040518083038186803b15801561167c57600080fd5b505afa158015611690573d6000803e3d6000fd5b505050506040513d601f19601f820116820180604052508101906116b49190612385565b14156116f55760405162461bcd60e51b815260206004820152601060248201526f1c99595b9d1c985b98de4819dd585c9960821b60448201526064016103b9565b816001600160a01b03166310fdb0a26040518163ffffffff1660e01b8152600401600060405180830381600087803b15801561173057600080fd5b505af1158015611744573d6000803e3d6000fd5b50506040516372c6838f60e01b81527f1f2fd42ad6a6cacd573c4b212beb7a4e2499ad45d742a65337097f130e71daff6004820152600092506001600160a01b03851691506372c6838f9060240160206040518083038186803b1580156117aa57600080fd5b505afa1580156117be573d6000803e3d6000fd5b505050506040513d601f19601f820116820180604052508101906117e29190611ff4565b90506001600160a01b0381166117fe576000602083015261189a565b6001600160a01b038181166060840181905283516040516343a8a3f160e01b8152928616600484015260248301526000918291906343a8a3f190604401604080518083038186803b15801561185257600080fd5b505afa158015611866573d6000803e3d6000fd5b505050506040513d601f19601f8201168201806040525081019061188a919061214a565b9015156020860152604085015250505b50919050565b604051632c9f4b5b60e11b81527feadd166fac11c69a9d01b14cdd03f0902ebe2a3d90e6e17ced26382b23bfe1c4600482015260009081906001600160a01b0386169063593e96b69060240160206040518083038186803b15801561190457600080fd5b505afa158015611918573d6000803e3d6000fd5b505050506040513d601f19601f8201168201806040525081019061193c9190611ff4565b6040516370a0823160e01b81526001600160a01b038681166004830152919250600091670de0b6b3a764000091908416906370a082319060240160206040518083038186803b15801561198e57600080fd5b505afa1580156119a2573d6000803e3d6000fd5b505050506040513d601f19601f820116820180604052508101906119c69190612385565b6119d091906124f8565b9050600081116119e55760009250505061027a565b677fffffffffffffff81106119ff5760329250505061027a565b6000826001600160a01b0316633dfa8b0f6040518163ffffffff1660e01b815260040160206040518083038186803b158015611a3a57600080fd5b505afa158015611a4e573d6000803e3d6000fd5b505050506040513d601f19601f82011682018060405250810190611a72919061235e565b6001600160801b031660011480611b0357506000836001600160a01b0316633dfa8b0f6040518163ffffffff1660e01b815260040160206040518083038186803b158015611abf57600080fd5b505afa158015611ad3573d6000803e3d6000fd5b505050506040513d601f19601f82011682018060405250810190611af7919061235e565b6001600160801b031611155b15611b0d57611c29565b826001600160a01b0316630dd06f8d6040518163ffffffff1660e01b815260040160206040518083038186803b158015611b4657600080fd5b505afa158015611b5a573d6000803e3d6000fd5b505050506040513d601f19601f82011682018060405250810190611b7e919061235e565b836001600160a01b0316630a28a67b6040518163ffffffff1660e01b815260040160206040518083038186803b158015611bb757600080fd5b505afa158015611bcb573d6000803e3d6000fd5b505050506040513d601f19601f82011682018060405250810190611bef919061235e565b611c08611c03611bfe86611dc0565b611dde565b611ec2565b67ffffffffffffffff16611c1c9190612518565b611c2691906124b5565b90505b9695505050505050565b611c3e828233611ede565b5050565b604051632c9f4b5b60e11b81527f67e84d3ef18b24e32f9a9b2e9bac9e7ea8cde2f146ce512d44b9d6718a1f3ca0600482015260009081906001600160a01b0385169063593e96b69060240160206040518083038186803b158015611ca657600080fd5b505afa158015611cba573d6000803e3d6000fd5b505050506040513d601f19601f82011682018060405250810190611cde9190611ff4565b6001600160a01b031663a8d0fe0d6040518163ffffffff1660e01b815260040160006040518083038186803b158015611d1657600080fd5b505afa158015611d2a573d6000803e3d6000fd5b505050506040513d6000823e601f3d908101601f19168201604052611d52919081019061207c565b90506000805b82518160ff161015611db757611d9986848360ff1681518110611d8b57634e487b7160e01b600052603260045260246000fd5b6020026020010151876118a0565b611da390836124b5565b915080611daf8161257d565b915050611d58565b50949350505050565b6000677fffffffffffffff821115611dd757600080fd5b5060401b90565b60008082600f0b13611def57600080fd5b6000600f83900b680100000000000000008112611e0e576040918201911d5b6401000000008112611e22576020918201911d5b620100008112611e34576010918201911d5b6101008112611e45576008918201911d5b60108112611e55576004918201911d5b60048112611e65576002918201911d5b60028112611e74576001820191505b603f19820160401b600f85900b607f8490031b6780000000000000005b6000811315611eb75790800260ff81901c8281029390930192607f011c9060011d611e91565b509095945050505050565b60008082600f0b1215611ed457600080fd5b50600f0b60401d90565b816020015115611f7c5781606001516001600160a01b0316635e5eb01384835a8651611f0a9190612566565b60408088015190516001600160e01b031960e087901b1681526001600160a01b03948516600482015293909216602484015260448301526064820152608401600060405180830381600087803b158015611f6357600080fd5b505af1158015611f77573d6000803e3d6000fd5b505050505b826001600160a01b031663d4f7af436040518163ffffffff1660e01b8152600401600060405180830381600087803b158015611fb757600080fd5b505af1158015611fcb573d6000803e3d6000fd5b50505050505050565b8035611fdf816125df565b919050565b80518015158114611fdf57600080fd5b600060208284031215612005578081fd5b815161027a816125df565b60008060408385031215612022578081fd5b823561202d816125df565b946020939093013593505050565b60008060006060848603121561204f578081fd5b833561205a816125df565b9250602084013591506040840135612071816125df565b809150509250925092565b6000602080838503121561208e578182fd5b825167ffffffffffffffff808211156120a5578384fd5b818501915085601f8301126120b8578384fd5b8151818111156120ca576120ca6125c9565b8060051b91506120db848301612484565b8181528481019084860184860187018a10156120f5578788fd5b8795505b83861015612123578051945061210e856125df565b848352600195909501949186019186016120f9565b5098975050505050505050565b600060208284031215612141578081fd5b61027a82611fe4565b6000806040838503121561215c578182fd5b61216583611fe4565b9150602083015190509250929050565b600060208284031215612186578081fd5b813561027a816125df565b600080600080608085870312156121a6578081fd5b84356121b1816125df565b93506020858101356121c2816125df565b9350604086013567ffffffffffffffff808211156121de578384fd5b818801915088601f8301126121f1578384fd5b813581811115612203576122036125c9565b612215601f8201601f19168501612484565b9150808252898482850101111561222a578485fd5b8084840185840137810190920183905250915061224960608601611fd4565b905092959194509250565b60008060408385031215612022578182fd5b60008060006060848603121561204f578283fd5b60008060006060848603121561228e578081fd5b8335612299816125df565b95602085013595506040909401359392505050565b6000806000806000608086880312156122c5578283fd5b85356122d0816125df565b94506020860135935060408601359250606086013567ffffffffffffffff808211156122fa578283fd5b818801915088601f83011261230d578283fd5b81358181111561231b578384fd5b89602082850101111561232c578384fd5b9699959850939650602001949392505050565b600060208284031215612350578081fd5b81516002811061027a578182fd5b60006020828403121561236f578081fd5b81516001600160801b038116811461027a578182fd5b600060208284031215612396578081fd5b5051919050565b6000602082840312156123ae578081fd5b815163ffffffff8116811461027a578182fd5b82815260408101600383106123d8576123d86125b3565b8260208301529392505050565b60208101600d83106123f9576123f96125b3565b91905290565b6060810160068510612413576124136125b3565b9381526001600160801b039283166020820152911660409091015290565b6000602080835283518082850152825b8181101561245d57858101830151858201604001528201612441565b8181111561246e5783604083870101525b50601f01601f1916929092016040019392505050565b604051601f8201601f1916810167ffffffffffffffff811182821017156124ad576124ad6125c9565b604052919050565b60006001600160801b038083168185168083038211156124d7576124d761259d565b01949350505050565b600082198211156124f3576124f361259d565b500190565b60008261251357634e487b7160e01b81526012600452602481fd5b500490565b60006001600160801b038083168185168183048111821515161561253e5761253e61259d565b02949350505050565b60008160001904831182151516156125615761256161259d565b500290565b6000828210156125785761257861259d565b500390565b600060ff821660ff8114156125945761259461259d565b60010192915050565b634e487b7160e01b600052601160045260246000fd5b634e487b7160e01b600052602160045260246000fd5b634e487b7160e01b600052604160045260246000fd5b6001600160a01b03811681146125f457600080fd5b5056fea264697066735822122080d7221d443815b3872b6a82ed39ca1f1c1d48ace52242274cff7a91ef5a733f64736f6c63430008040033",
  "linkReferences": {},
  "deployedLinkReferences": {}
}