{
  "_format": "hh-sol-artifact-1",
  "contractName": "SummonDao",
  "sourceName": "contracts/SummonDao.sol",
  "abi": [
    {
      "inputs": [],
      "stateMutability": "nonpayable",
      "type": "constructor"
    },
    {
      "anonymous": false,
      "inputs": [
        {
          "indexed": false,
          "internalType": "address",
          "name": "daoFactoryAddress",
          "type": "address"
        },
        {
          "indexed": false,
          "internalType": "address",
          "name": "daoAddr",
          "type": "address"
        },
        {
          "indexed": false,
          "internalType": "string",
          "name": "name",
          "type": "string"
        },
        {
          "indexed": false,
          "internalType": "address",
          "name": "creator",
          "type": "address"
        }
      ],
      "name": "FlexDaoCreated",
      "type": "event"
    },
    {
      "anonymous": false,
      "inputs": [
        {
          "indexed": false,
          "internalType": "address",
          "name": "daoFactoryAddress",
          "type": "address"
        },
        {
          "indexed": false,
          "internalType": "address",
          "name": "daoAddr",
          "type": "address"
        },
        {
          "indexed": false,
          "internalType": "string",
          "name": "name",
          "type": "string"
        },
        {
          "indexed": false,
          "internalType": "address",
          "name": "creator",
          "type": "address"
        }
      ],
      "name": "VintageDaoCreated",
      "type": "event"
    },
    {
      "inputs": [
        {
          "components": [
            {
              "internalType": "address",
              "name": "target",
              "type": "address"
            },
            {
              "internalType": "bytes",
              "name": "callData",
              "type": "bytes"
            }
          ],
          "internalType": "struct SummonDao.Call[9]",
          "name": "calls",
          "type": "tuple[9]"
        }
      ],
      "name": "multiCall",
      "outputs": [],
      "stateMutability": "nonpayable",
      "type": "function"
    },
    {
      "inputs": [
        {
          "components": [
            {
              "internalType": "address[]",
              "name": "daoFactoriesAddress",
              "type": "address[]"
            },
            {
              "components": [
                {
                  "internalType": "bytes32",
                  "name": "id",
                  "type": "bytes32"
                },
                {
                  "internalType": "address",
                  "name": "addr",
                  "type": "address"
                },
                {
                  "internalType": "uint128",
                  "name": "flags",
                  "type": "uint128"
                }
              ],
              "internalType": "struct DaoFactory.Adapter[]",
              "name": "enalbeAdapters",
              "type": "tuple[]"
            },
            {
              "components": [
                {
                  "internalType": "bytes32",
                  "name": "id",
                  "type": "bytes32"
                },
                {
                  "internalType": "address",
                  "name": "addr",
                  "type": "address"
                },
                {
                  "internalType": "uint128",
                  "name": "flags",
                  "type": "uint128"
                }
              ],
              "internalType": "struct DaoFactory.Adapter[]",
              "name": "adapters1",
              "type": "tuple[]"
            },
            {
              "internalType": "bool",
              "name": "fundingPollEnable",
              "type": "bool"
            },
            {
              "components": [
                {
                  "internalType": "bool",
                  "name": "enable",
                  "type": "bool"
                },
                {
                  "internalType": "uint256",
                  "name": "maxParticipantsAmount",
                  "type": "uint256"
                }
              ],
              "internalType": "struct SummonDao.flexDaoParticipantCapInfo",
              "name": "_flexDaoParticipantCapInfo",
              "type": "tuple"
            },
            {
              "internalType": "bool",
              "name": "flexDaoParticipantMembetshipEnable",
              "type": "bool"
            },
            {
              "components": [
                {
                  "internalType": "string",
                  "name": "name",
                  "type": "string"
                },
                {
                  "internalType": "uint8",
                  "name": "varifyType",
                  "type": "uint8"
                },
                {
                  "internalType": "uint256",
                  "name": "minHolding",
                  "type": "uint256"
                },
                {
                  "internalType": "address",
                  "name": "tokenAddress",
                  "type": "address"
                },
                {
                  "internalType": "uint256",
                  "name": "tokenId",
                  "type": "uint256"
                },
                {
                  "internalType": "address[]",
                  "name": "whiteList",
                  "type": "address[]"
                }
              ],
              "internalType": "struct SummonDao.flexDaoPaticipantMembershipInfo",
              "name": "_flexDaoPaticipantMembershipInfos",
              "type": "tuple"
            },
            {
              "internalType": "bool",
              "name": "flexDaoPriorityDepositEnalbe",
              "type": "bool"
            },
            {
              "components": [
                {
                  "internalType": "uint8",
                  "name": "varifyType",
                  "type": "uint8"
                },
                {
                  "internalType": "uint256",
                  "name": "minHolding",
                  "type": "uint256"
                },
                {
                  "internalType": "address",
                  "name": "tokenAddress",
                  "type": "address"
                },
                {
                  "internalType": "uint256",
                  "name": "tokenId",
                  "type": "uint256"
                },
                {
                  "internalType": "address[]",
                  "name": "whiteList",
                  "type": "address[]"
                },
                {
                  "internalType": "uint256",
                  "name": "priorityPeriod",
                  "type": "uint256"
                }
              ],
              "internalType": "struct SummonDao.flexDaoPriorityMembershipInfo",
              "name": "_flexDaoPriorityMembershipInfo",
              "type": "tuple"
            },
            {
              "components": [
                {
                  "internalType": "bool",
                  "name": "enable",
                  "type": "bool"
                },
                {
                  "internalType": "uint256",
                  "name": "varifyType",
                  "type": "uint256"
                },
                {
                  "internalType": "uint256",
                  "name": "minHolding",
                  "type": "uint256"
                },
                {
                  "internalType": "address",
                  "name": "tokenAddress",
                  "type": "address"
                },
                {
                  "internalType": "uint256",
                  "name": "tokenId",
                  "type": "uint256"
                },
                {
                  "internalType": "address[]",
                  "name": "whiteList",
                  "type": "address[]"
                }
              ],
              "internalType": "struct SummonDao.flexDaoStewardMembershipInfo",
              "name": "_flexDaoStewardMembershipInfo",
              "type": "tuple"
            },
            {
              "components": [
                {
                  "internalType": "uint256",
                  "name": "votingPeriod",
                  "type": "uint256"
                },
                {
                  "internalType": "uint8",
                  "name": "votingPower",
                  "type": "uint8"
                },
                {
                  "internalType": "uint256",
                  "name": "superMajority",
                  "type": "uint256"
                },
                {
                  "internalType": "uint256",
                  "name": "quorum",
                  "type": "uint256"
                }
              ],
              "internalType": "struct SummonDao.flexDaoVotingInfo",
              "name": "_flexDaoVotingInfo",
              "type": "tuple"
            },
            {
              "components": [
                {
                  "internalType": "uint8",
                  "name": "varifyType",
                  "type": "uint8"
                },
                {
                  "internalType": "uint256",
                  "name": "minHolding",
                  "type": "uint256"
                },
                {
                  "internalType": "address",
                  "name": "tokenAddress",
                  "type": "address"
                },
                {
                  "internalType": "uint256",
                  "name": "tokenId",
                  "type": "uint256"
                },
                {
                  "internalType": "address[]",
                  "name": "whiteList",
                  "type": "address[]"
                }
              ],
              "internalType": "struct SummonDao.flexDaoPollsterMembershipInfo",
              "name": "_flexDaoPollsterMembershipInfo",
              "type": "tuple"
            },
            {
              "components": [
                {
                  "internalType": "uint256",
                  "name": "votingPeriod",
                  "type": "uint256"
                },
                {
                  "internalType": "uint8",
                  "name": "votingPower",
                  "type": "uint8"
                },
                {
                  "internalType": "uint256",
                  "name": "superMajority",
                  "type": "uint256"
                },
                {
                  "internalType": "uint256",
                  "name": "quorum",
                  "type": "uint256"
                }
              ],
              "internalType": "struct SummonDao.flexDaoPollingInfo",
              "name": "_flexDaoPollingInfo",
              "type": "tuple"
            },
            {
              "components": [
                {
                  "internalType": "uint8",
                  "name": "varifyType",
                  "type": "uint8"
                },
                {
                  "internalType": "uint256",
                  "name": "minHolding",
                  "type": "uint256"
                },
                {
                  "internalType": "address",
                  "name": "tokenAddress",
                  "type": "address"
                },
                {
                  "internalType": "uint256",
                  "name": "tokenId",
                  "type": "uint256"
                },
                {
                  "internalType": "address[]",
                  "name": "whiteList",
                  "type": "address[]"
                }
              ],
              "internalType": "struct SummonDao.flexDaoProposerMembershipInfo",
              "name": "_flexDaoProposerMembershipInfo",
              "type": "tuple"
            },
            {
              "components": [
                {
                  "internalType": "string",
                  "name": "name",
                  "type": "string"
                },
                {
                  "internalType": "address",
                  "name": "creator",
                  "type": "address"
                },
                {
                  "internalType": "uint256",
                  "name": "flexDaoManagementfee",
                  "type": "uint256"
                },
                {
                  "internalType": "address",
                  "name": "managementFeeAddress",
                  "type": "address"
                },
                {
                  "internalType": "address[]",
                  "name": "flexDaoGenesisStewards",
                  "type": "address[]"
                },
                {
                  "internalType": "uint8",
                  "name": "flexDaoFundriaseStyle",
                  "type": "uint8"
                }
              ],
              "internalType": "struct SummonDao.flexDaoInfo",
              "name": "_flexDaoInfo",
              "type": "tuple"
            }
          ],
          "internalType": "struct SummonDao.FlexDaoParams",
          "name": "params",
          "type": "tuple"
        }
      ],
      "name": "summonFlexDao",
      "outputs": [],
      "stateMutability": "nonpayable",
      "type": "function"
    },
    {
      "inputs": [
        {
          "internalType": "address",
          "name": "daoFacAddr",
          "type": "address"
        },
        {
          "internalType": "string",
          "name": "daoName",
          "type": "string"
        },
        {
          "internalType": "address",
          "name": "creator",
          "type": "address"
        }
      ],
      "name": "summonFlexDao1",
      "outputs": [
        {
          "internalType": "bool",
          "name": "",
          "type": "bool"
        }
      ],
      "stateMutability": "nonpayable",
      "type": "function"
    },
    {
      "inputs": [
        {
          "internalType": "bool",
          "name": "flexDaoPriorityDepositEnalbe",
          "type": "bool"
        },
        {
          "internalType": "uint256",
          "name": "flexDaoPriorityMembershipVarifyType",
          "type": "uint256"
        },
        {
          "internalType": "uint256",
          "name": "flexDaoPriorityMembershipPriorityPeriod",
          "type": "uint256"
        },
        {
          "internalType": "uint256",
          "name": "flexDaoPriorityMembershipMinHolding",
          "type": "uint256"
        },
        {
          "internalType": "uint256",
          "name": "flexDaoPriorityMembershipTokenId",
          "type": "uint256"
        },
        {
          "internalType": "address[]",
          "name": "flexDaoPriorityMembershipWhiteList",
          "type": "address[]"
        },
        {
          "internalType": "address",
          "name": "flexDaoPriorityMembershipTokenAddress",
          "type": "address"
        },
        {
          "internalType": "address",
          "name": "newDaoAddr",
          "type": "address"
        }
      ],
      "name": "summonFlexDao10",
      "outputs": [
        {
          "internalType": "bool",
          "name": "",
          "type": "bool"
        }
      ],
      "stateMutability": "nonpayable",
      "type": "function"
    },
    {
      "inputs": [
        {
          "internalType": "address",
          "name": "flexFundingPoolFacAddr",
          "type": "address"
        },
        {
          "internalType": "address",
          "name": "newDaoAddr",
          "type": "address"
        },
        {
          "internalType": "address",
          "name": "creator",
          "type": "address"
        }
      ],
      "name": "summonFlexDao2",
      "outputs": [
        {
          "internalType": "bool",
          "name": "",
          "type": "bool"
        }
      ],
      "stateMutability": "nonpayable",
      "type": "function"
    },
    {
      "inputs": [
        {
          "internalType": "address",
          "name": "daoFacAddr",
          "type": "address"
        },
        {
          "components": [
            {
              "internalType": "bytes32",
              "name": "id",
              "type": "bytes32"
            },
            {
              "internalType": "address",
              "name": "addr",
              "type": "address"
            },
            {
              "internalType": "uint128",
              "name": "flags",
              "type": "uint128"
            }
          ],
          "internalType": "struct DaoFactory.Adapter[]",
          "name": "enalbeAdapters",
          "type": "tuple[]"
        },
        {
          "internalType": "address",
          "name": "newDaoAddr",
          "type": "address"
        }
      ],
      "name": "summonFlexDao3",
      "outputs": [
        {
          "internalType": "bool",
          "name": "",
          "type": "bool"
        }
      ],
      "stateMutability": "nonpayable",
      "type": "function"
    },
    {
      "inputs": [
        {
          "internalType": "address",
          "name": "daoFacAddr",
          "type": "address"
        },
        {
          "internalType": "address",
          "name": "flexFundingPoolFacAddr",
          "type": "address"
        },
        {
          "components": [
            {
              "internalType": "bytes32",
              "name": "id",
              "type": "bytes32"
            },
            {
              "internalType": "address",
              "name": "addr",
              "type": "address"
            },
            {
              "internalType": "uint128",
              "name": "flags",
              "type": "uint128"
            }
          ],
          "internalType": "struct DaoFactory.Adapter[]",
          "name": "adapters1",
          "type": "tuple[]"
        },
        {
          "internalType": "address",
          "name": "newDaoAddr",
          "type": "address"
        }
      ],
      "name": "summonFlexDao4",
      "outputs": [
        {
          "internalType": "bool",
          "name": "",
          "type": "bool"
        }
      ],
      "stateMutability": "nonpayable",
      "type": "function"
    },
    {
      "inputs": [
        {
          "internalType": "uint256",
          "name": "flexDaoManagementfee",
          "type": "uint256"
        },
        {
          "internalType": "address",
          "name": "managementFeeAddress",
          "type": "address"
        },
        {
          "internalType": "uint256",
          "name": "flexDaoFundriaseStyle",
          "type": "uint256"
        },
        {
          "internalType": "uint256",
          "name": "votingPeriod",
          "type": "uint256"
        },
        {
          "internalType": "uint256",
          "name": "superMajority",
          "type": "uint256"
        },
        {
          "internalType": "address",
          "name": "newDaoAddr",
          "type": "address"
        }
      ],
      "name": "summonFlexDao5",
      "outputs": [
        {
          "internalType": "bool",
          "name": "",
          "type": "bool"
        }
      ],
      "stateMutability": "nonpayable",
      "type": "function"
    },
    {
      "inputs": [
        {
          "internalType": "address[]",
          "name": "flexDaoGenesisStewards",
          "type": "address[]"
        },
        {
          "internalType": "address",
          "name": "newDaoAddr",
          "type": "address"
        }
      ],
      "name": "summonFlexDao6",
      "outputs": [
        {
          "internalType": "bool",
          "name": "",
          "type": "bool"
        }
      ],
      "stateMutability": "nonpayable",
      "type": "function"
    },
    {
      "inputs": [
        {
          "internalType": "bool[2]",
          "name": "booleanParams",
          "type": "bool[2]"
        },
        {
          "internalType": "uint256[7]",
          "name": "uint256Params",
          "type": "uint256[7]"
        },
        {
          "internalType": "address",
          "name": "flexDaoPollsterMembershipTokenAddress",
          "type": "address"
        },
        {
          "internalType": "address[]",
          "name": "flexDaoPollsterMembershipWhiteList",
          "type": "address[]"
        },
        {
          "internalType": "address",
          "name": "newDaoAddr",
          "type": "address"
        }
      ],
      "name": "summonFlexDao7",
      "outputs": [
        {
          "internalType": "bool",
          "name": "",
          "type": "bool"
        }
      ],
      "stateMutability": "nonpayable",
      "type": "function"
    },
    {
      "inputs": [
        {
          "internalType": "bool",
          "name": "flexDaoStewardMembershipEnable",
          "type": "bool"
        },
        {
          "internalType": "uint256[6]",
          "name": "uint256Params",
          "type": "uint256[6]"
        },
        {
          "internalType": "address",
          "name": "flexDaoStewardMembershipTokenAddress",
          "type": "address"
        },
        {
          "internalType": "address[]",
          "name": "flexDaoStewardMembershipWhitelist",
          "type": "address[]"
        },
        {
          "internalType": "address",
          "name": "flexDaoProposerMembershipTokenAddress",
          "type": "address"
        },
        {
          "internalType": "address[]",
          "name": "flexDaoProposerMembershipWhiteList",
          "type": "address[]"
        },
        {
          "internalType": "address",
          "name": "newDaoAddr",
          "type": "address"
        }
      ],
      "name": "summonFlexDao8",
      "outputs": [
        {
          "internalType": "bool",
          "name": "",
          "type": "bool"
        }
      ],
      "stateMutability": "nonpayable",
      "type": "function"
    },
    {
      "inputs": [
        {
          "internalType": "bool",
          "name": "flexDaoParticipantMembetshipEnable",
          "type": "bool"
        },
        {
          "internalType": "string",
          "name": "flexDaoPaticipantMembershipName",
          "type": "string"
        },
        {
          "internalType": "uint256",
          "name": "flexDaoPaticipantMembershipVarifyType",
          "type": "uint256"
        },
        {
          "internalType": "uint256",
          "name": "flexDaoPaticipantMembershipMinHolding",
          "type": "uint256"
        },
        {
          "internalType": "uint256",
          "name": "flexDaoPaticipantMembershipTokenId",
          "type": "uint256"
        },
        {
          "internalType": "address",
          "name": "flexDaoPaticipantMembershipTokenAddress",
          "type": "address"
        },
        {
          "internalType": "address[]",
          "name": "flexDaoPaticipantMembershipWhiteList",
          "type": "address[]"
        },
        {
          "internalType": "address",
          "name": "newDaoAddr",
          "type": "address"
        }
      ],
      "name": "summonFlexDao9",
      "outputs": [
        {
          "internalType": "bool",
          "name": "",
          "type": "bool"
        }
      ],
      "stateMutability": "nonpayable",
      "type": "function"
    }
  ],
  "bytecode": "0x608060405234801561001057600080fd5b5061405a806100206000396000f3fe608060405234801561001057600080fd5b50600436106100b45760003560e01c8063b51ef4d311610071578063b51ef4d314610141578063cd3cbcac14610154578063d2bdd06714610167578063e23fdcb21461017a578063e9f2e4051461018d578063f8ec20e6146101a057600080fd5b806332c575f6146100b95780633bf2ff6f146100e0578063724c8011146100f3578063a22dff6d14610108578063a694adaa1461011b578063acadc61a1461012e575b600080fd5b6100cc6100c7366004613226565b6101b3565b604051901515815260200160405180910390f35b6100cc6100ee36600461326c565b610361565b610106610101366004613387565b610383565b005b6100cc610116366004613147565b6104d3565b6100cc6101293660046130fd565b6105d7565b6100cc61013c3660046134c5565b610757565b6100cc61014f3660046132b5565b610ab1565b6100cc610162366004613766565b610cba565b6100cc610175366004613690565b610f1d565b6100cc6101883660046135ce565b610f42565b6100cc61019b3660046131c1565b61100b565b6101066101ae36600461372e565b611088565b60003033146101c157600080fd5b604051633baeff3f60e01b815285906001600160a01b03821690633baeff3f906101f390889088908890600401613d23565b600060405180830381600087803b15801561020d57600080fd5b505af1158015610221573d6000803e3d6000fd5b5050604051631d1f0a2760e01b8152600092506001600160a01b0384169150631d1f0a27906102569089908990600401613d0f565b60206040518083038186803b15801561026e57600080fd5b505afa158015610282573d6000803e3d6000fd5b505050506040513d601f19601f820116820180604052508101906102a691906130e1565b90506001600160a01b0381166103185760405162461bcd60e51b815260206004820152602c60248201527f53756d6d6d6f6e44616f3a3a73756d6d6f6e466c657844616f3a3a637265617460448201526b194819185bc819985a5b195960a21b60648201526084015b60405180910390fd5b7f90b4d575a386848fdb50424cc74bd3396f96cbd019887f6e1cad00bf90b920bf878288888860405161034f9594939291906139a7565b60405180910390a15050949350505050565b60008130331461037057600080fd5b61037b818686611c52565b509392505050565b6103ac6040518060400160405280600781526020016631b0b63632b91d60c91b81525033611d20565b60005b60098110156104cf576000808383600981106103db57634e487b7160e01b600052603260045260246000fd5b6020020151516001600160a01b031684846009811061040a57634e487b7160e01b600052603260045260246000fd5b60200201516020015160405161042091906138f5565b6000604051808303816000865af19150503d806000811461045d576040519150601f19603f3d011682016040523d82523d6000602084013e610462565b606091505b5090925090508161047c610477856002613f0c565b611d65565b60405160200161048c9190613911565b604051602081830303815290604052906104b95760405162461bcd60e51b815260040161030f9190613d37565b50505080806104c790613f7b565b9150506103af565b5050565b6000813033146104e257600080fd5b6040516318a331bf60e11b81526001600160a01b0384811660048301528891889160009190831690633146637e9060240160206040518083038186803b15801561052b57600080fd5b505afa15801561053f573d6000803e3d6000fd5b505050506040513d601f19601f8201168201806040525081019061056391906130e1565b6040516329ca12ed60e01b81529091506001600160a01b038416906329ca12ed9061059890879085908d908d90600401613c5f565b600060405180830381600087803b1580156105b257600080fd5b505af11580156105c6573d6000803e3d6000fd5b505050505050505095945050505050565b60003033146105e557600080fd5b6040516313db266360e31b81526001600160a01b038481166004830152859190821690639ed9331890602401600060405180830381600087803b15801561062b57600080fd5b505af115801561063f573d6000803e3d6000fd5b50506040516318a331bf60e11b81526001600160a01b0387811660048301526000935084169150633146637e9060240160206040518083038186803b15801561068757600080fd5b505afa15801561069b573d6000803e3d6000fd5b505050506040513d601f19601f820116820180604052508101906106bf91906130e1565b60405163c130c63960e01b81527fb12a3847d47fefceb164b75823af125f9aa82b76938df0ddf08c04cd314ba37c60048201526001600160a01b0380831660248301528681166044830152919250869182169063c130c63990606401600060405180830381600087803b15801561073557600080fd5b505af1158015610749573d6000803e3d6000fd5b505050505050509392505050565b60008130331461076657600080fd5b8a15610a8357604051630da0f6c760e41b81527f71ecc01da16acc23ab0eca549b0aaa7659ae183a220304fe5072243bc984fd796004820152600160248201526001600160a01b0382169063da0f6c7090604401600060405180830381600087803b1580156107d457600080fd5b505af11580156107e8573d6000803e3d6000fd5b50508b51604051630da0f6c760e41b81527f84580f9d926113d2c801e908a914b652340b3d8527c171bcea8d1868e92a507c600482015260248101919091526001600160a01b038416925063da0f6c709150604401600060405180830381600087803b15801561085757600080fd5b505af115801561086b573d6000803e3d6000fd5b505050508960006006811061089057634e487b7160e01b600052603260045260246000fd5b602002015115806108a2575089516001145b806108ae575089516002145b156109bb5760208a0151604051630da0f6c760e41b81527f50c40dbbb38d5b02b04e0c6d7be02f4391fc8c14a98860284871ef1834c8390b600482015260248101919091526001600160a01b0382169063da0f6c7090604401600060405180830381600087803b15801561092157600080fd5b505af1158015610935573d6000803e3d6000fd5b5050604051631da7c90d60e11b81527f0bfac56541ded449415df8f96f54b002e55665d7fd2fafc884184e8c17f3c77260048201526001600160a01b038c8116602483015284169250633b4f921a9150604401600060405180830381600087803b1580156109a257600080fd5b505af11580156109b6573d6000803e3d6000fd5b505050505b895160021415610a4c576040808b01519051630da0f6c760e41b81527f93cc40268a57b3f7e5eb22a016a12d19010736289cceac5742a116fea3491b35600482015260248101919091526001600160a01b0382169063da0f6c7090604401600060405180830381600087803b158015610a3357600080fd5b505af1158015610a47573d6000803e3d6000fd5b505050505b89516003148015610a5c57508615155b15610a835760005b60ff8116881115610a815780610a7981613f96565b915050610a64565b505b60608a015160a08b015160808c0151610aa392849290918a908a8a611e86565b509998505050505050505050565b600081303314610ac057600080fd5b875115610ba057604051630da0f6c760e41b81527f6e9fd67c3f2ca4e2b4e4b45b33b985dc3a1bffcadea24d12440a5901f72217b56004820152600160248201526001600160a01b0382169063da0f6c7090604401600060405180830381600087803b158015610b2f57600080fd5b505af1158015610b43573d6000803e3d6000fd5b50505050610b808188600160078110610b6c57634e487b7160e01b600052603260045260246000fd5b602002015160408a015160608b01516120cc565b608087015160a088015160c0890151610ba092849290918a908a8a612252565b602088015115610caf57604051630da0f6c760e41b81527f0a71373d28d4b40b0bb46f8d58468f2e51292d10cf26715a0e3d8624b60c8a426004820152600160248201526001600160a01b0382169063da0f6c7090604401600060405180830381600087803b158015610c1257600080fd5b505af1158015610c26573d6000803e3d6000fd5b50508851604051630da0f6c760e41b81527faf0b46df030af159303b75690e740674df8434270d3b7248b0280f3d63a2dd8b600482015260248101919091526001600160a01b038416925063da0f6c7091506044015b600060405180830381600087803b158015610c9657600080fd5b505af1158015610caa573d6000803e3d6000fd5b505050505b509695505050505050565b600081303314610cc957600080fd5b604051630da0f6c760e41b81527f64c49ee5084f4940c312104c41603e43791b03dad28152afd6eadb5b960a8a876004820152602481018990526001600160a01b0382169063da0f6c7090604401600060405180830381600087803b158015610d3157600080fd5b505af1158015610d45573d6000803e3d6000fd5b5050604051631da7c90d60e11b81527f8987d08c67963e4cacd5e5936c122a968c66853d58299dd822c194222710983960048201526001600160a01b038a8116602483015284169250633b4f921a9150604401600060405180830381600087803b158015610db257600080fd5b505af1158015610dc6573d6000803e3d6000fd5b5050604051630da0f6c760e41b81527f04989ed5917c0c67758402dc7b3f0021af60355e4106333724ff89edb3cef8556004820152602481018990526001600160a01b038416925063da0f6c709150604401600060405180830381600087803b158015610e3257600080fd5b505af1158015610e46573d6000803e3d6000fd5b5050604051630da0f6c760e41b81527f9876c0f0505bfb2b1c38d3bbd25ba13159172cd0868972d76927723f5a9480fc6004820152602481018890526001600160a01b038416925063da0f6c709150604401600060405180830381600087803b158015610eb257600080fd5b505af1158015610ec6573d6000803e3d6000fd5b5050604051630da0f6c760e41b81527fb4c601c38beae7eebb719eda3438f59fcbfd4c6dd7d38c00665b6fd5b432df326004820152602481018790526001600160a01b038416925063da0f6c709150604401610c7c565b600081303314610f2c57600080fd5b8a15610aa357610aa3818b8b8b8b8b8b8b612491565b600081303314610f5157600080fd5b8b15610ffc57604051630da0f6c760e41b81527f96b394ec661f77cbb65c26efb1a3308a7405b2ad904ca7bd203e7a1c357372496004820152600160248201526001600160a01b0382169063da0f6c7090604401600060405180830381600087803b158015610fbf57600080fd5b505af1158015610fd3573d6000803e3d6000fd5b50505050610fe6818c8c8c8c8c8c6127d0565b8860031415610ffc57610ffc818c8c88886128e1565b509a9950505050505050505050565b60008130331461101a57600080fd5b6040516326ec802160e21b815286906001600160a01b03821690639bb200849061104c9085908a908a90600401613c96565b600060405180830381600087803b15801561106657600080fd5b505af115801561107a573d6000803e3d6000fd5b505050505050949350505050565b611090612ea8565b61109a8280613d74565b60008181106110b957634e487b7160e01b600052603260045260246000fd5b90506020020160208101906110ce91906130be565b6110dc6102a0840184613e45565b6110e69080613e01565b6110f46102a0860186613e45565b6111059060408101906020016130be565b6040516024016111189493929190613a09565b60408051601f198184030181529181526020820180516001600160e01b0316631962bafb60e11b179052818352513091611151916138f5565b6000604051808303816000865af19150503d806000811461118e576040519150601f19603f3d011682016040523d82523d6000602084013e611193565b606091505b50610160830152151561014082018190526112095760405162461bcd60e51b815260206004820152603060248201527f6c6f772d6c6576656c2063616c6c206f662066756e6374696f6e2073756d6d6f60448201526f1b919b195e11185bcc4819985a5b195960821b606482015260840161030f565b60006112196102a0840184613e45565b6112239080613e01565b604051602401611234929190613d0f565b60408051601f198184030181529190526020810180516001600160e01b0316631d1f0a2760e01b179052905061126a8380613d74565b600081811061128957634e487b7160e01b600052603260045260246000fd5b905060200201602081019061129e91906130be565b6001600160a01b0316816040516112b591906138f5565b6000604051808303816000865af19150503d80600081146112f2576040519150601f19603f3d011682016040523d82523d6000602084013e6112f7565b606091505b5061016084018190529015801561014085018190526020909201516001600160a01b031661018085015261133857506101808201516001600160a01b031615155b61134157600080fd5b61134b8380613d74565b600181811061136a57634e487b7160e01b600052603260045260246000fd5b905060200201602081019061137f91906130be565b6101808301516113936102a0860186613e45565b6113a49060408101906020016130be565b6040516001600160a01b0393841660248201529183166044830152909116606482015260840160408051601f19818403018152919052602080820180516001600160e01b031663534a56d560e11b1790528301526114028380613d74565b600081811061142157634e487b7160e01b600052603260045260246000fd5b905060200201602081019061143691906130be565b6114436020850185613dbb565b84610180015160405160240161145c94939291906139d2565b60408051601f198184030181529181526020820180516001600160e01b031663e9f2e40560e01b1790528301526114938380613d74565b60008181106114b257634e487b7160e01b600052603260045260246000fd5b90506020020160208101906114c791906130be565b6114d18480613d74565b60018181106114f057634e487b7160e01b600052603260045260246000fd5b905060200201602081019061150591906130be565b6115126040860186613dbb565b85610180015160405160240161152c959493929190613967565b60408051601f198184030181529190526020810180516001600160e01b031663a22dff6d60e01b17905260608301526115696102a0840184613e45565b6040013561157b6102a0850185613e45565b61158c9060808101906060016130be565b61159a6102a0860186613e45565b6115ab9060c081019060a0016137c3565b61018085015160405160248101949094526001600160a01b03928316604485015260ff909116606484015261016086013560848401526101a086013560a48401521660c482015260e40160408051601f198184030181529190526020810180516001600160e01b031663334f2f2b60e21b17905260808301526116326102a0840184613e45565b611640906080810190613d74565b83610180015160405160240161165893929190613a2c565b60408051601f19818403018152918152602080830180516001600160e01b0316633bf2ff6f60e01b17905260a080860193909352815160e081018352928601358352610200860135908301526000919081016116bc610240870161022088016137c3565b60ff16815261024086013560208201526040016116dd6101e0870187613e5a565b6116eb9060208101906137c3565b60ff1681526020016117016101e0870187613e5a565b6020908101358252016117186101e0870187613e5a565b6060013581525090506000604051806040016040528086606001602081019061174191906134ab565b1515815260200161175860a08801608089016134ab565b151590529050808261176e6101e0880188613e5a565b61177f9060608101906040016130be565b61178d6101e0890189613e5a565b61179b906080810190613d74565b8861018001516040516024016117b696959493929190613a58565b60408051601f198184030181529181526020820180516001600160e01b031663b51ef4d360e01b17905260c0808701929092528051918201905260009080611802610140890189613e45565b602090810135825201611819610140890189613e45565b604001358152602001611830610140890189613e45565b608001358152602001611847610280890189613e5a565b6118559060208101906137c3565b60ff16815260200161186b610280890189613e5a565b606001358152602001611882610280890189613e5a565b6020013590529050611898610140870187613e45565b6118a69060208101906134ab565b816118b5610140890189613e45565b6118c69060808101906060016130be565b6118d46101408a018a613e45565b6118e29060a0810190613d74565b6118f06102808c018c613e5a565b6119019060608101906040016130be565b61190f6102808d018d613e5a565b61191d906080810190613d74565b8c610180015160405160240161193b99989796959493929190613af6565b60408051601f198184030181529190526020810180516001600160e01b0316635656e30d60e11b17905260e08087019190915261197d90870160c088016134ab565b61198a60e0880188613e45565b6119949080613e01565b6119a160e08a018a613e45565b6119b29060408101906020016137c3565b6119bf60e08b018b613e45565b604001356119d060e08c018c613e45565b608001356119e160e08d018d613e45565b6119f29060808101906060016130be565b6119ff60e08e018e613e45565b611a0d9060a0810190613d74565b8d6101800151604051602401611a2c9a99989796959493929190613b88565b60408051601f198184030181529190526020810180516001600160e01b031663711fee5960e11b17905261010080870191909152611a719061012088019088016134ab565b611a7f610120880188613e45565b611a8d9060208101906137c3565b611a9b610120890189613e45565b60a00135611aad6101208a018a613e45565b60200135611abf6101208b018b613e45565b60600135611ad16101208c018c613e45565b611adf906080810190613d74565b611aed6101208e018e613e45565b611afe9060608101906040016130be565b8c6101800151604051602401611b1c99989796959493929190613bfd565b60408051601f19818403018152918152602080830180516001600160e01b031663d2bdd06760e01b1790526101208801928352815180830183523080825289830151828401526101a08a01805192909252835180850185528181528a850151818501528251840152835180850185528181526060808c0151828601528351860191909152845180860186528281526080808d0151828701528451909201528451808601865282815260a0808d0151828701528451909201528451808601865282815260c0808d0151828701528451909201528451808601865282815260e0808d015182870152845190920152845180860186528281526101008c015181860152835190910152835180850190945283529251908201529051600860200201526101a0850151611c4a90610383565b505050505050565b8015611d1b5760005b60ff8116821115611d1957836001600160a01b031663dc929f4a84848460ff16818110611c9857634e487b7160e01b600052603260045260246000fd5b9050602002016020810190611cad91906130be565b6040516001600160e01b031960e084901b1681526001600160a01b039091166004820152602401600060405180830381600087803b158015611cee57600080fd5b505af1158015611d02573d6000803e3d6000fd5b505050508080611d1190613f96565b915050611c5b565b505b505050565b6104cf8282604051602401611d36929190613d4a565b60408051601f198184030181529190526020810180516001600160e01b031663319af33360e01b179052612a46565b606081611d895750506040805180820190915260018152600360fc1b602082015290565b8160005b8115611db35780611d9d81613f7b565b9150611dac9050600a83613f24565b9150611d8d565b6000816001600160401b03811115611ddb57634e487b7160e01b600052604160045260246000fd5b6040519080825280601f01601f191660200182016040528015611e05576020820181803683370190505b5090505b8415611e7e57611e1a600183613f38565b9150611e27600a86613fb6565b611e32906030613f0c565b60f81b818381518110611e5557634e487b7160e01b600052603260045260246000fd5b60200101906001600160f81b031916908160001a905350611e77600a86613f24565b9450611e09565b949350505050565b851580611e935750856001145b80611e9e5750856002145b15611fa557604051630da0f6c760e41b81527ff6d5f030b79ca78dad001b87a49239ec96be97e62d13501da94c9a392700509e6004820152602481018690526001600160a01b0388169063da0f6c7090604401600060405180830381600087803b158015611f0b57600080fd5b505af1158015611f1f573d6000803e3d6000fd5b5050604051631da7c90d60e11b81527f30091caaedd0994beeeeb3b7b5734296263687ae0126aaf79e5e0f8e5c1706b260048201526001600160a01b0387811660248301528a169250633b4f921a9150604401600060405180830381600087803b158015611f8c57600080fd5b505af1158015611fa0573d6000803e3d6000fd5b505050505b856002141561202f57604051630da0f6c760e41b81527fb34f156369747125f679c86d97f51861a5a2a9f927a1addd4354acbaaa88ae576004820152602481018490526001600160a01b0388169063da0f6c7090604401600060405180830381600087803b15801561201657600080fd5b505af115801561202a573d6000803e3d6000fd5b505050505b604051630da0f6c760e41b81527f57901982635f8a470a3648422f8f769cf08dc2057489be5bf0099fcb44f7d43c6004820152602481018790526001600160a01b0388169063da0f6c7090604401600060405180830381600087803b15801561209757600080fd5b505af11580156120ab573d6000803e3d6000fd5b5050505085600314156120c3576120c3878383612a67565b50505050505050565b604051630da0f6c760e41b81527fee63cc82ca6990a4cc5fa3ca10d8a5281ae1758a8d8f22892c4badb7cacd111e6004820152602481018490526001600160a01b0385169063da0f6c7090604401600060405180830381600087803b15801561213457600080fd5b505af1158015612148573d6000803e3d6000fd5b5050604051630da0f6c760e41b81527fcfe20936b2b01e130d3cdf28f04cbdf5f0721a7c9092d9ca7a9e189d87dd82e26004820152602481018590526001600160a01b038716925063da0f6c709150604401600060405180830381600087803b1580156121b457600080fd5b505af11580156121c8573d6000803e3d6000fd5b5050604051630da0f6c760e41b81527f777270e51451e60c2ce5118fc8e5844441dcc4d102e9052e60fb41312dbb848a6004820152602481018490526001600160a01b038716925063da0f6c709150604401600060405180830381600087803b15801561223457600080fd5b505af1158015612248573d6000803e3d6000fd5b5050505050505050565b604051630da0f6c760e41b81527f112aea211656a3cfbf863b85e1ea090785899c30bd783708bb07b5a9049e5c326004820152602481018790526001600160a01b0388169063da0f6c7090604401600060405180830381600087803b1580156122ba57600080fd5b505af11580156122ce573d6000803e3d6000fd5b5050505085600014806122e15750856001145b806122ec5750856002145b156123f357604051630da0f6c760e41b81527f308a2ac7f1fce200f70e879e51cb346dfa5bc50cc3ffd14e12510d1fbaecb3526004820152602481018690526001600160a01b0388169063da0f6c7090604401600060405180830381600087803b15801561235957600080fd5b505af115801561236d573d6000803e3d6000fd5b5050604051631da7c90d60e11b81527f31cf49cb2c53ac34ebe77513f2222803ae1f2e89c781171ca472d273e659357560048201526001600160a01b0387811660248301528a169250633b4f921a9150604401600060405180830381600087803b1580156123da57600080fd5b505af11580156123ee573d6000803e3d6000fd5b505050505b856002141561247d57604051630da0f6c760e41b81527f5b0d0dc46f84f7703b74bcc9981b23b0ddbcdc040dd1c5c313bc64f7ab01ba886004820152602481018490526001600160a01b0388169063da0f6c7090604401600060405180830381600087803b15801561246457600080fd5b505af1158015612478573d6000803e3d6000fd5b505050505b85600314156120c3576120c3878383612bd2565b604051630da0f6c760e41b81527f522d712abf06d7a4ec6dac3c77461903ee7523b623709d23acad0c6ae24dccc26004820152600160248201526001600160a01b0389169063da0f6c7090604401600060405180830381600087803b1580156124f957600080fd5b505af115801561250d573d6000803e3d6000fd5b5050604051630da0f6c760e41b81527fb1f9461b62129e5e1283e29f3e1ced18d2e86af86241cfcb424f6ba4fb7f454c6004820152602481018a90526001600160a01b038b16925063da0f6c709150604401600060405180830381600087803b15801561257957600080fd5b505af115801561258d573d6000803e3d6000fd5b5050604051630da0f6c760e41b81527f46021a9d9de6e72975a5d8d7d00e797ad1d45b789f6119571dc599350897dcb56004820152602481018990526001600160a01b038b16925063da0f6c709150604401600060405180830381600087803b1580156125f957600080fd5b505af115801561260d573d6000803e3d6000fd5b5050505086600014806126205750866001145b8061262b5750866002145b1561273257604051630da0f6c760e41b81527fa8b1c741b883d35410d6186bbec4278982b7e509115b304ea7443665f139cc5a6004820152602481018690526001600160a01b0389169063da0f6c7090604401600060405180830381600087803b15801561269857600080fd5b505af11580156126ac573d6000803e3d6000fd5b5050604051631da7c90d60e11b81527fea1256a286695b4929ba634b6e0a36015d2a908045a29f78da51cee1a0d82b6b60048201526001600160a01b0384811660248301528b169250633b4f921a9150604401600060405180830381600087803b15801561271957600080fd5b505af115801561272d573d6000803e3d6000fd5b505050505b86600214156127bc57604051630da0f6c760e41b81527f461c66a772f861188d09f9684d5e0953afbfc97e19709fe20d9f2757f401e7816004820152602481018590526001600160a01b0389169063da0f6c7090604401600060405180830381600087803b1580156127a357600080fd5b505af11580156127b7573d6000803e3d6000fd5b505050505b866003141561224857612248888484612d3d565b6040516317ba7d8560e01b81527f2207fd6117465cefcba0abc867150698c0464aa41a293ec29ca01b67a6350c3c60048201526000906001600160a01b038916906317ba7d859060240160206040518083038186803b15801561283257600080fd5b505afa158015612846573d6000803e3d6000fd5b505050506040513d601f19601f8201168201806040525081019061286a91906130e1565b604051632252868560e01b81529091506001600160a01b038216906322528685906128a5908b908b908b908b908b908a908c90600401613cc4565b600060405180830381600087803b1580156128bf57600080fd5b505af11580156128d3573d6000803e3d6000fd5b505050505050505050505050565b8015612a3f576040516317ba7d8560e01b81527f2207fd6117465cefcba0abc867150698c0464aa41a293ec29ca01b67a6350c3c60048201526000906001600160a01b038716906317ba7d859060240160206040518083038186803b15801561294957600080fd5b505afa15801561295d573d6000803e3d6000fd5b505050506040513d601f19601f8201168201806040525081019061298191906130e1565b905060005b60ff81168311156120c357816001600160a01b031663f542c86a88888888888760ff168181106129c657634e487b7160e01b600052603260045260246000fd5b90506020020160208101906129db91906130be565b6040518563ffffffff1660e01b81526004016129fa9493929190613a09565b600060405180830381600087803b158015612a1457600080fd5b505af1158015612a28573d6000803e3d6000fd5b505050508080612a3790613f96565b915050612986565b5050505050565b80516a636f6e736f6c652e6c6f67602083016000808483855afa5050505050565b8015611d1b576040516317ba7d8560e01b81527f7a8526bca00f0726b2fab8c3bfd5b00bfa84d07f111e48263b13de605eefcdda60048201526000906001600160a01b038516906317ba7d859060240160206040518083038186803b158015612acf57600080fd5b505afa158015612ae3573d6000803e3d6000fd5b505050506040513d601f19601f82011682018060405250810190612b0791906130e1565b905060005b60ff8116831115612a3f57816001600160a01b031663c7aa00dd8686868560ff16818110612b4a57634e487b7160e01b600052603260045260246000fd5b9050602002016020810190612b5f91906130be565b6040516001600160e01b031960e085901b1681526001600160a01b03928316600482015291166024820152604401600060405180830381600087803b158015612ba757600080fd5b505af1158015612bbb573d6000803e3d6000fd5b505050508080612bca90613f96565b915050612b0c565b8015611d1b576040516317ba7d8560e01b81527f6f48e16963713446db50a1503860d8e1fc3c888da56a85afcaa6dc29503cc61060048201526000906001600160a01b038516906317ba7d859060240160206040518083038186803b158015612c3a57600080fd5b505afa158015612c4e573d6000803e3d6000fd5b505050506040513d601f19601f82011682018060405250810190612c7291906130e1565b905060005b60ff8116831115612a3f57816001600160a01b03166383dd31458686868560ff16818110612cb557634e487b7160e01b600052603260045260246000fd5b9050602002016020810190612cca91906130be565b6040516001600160e01b031960e085901b1681526001600160a01b03928316600482015291166024820152604401600060405180830381600087803b158015612d1257600080fd5b505af1158015612d26573d6000803e3d6000fd5b505050508080612d3590613f96565b915050612c77565b8015611d1b576040516317ba7d8560e01b81527f2207fd6117465cefcba0abc867150698c0464aa41a293ec29ca01b67a6350c3c60048201526000906001600160a01b038516906317ba7d859060240160206040518083038186803b158015612da557600080fd5b505afa158015612db9573d6000803e3d6000fd5b505050506040513d601f19601f82011682018060405250810190612ddd91906130e1565b905060005b60ff8116831115612a3f57816001600160a01b03166307832bfd8686868560ff16818110612e2057634e487b7160e01b600052603260045260246000fd5b9050602002016020810190612e3591906130be565b6040516001600160e01b031960e085901b1681526001600160a01b03928316600482015291166024820152604401600060405180830381600087803b158015612e7d57600080fd5b505af1158015612e91573d6000803e3d6000fd5b505050508080612ea090613f96565b915050612de2565b604051806101c00160405280606081526020016060815260200160608152602001606081526020016060815260200160608152602001606081526020016060815260200160608152602001606081526020016000151581526020016060815260200160006001600160a01b03168152602001612f22612f27565b905290565b6040518061012001604052806009905b604080518082019091526000815260606020820152815260200190600190039081612f375790505090565b8035612f6d8161400c565b919050565b60008083601f840112612f83578182fd5b5081356001600160401b03811115612f99578182fd5b6020830191508360208260051b8501011115612fb457600080fd5b9250929050565b60008083601f840112612fcc578182fd5b5081356001600160401b03811115612fe2578182fd5b602083019150836020606083028501011115612fb457600080fd5b600082601f83011261300d578081fd5b60405160e081018181106001600160401b038211171561302f5761302f613ff6565b604052808360e08101861015613043578384fd5b835b6007811015613064578135835260209283019290910190600101613045565b509195945050505050565b80358015158114612f6d57600080fd5b60008083601f840112613090578182fd5b5081356001600160401b038111156130a6578182fd5b602083019150836020828501011115612fb457600080fd5b6000602082840312156130cf578081fd5b81356130da8161400c565b9392505050565b6000602082840312156130f2578081fd5b81516130da8161400c565b600080600060608486031215613111578182fd5b833561311c8161400c565b9250602084013561312c8161400c565b9150604084013561313c8161400c565b809150509250925092565b60008060008060006080868803121561315e578283fd5b85356131698161400c565b945060208601356131798161400c565b935060408601356001600160401b03811115613193578384fd5b61319f88828901612fbb565b90945092505060608601356131b38161400c565b809150509295509295909350565b600080600080606085870312156131d6578182fd5b84356131e18161400c565b935060208501356001600160401b038111156131fb578283fd5b61320787828801612fbb565b909450925050604085013561321b8161400c565b939692955090935050565b6000806000806060858703121561323b578182fd5b84356132468161400c565b935060208501356001600160401b03811115613260578283fd5b6132078782880161307f565b600080600060408486031215613280578081fd5b83356001600160401b03811115613295578182fd5b6132a186828701612f72565b909450925050602084013561313c8161400c565b60008060008060008061018087890312156132ce578384fd5b87601f8801126132dc578384fd5b6132e4613e6f565b808860408a018b8111156132f6578788fd5b875b600281101561331f5761330a8361306f565b855260209485019492909201916001016132f8565b5082995061332d8c82612ffd565b9850505050506133406101208801612f62565b93506101408701356001600160401b0381111561335b578182fd5b61336789828a01612f72565b909450925061337b90506101608801612f62565b90509295509295509295565b60006020808385031215613399578182fd5b82356001600160401b03808211156133af578384fd5b8185019150601f86818401126133c3578485fd5b6133cb613e97565b808489610120870111156133dd578788fd5b875b600981101561349c578135868111156133f657898afd5b87016040818d03121561340757898afd5b61340f613e6f565b813561341a8161400c565b8152818a01358881111561342c578b8cfd5b8083019250508c8783011261343f578a8bfd5b81358881111561345157613451613ff6565b613462818901601f19168c01613edc565b8181528e8c838601011115613475578c8dfd5b818c85018d8301379081018b018c9052818b015285525092870192908701906001016133df565b50909998505050505050505050565b6000602082840312156134bc578081fd5b6130da8261306f565b60008060008060008060008060006101808a8c0312156134e3578687fd5b6134ec8a61306f565b985060208b603f8c01126134fe578788fd5b613506613eba565b80828d0160e08e018f81111561351a578b8cfd5b8b5b60068110156135395782358552938501939185019160010161351c565b50829c5061354681612f62565b9b5050505050506101008a01356001600160401b0380821115613567578485fd5b6135738d838e01612f72565b90985096508691506135886101208d01612f62565b95506101408c013591508082111561359e578485fd5b506135ab8c828d01612f72565b90945092506135bf90506101608b01612f62565b90509295985092959850929598565b6000806000806000806000806000806101008b8d0312156135ed578384fd5b6135f68b61306f565b995060208b01356001600160401b0380821115613611578586fd5b61361d8e838f0161307f565b909b50995060408d0135985060608d0135975060808d0135965060a08d013591506136478261400c565b90945060c08c0135908082111561365c578283fd5b506136698d828e01612f72565b90945092505060e08b013561367d8161400c565b809150509295989b9194979a5092959850565b60008060008060008060008060006101008a8c0312156136ae578283fd5b6136b78a61306f565b985060208a0135975060408a0135965060608a0135955060808a0135945060a08a01356001600160401b038111156136ed578384fd5b6136f98c828d01612f72565b90955093505060c08a013561370d8161400c565b915060e08a013561371d8161400c565b809150509295985092959850929598565b60006020828403121561373f578081fd5b81356001600160401b03811115613754578182fd5b82016102c081850312156130da578182fd5b60008060008060008060c0878903121561377e578384fd5b8635955060208701356137908161400c565b945060408701359350606087013592506080870135915060a08701356137b58161400c565b809150509295509295509295565b6000602082840312156137d4578081fd5b813560ff811681146130da578182fd5b81835260006020808501945082825b858110156138215781356138068161400c565b6001600160a01b0316875295820195908201906001016137f3565b509495945050505050565b81835260006020808501945082825b858110156138215781358752828201356138548161400c565b6001600160a01b0316878401526040828101356fffffffffffffffffffffffffffffffff8116808214613885578687fd5b9189019190915250606096870196919091019060010161383b565b81835281816020850137506000828201602090810191909152601f909101601f19169091010190565b600081518084526138e1816020860160208601613f4f565b601f01601f19169290920160200192915050565b60008251613907818460208701613f4f565b9190910192915050565b7f6c6f772d6c6576656c2063616c6c206f662073756d6d6f6e466c657844616f0081526000825161394981601f850160208701613f4f565b660819985a5b195960ca1b601f939091019283015250602601919050565b600060018060a01b03808816835280871660208401526080604084015261399260808401868861382c565b91508084166060840152509695505050505050565b600060018060a01b0380881683528087166020840152608060408401526139926080840186886138a0565b600060018060a01b038087168352606060208401526139f560608401868861382c565b915080841660408401525095945050505050565b600060018060a01b038087168352606060208401526139f56060840186886138a0565b604081526000613a406040830185876137e4565b905060018060a01b0383166020830152949350505050565b60006101808289835b6002811015613a825781511515835260209283019290910190600101613a61565b5050506040830188835b6007811015613aab578151835260209283019290910190600101613a8c565b5050506001600160a01b03871661012084015280610140840152613ad281840186886137e4565b915050613aeb6101608301846001600160a01b03169052565b979650505050505050565b60006101808b1515835260208084018c845b6006811015613b2557815183529183019190830190600101613b08565b505050506001600160a01b038a811660e08501526101008401829052613b4e8285018a8c6137e4565b9150808816610120850152838203610140850152613b6d8287896137e4565b925080851661016085015250509a9950505050505050505050565b60006101008c15158352806020840152613ba58184018c8e6138a0565b60ff8b166040850152606084018a9052608084018990526001600160a01b0388811660a086015284820360c0860152909150613be28287896137e4565b925080851660e085015250509b9a5050505050505050505050565b60006101008b1515835260ff8b1660208401528960408401528860608401528760808401528060a0840152613c3581840187896137e4565b6001600160a01b0395861660c08501529390941660e0909201919091525098975050505050505050565b6001600160a01b03858116825284166020820152606060408201819052600090613c8c908301848661382c565b9695505050505050565b6001600160a01b0384168152604060208201819052600090613cbb908301848661382c565b95945050505050565b600060018060a01b03808a16835260c06020840152613ce760c08401898b6138a0565b60ff97909716604084015260608301959095525091909216608082015260a001529392505050565b602081526000611e7e6020830184866138a0565b604081526000613a406040830185876138a0565b6020815260006130da60208301846138c9565b604081526000613d5d60408301856138c9565b905060018060a01b03831660208301529392505050565b6000808335601e19843603018112613d8a578283fd5b8301803591506001600160401b03821115613da3578283fd5b6020019150600581901b3603821315612fb457600080fd5b6000808335601e19843603018112613dd1578283fd5b8301803591506001600160401b03821115613dea578283fd5b6020019150606081023603821315612fb457600080fd5b6000808335601e19843603018112613e17578283fd5b8301803591506001600160401b03821115613e30578283fd5b602001915036819003821315612fb457600080fd5b6000823560be19833603018112613907578182fd5b60008235609e19833603018112613907578182fd5b604080519081016001600160401b0381118282101715613e9157613e91613ff6565b60405290565b60405161012081016001600160401b0381118282101715613e9157613e91613ff6565b60405160c081016001600160401b0381118282101715613e9157613e91613ff6565b604051601f8201601f191681016001600160401b0381118282101715613f0457613f04613ff6565b604052919050565b60008219821115613f1f57613f1f613fca565b500190565b600082613f3357613f33613fe0565b500490565b600082821015613f4a57613f4a613fca565b500390565b60005b83811015613f6a578181015183820152602001613f52565b83811115611d195750506000910152565b6000600019821415613f8f57613f8f613fca565b5060010190565b600060ff821660ff811415613fad57613fad613fca565b60010192915050565b600082613fc557613fc5613fe0565b500690565b634e487b7160e01b600052601160045260246000fd5b634e487b7160e01b600052601260045260246000fd5b634e487b7160e01b600052604160045260246000fd5b6001600160a01b038116811461402157600080fd5b5056fea26469706673582212206562570a9c013039dbe7f6679ce3ddfd3ded53e17dfd3c28ab3c99b97f74657364736f6c63430008040033",
  "linkReferences": {},
  "deployedLinkReferences": {}
}